:0300000002062DC8
:0C062D00787FE4F6D8FD75810702022BEF
:1005F300759D0143972075BCC07F647E007D007CA0
:04060300000205A943
:1005C50043BC08E5BC30E4FBAFBDADBEEFFEEDFFBF
:0805D50053BCEFE4F5BDF5BED7
:0105DD0022FB
:10022B001205F3E4FB1205C574042BF582E43400CC
:10023B00F583EFF00BEBB40AEC900005E0FF9000B8
:10024B0004E02FFFE433FE900006E07C002FFFEC70
:10025B003EFEA3E02FFFEC3EFEA3E02FFFEC3EFEA5
:10026B00A3E02FFFEC3EFEA3E02FFFEC3EFEA3E04E
:10027B002FFFEC3EFEA3E02FFFEC3EFEA3E02FFF93
:10028B00EC3EFE7D0A1201C8900000EFF0FCE41278
:10029B0001137B937AC67948783E1200031201470B
:1002AB00900000EFF0E0FE75F06484A3F0EE75F0C3
:1002BB000A8475F00A84AEF0A3EEF0FDEF75F00A38
:1002CB0084A3E5F0F07F021204EE7F017E007D0037
:1002DB007C001205A9900003E0FD7F031204EE7F62
:1002EB00017E007D007C001205A97D147F041204A1
:0F02FB00EE7F017E007D007C001205A902022E1D
:100589003F065B4F666D7D077F6F777C395E7971BA
:10059900763854733E00BF86DBCFE6EDFD87FFEF6B
:10061B00D295D2947F027E007D007C00120607C229
:02062B00942217
:10055B00C2957F057E007D007C0012060730940E4D
:10056B00900020E0C394FA5005E004F080EFD295A0
:0D057B007F027E007D007C00120607C29505
:010588002250
:10052700C2957F027E007D007C00120607C2947F81
:10053700027E007D007C00120607D2957F027E00B6
:100547007D007C00120607D2947F027E007D007C2E
:040557000002060791
:0604A200E090058993FFC4
:0504A80090001EEFF0C2
:1004AD00E4A3F0C29590001EE030E004D2948002E7
:1004BD00C2947F037E007D007C0012060790001E13
:1004CD00E0C313F0D2957F037E007D007C00120601
:0D04DD000790001FE004F0E0C3940840C643
:0104EA0022EF
:1003AF00900016EFF0A3EDF0A3EBF012061B7F40C9
:1003BF001204A812055B12052712061B7FC0120438
:1003CF00A812055B9000161204A212055B90001A8A
:1003DF00E070069000171204A290001AE0FFB4011B
:1003EF0014C43333335480FF900017E09005899382
:1003FF004FFF1204A890001AE0B4020C900017E00F
:10040F0090059F93FF1204A812055B900018120429
:10041F00A212055B9000191204A212055B120527A8
:0E042F0012061B7F891204A812055B02052726
:04043D00AB07AA0659
:100441007C037DE81201C890001DEFF07C007D6403
:10045100AF03AE021201C87C007D0A1201C89000F0
:100461001CEDF07C007D0AAF03AE021201C87C00D6
:100471007D0A1201C890001BEDF0AE02AF037C00B3
:100481007D0A1201C8AE0590001DE0FF90001CE03E
:10049100FD90001BE0FB900019EEF0E4A3F00203D5
:0104A100AFAB
:1005DE003F065B4F666D7D077F6F777C395E797165
:0505EE00763854733E55
:0304EB00A3E0FD8E
:1004EE00EFB40108C291D292D293D294EFB4020823
:1004FE00D291C292D293D294EFB40308D291D292F7
:10050E00C293D294EFB40408D291D292D293C294F1
:09051E00ED9005DE93F4F5802256
:04030A00AB07AA068D
:10030E007C037DE81201C890000EEEF0A3EFF07CA6
:10031E00007D64AF03AE021201C87C007D0A12019B
:10032E00C8A3ECF0A3EDF07C007D0AAF03AE021281
:10033E0001C87C007D0A1201C8A3ECF0A3EDF0AE5B
:10034E0002AF037C007D0A1201C8A3ECF0A3EDF00E
:10035E0090000E7F011204EB7F057E007D007C0075
:10036E001205A99000107F021204EB7F057E007D1E
:10037E00007C001205A9900012A3E0FD7F03120479
:10038E00EE7F057E007D007C001205A9900014A36F
:10039E00E0FD7F041204EE0F7E007D007C0002055E
:0103AE00A9A5
:10060700D3EF9400EE9400400A000000EF1F70F053
:030617001E80ED55
:01061A0022BD
:1005A900D3EF9400EE940040120000007D0B7CBE56
:0B05B900DCFEDDFCEF1F70E81E80E59B
:0105C4002214
:10000300EC4D6011E8497017ED33EC3304600DE4F7
:10001300FCFFFEFD22E933E8330470F80201B3125A
:10002300017E58046009E4CC24815006285009025B
:1000330001BD2840030201BAC0E0EB4A7044B98015
:1000430006D0E0FB0201A9EF4E701CBD8008EBFF58
:10005300EAFEE9FD80EBE98DF0A4FEE5F00200EC99
:10006300E9CDF9EAFEEBFFEF89F0A4FCE5F0CE89D8
:10007300F0A42EFFE435F0CD89F0A42DFEE435F095
:100083008067EF4E7005BD80D780C3EF8BF0A4ACC3
:10009300F0EE8BF0A42CFCE435F0F8EF8AF0A42CFE
:1000A300E5F038FCE433CB8DF0A42CFCE5F03BF811
:1000B300EE8AF0A42CFCE5F038F8E433CF89F0A401
:1000C3002CFCE5F038CF3400CE89F0A42FFFE5F007
:1000D3003EFEE433C98DF0A42EFEE5F039CD8AF05F
:1000E300A42FFFE5F03EFEE43DFD33D0E0FB5007D7
:1000F3000BBB000F0201BDEC2CFCEF33FFEE33FE14
:06010300ED33FD02019541
:1001090075F020800E75F010800575F0087D007E71
:10011900007F003392D530D50312021DEC33401015
:10012900EF33FFEE33FEED33FDEC33FCD5F0ED227A
:0E013900E5F0247EA2D513CC92E7CDCEFF22B6
:10014700EDD2E7CD33EC3392D524814006E4FFFEB0
:10015700FDFC22FCE4CFCECDCC24E0501174FF800F
:10016700EDC3CC13CCCD13CDCE13CECF13CF0470AC
:07017700F030D5DE02021D8D
:10017E00E9D2E7C933E833F892D5EDD2E7CD33ECC7
:07018E0033FC5002B2D52240
:10019500EC30E7100FBF000C0EBE00080DBD0004CB
:1001A5000BEB6014A2D5EB13FCED92E7FD2274FF77
:1001B500FCFDFEFF22E480F8A2D574FF13FC7D80D0
:0301C500E480EFE4
:1001C800BC000BBE0029EF8DF084FFADF022E4CC1B
:1001D800F875F008EF2FFFEE33FEEC33FCEE9DECE4
:1001E800984005FCEE9DFE0FD5F0E9E4CEFD22ED2A
:1001F800F8F5F0EE8420D21CFEADF075F008EF2F74
:10020800FFED33FD4007985006D5F0F222C398FD64
:050218000FD5F0EA2201
:0E021D00C3E49FFFE49EFEE49DFDE49CFC22F2
:00000001FF
