:03000000020536C0
:0C053600787FE4F6D8FD75810702022BE7
:1004FC00759D0143972075BCC07F647E007D007C98
:04050C00000204E005
:1004C40043BC08E5BC5410641070F8AFBDADBEEF7A
:0B04D400FEEDFF53BCEFE4F5BDF5BEEC
:0104DF0022FA
:10022B001204FCE4FBEBC3940A748094805012120A
:10023B0004C474042BF582E43400F583EFF00B80D7
:10024B00E4900005E0FF900004E02FFFE433FE9004
:10025B000006E07C002FFFEC3EFEA3E02FFFEC3E00
:10026B00FEA3E02FFFEC3EFEA3E02FFFEC3EFEA330
:10027B00E02FFFEC3EFEA3E02FFFEC3EFEA3E02FB2
:10028B00FFEC3EFEA3E02FFFEC3EFE7D0A1201C801
:10029B00900000EFF0FCE41201137B937AC67948CF
:1002AB00783E120003120147900000EFF0FEE0FDD4
:1002BB0075F06484FFA3F0ED75F00A8475F00A8481
:1002CB00ADF0A3EDF0EE75F00A84AEF0A3EEF0FB0B
:1002DB009000117414F0A37401F01202F67FE87E03
:0B02EB00037D007C001204E002022EE4
:1004A4003F065B4F666D7D077F6F777C395E7971A0
:1004B400763854733E00BF86DBCFE6EDFD87FFEF51
:10052400D295D2947F027E007D007C00120510C219
:0205340094220F
:10047200C2957F057E007D007C001205103094122B
:10048200900013E0C394FA748094805005E004F065
:1004920080EBD2957F027E007D007C00120510C2A7
:0104A20095C4
:0104A3002236
:10043E00C2957F027E007D007C00120510C2947F63
:10044E00027E007D007C00120510D2957F027E0098
:10045E007D007C00120510D2947F027E007D007C10
:04046E000002051073
:0603EC00E09004A493FF61
:0503F200900013EFF084
:1003F700E4A3F0900014E0C394087480948050360E
:10040700C295900013E030E004D2948002C2947F3A
:10041700037E007D007C00120510900013E0C313DB
:10042700F0D2957F037E007D007C001205109000BE
:0604370014E004F080BD9A
:01043D00229C
:1002F60090000EEFF0A3EDF0A3EBF01205247F4083
:100306001203F212047212043E1205247FC0120375
:10031600F212047290000E1203EC12047290001294
:10032600E0700690000F1203EC900012E0FF6401EB
:100336007015EFC43333335480FF90000FE0900400
:10034600A4934FFF1203F2900012E06402700C9027
:10035600000FE09004BA93FF1203F21204729000A9
:10036600101203EC1204729000111203EC120472C4
:1003760012043E1205247F891203F212047202044B
:010386003E38
:04038700AB07AA0610
:10038B007C037DE81201C8900017EFF07C007D64C0
:10039B00AF03AE021201C87C007D0A1201C89000A7
:1003AB0016EDF07C007D0AAF03AE021201C87C0093
:1003BB007D0A1201C8900015EDF0AE02AF037C0070
:1003CB007D0A1201C8AE05900017E0FF900016E001
:1003DB00FD900015E0FB900011EEF0E4A3F002029B
:0103EB00F61B
:10051000D3EF9400EE9400400A000000EF1F70F04B
:030520001E80ED4D
:0105230022B5
:1004E000D3EF9400EE940040120000007D0B7CBE20
:0B04F000DCFEDDFCEF1F70E81E80E565
:0104FB0022DE
:10000300EC4D6011E8497017ED33EC3304600DE4F7
:10001300FCFFFEFD22E933E8330470F80201B3125A
:10002300017E58046009E4CC24815006285009025B
:1000330001BD2840030201BAC0E0EB4A7044B98015
:1000430006D0E0FB0201A9EF4E701CBD8008EBFF58
:10005300EAFEE9FD80EBE98DF0A4FEE5F00200EC99
:10006300E9CDF9EAFEEBFFEF89F0A4FCE5F0CE89D8
:10007300F0A42EFFE435F0CD89F0A42DFEE435F095
:100083008067EF4E7005BD80D780C3EF8BF0A4ACC3
:10009300F0EE8BF0A42CFCE435F0F8EF8AF0A42CFE
:1000A300E5F038FCE433CB8DF0A42CFCE5F03BF811
:1000B300EE8AF0A42CFCE5F038F8E433CF89F0A401
:1000C3002CFCE5F038CF3400CE89F0A42FFFE5F007
:1000D3003EFEE433C98DF0A42EFEE5F039CD8AF05F
:1000E300A42FFFE5F03EFEE43DFD33D0E0FB5007D7
:1000F3000BBB000F0201BDEC2CFCEF33FFEE33FE14
:06010300ED33FD02019541
:1001090075F020800E75F010800575F0087D007E71
:10011900007F003392D530D50312021DEC33401015
:10012900EF33FFEE33FEED33FDEC33FCD5F0ED227A
:0E013900E5F0247EA2D513CC92E7CDCEFF22B6
:10014700EDD2E7CD33EC3392D524814006E4FFFEB0
:10015700FDFC22FCE4CFCECDCC24E0501174FF800F
:10016700EDC3CC13CCCD13CDCE13CECF13CF0470AC
:07017700F030D5DE02021D8D
:10017E00E9D2E7C933E833F892D5EDD2E7CD33ECC7
:07018E0033FC5002B2D52240
:10019500EC30E7100FBF000C0EBE00080DBD0004CB
:1001A5000BEB6014A2D5EB13FCED92E7FD2274FF77
:1001B500FCFDFEFF22E480F8A2D574FF13FC7D80D0
:0301C500E480EFE4
:1001C800BC000BBE0029EF8DF084FFADF022E4CC1B
:1001D800F875F008EF2FFFEE33FEEC33FCEE9DECE4
:1001E800984005FCEE9DFE0FD5F0E9E4CEFD22ED2A
:1001F800F8F5F0EE8420D21CFEADF075F008EF2F74
:10020800FFED33FD4007985006D5F0F222C398FD64
:050218000FD5F0EA2201
:0E021D00C3E49FFFE49EFEE49DFDE49CFC22F2
:00000001FF
