:03000000020D8668
:0C0D8600787FE4F6D8FD758107020DCDE2
:101128003A00436F756E74205365743A0054494D04
:07113800455F47455421000B
:08117B00410043004100420065
:1010B3003090032091177F0F7E007D007C0012107B
:1010C300F12090037F01222091037F02227F0022DF
:100AF00090001CE0FFE4FCFDFE90000612079190C0
:100B0000000A7402F07D057F01120F7C7BFF7A11D1
:100B100079287D077F0112102690001DE0FFE4FC7C
:100B2000FDFE90000612079190000A7402F07D0805
:100B30007F01120F7C7BFF7A1179287D0A7F0112D9
:100B4000102690001EE0FFE4FCFDFE900006120758
:100B50009190000A7402F07D0B7F01120F7C7BFFE5
:100B60007A11792A7D047F02121026900042E0FF5C
:100B7000E4FCFDFE90000612079190000A7402F05A
:100B80007D067F03120F7C7BFF7A1179287D087F19
:100B900003121026900043E0FFE4FCFDFE900006E7
:100BA00012079190000A7402F07D097F03020F7C06
:0511C300C282C283227C
:0511C800D282D2832257
:1007CE00E4900000F012113F1208F712110DE490A0
:1007DE00001CF0A3F0A3F01211531210B3900003FB
:1007EE00EFF0BF012C900043E004F07F647E007DAB
:1007FE00007C001210F1900043E0C3943C400D9039
:10080E000042E004F0A3E024C4F080EAE49000008B
:10081E00F0900003E0B40226900043E0C3943C4005
:10082E000D900042E004F0A3E024C4F080EAE490CE
:10083E00001DF0A3F01211539000007401F090000F
:10084E0000E0640160030208E5120CF7120AF09052
:10085E000042E0FF90001DE0C39F407B900043E00C
:10086E00FF90001EE09F406F7BFF7A1179357D056A
:10087E007F04121026E4900001F0E4900002F012C2
:10088E0011C37FC87E007D007C001210F11211C8CA
:10089E007FC87E007D007C001210F1900002E00403
:1008AE00F0E0C3940240D87F207E037D007C0012CE
:1008BE0010F1900001E004F0E0C3940340BC12116B
:1008CE000DE4900000F090001DF0A3F0900043F0B6
:1008DE00900042F0121153900000E060030207E80E
:0908EE00120CF7120AF00207E8EF
:1000030000000000000000000000000000000000ED
:10001300000000F800000000000000333000000082
:1000230000100C06100C0600000000000000000089
:1000330040C07840C0784000043F04043F040400FB
:10004300007088FC08300000001820FF211E00000B
:10005300F008F000E018000000211C031E211E0020
:1000630000F00888700000001E21232419272110A6
:1000730010160E0000000000000000000000000049
:10008300000000E0180402000000000718204000F0
:1000930000020418E00000000040201807000000E0
:1000A300404080F0804040000202010F0102020044
:1000B300000000F0000000000101011F0101010028
:1000C300000000000000000080B07000000000008D
:1000D3000000000000000000000101010101010116
:1000E30000000000000000000030300000000000AD
:1000F3000000000080601804006018060100000082
:1001030000E010080810E000000F102020100F007E
:10011300001010F8000000000020203F2020000005
:10012300007008080888700000302824222130005D
:1001330000300888884830000018202020110E0065
:100143000000C02010F8000000070424243F24000E
:1001530000F80888880808000019212020110E00E3
:1001630000E0108888180000000F112020110E00F5
:1001730000380808C83808000000003F00000000ED
:100183000070880808887000001C222121221C00AE
:1001930000E010080810E0000000312222110F00D7
:1001A300000000C0C000000000000030300000006C
:1001B30000000080000000000000806000000000DC
:1001C30000008040201008000001020408102000F5
:1001D3004040404040404000040404040404040040
:1001E30000081020408000000020100804020100D5
:1001F300007048080808F0000000003036010000D5
:10020300C030C828E810E0000718272423140B0087
:100213000000C038E0000000203C23020227382001
:1002230008F8888888700000203F202020110E00E5
:10023300C0300808080838000718202020100800DC
:1002430008F808080810E000203F202020100F00C5
:1002530008F88888E8081000203F20202320180091
:1002630008F88888E8081000203F200003000000F9
:10027300C03008080838000007182020221E02009A
:1002830008F808000008F808203F210101213F2059
:10029300000808F8080800000020203F2020000084
:1002A30000000808F8080800C08080807F00000074
:1002B30008F888C028180800203F200126382000AD
:1002C30008F8080000000000203F20202020300014
:1002D30008F8F800F8F80800203F003F003F20002E
:1002E30008F830C00008F808203F200007183F0036
:1002F300E01008080810E0000F10202020100F0065
:1003030008F808080808F000203F21010101000057
:10031300E01008080810E0000F18242438504F009C
:1003230008F8888888887000203F2000030C30205C
:1003330000708808080838000038202121221C009A
:10034300180808F8080818000000203F20000000E3
:1003530008F808000008F808001F202020201F00CC
:100363000878880000C83808000007380E0100002C
:10037300F80800F80008F800033C0700073C0300F6
:10038300081868808068180820302C03032C30205C
:100393000838C800C83808000000203F20000000CB
:1003A30010080808C8380800203826212020180023
:1003B300000000FE020202000000007F40404000F7
:1003C300000C30C000000000000000010638C0002F
:1003D30000020202FE000000004040407F000000D7
:1003E30000000402020204000000000000000000FC
:1003F30000000000000000008080808080808080FA
:1004030000020204000000000000000000000000E1
:1004130000008080808000000019242222223F20D7
:1004230008F8008080000000003F112020110E001A
:100433000000008080800000000E112020201100A9
:10044300000000808088F800000E112020103F205B
:100453000000808080800000001F222222221300DF
:10046300008080F0888888180020203F202000002A
:100473000000808080808000006B949494936000DF
:1004830008F8008080800000203F210000203F20EA
:1004930000809898000000000020203F20200000EA
:1004A300000000809898000000C08080807F0000DA
:1004B30008F8000080808000203F24022D302000B7
:1004C300000808F8000000000020203F2020000062
:1004D3008080808080808000203F20003F20003F7C
:1004E3008080008080800000203F210000203F208A
:1004F3000000808080800000001F202020201F003B
:10050300808000808000000080FFA12020110E0069
:100513000000008080808000000E112020A0FF805A
:10052300808080008080800020203F212000010007
:10053300000080808080800000332424242419005C
:10054300008080E0808000000000001F2020000069
:100553008080000000808000001F202020103F20AA
:10056300808080000080808000010E30080601003A
:1005730080800080008080800F300C030C300F00DF
:1005830000808000808080000020312E0E3120000A
:10059300808080000080808080818E70180601003A
:1005A30000808080808080000021302C2221300058
:1005B30000000000807C020200000000003F404079
:1005C30000000000FF00000000000000FF0000002A
:1005D3000002027C800000000040403F0000000059
:1005E30000060101020204040000000000000000F4
:0911AC00D280D281C281C28122ED
:0711B500C281D280D2812229
:0B118E00121071121199AF04121071C1
:05119900D280C280229B
:07106A00AC071211AC7F7806
:10107100C280E4FEAD07ED5480B48004D2818002C9
:0F108100C281EF25E0FFD280C2800EEEB408E5F9
:01109000223D
:0E119E0012106A121199E4FF12118E0211B59F
:1010D3003EF583E5822DF582E43583F583E493FFC2
:0E10E30012106A1211997F4012118E0211B57F
:061091001475F008A4FD37
:10109700AB05EF44B0FF12119EEB54F0C4540F445C
:0C10A70010FF12119EEB540FFF02119E6F
:10110D00E4FAAF02E4FD121097E4FBE4FF1210E3E2
:0A111D000BEBB480F60AEAB408E810
:0111270022A5
:040C5F00FEE02EFD88
:0D0C630090000EEBF090000CEFF0A3EDF010
:100C7000EF1425E0FFED121091E490000FF09000CA
:100C80000FE0FDC39408502990000EE0FF3395E07B
:100C9000FEEFC4F8540FC868FFEEC454F048FE7469
:100CA000032FF58274FE1210D390000FE004F08041
:100CB000CD90000CE025E014FFA3E0121091E49029
:100CC000000FF090000FE0FDC39408502990000E33
:100CD000E0FF3395E0FEEFC4F8540FC868FFEEC4A0
:100CE00054F048FE740B2FF58274FE1210D390005E
:060CF0000FE004F080CDCE
:010CF60022DB
:10102600900004EFF0A3EDF0A3EBF0A3EAF0A3E940
:01103600F0C9
:10103700E4A3F0900006E0FBA3E0FAA3E0F9A3E045
:10104700F5827583001205F3FB6017900004E0FF3B
:10105700900009E0900005120C5F900009E004F091
:0210670080D136
:011069002264
:100E9300EEFDC3EF9DFFE49400CF24FFCF34FFFEAC
:100EA300E4FCFD9000101207917F0A7E007D007C18
:010EB300003E
:060EB40090000C120791F2
:100EBA0090001412079D0000000190001074FF12A8
:100ECA00075EEC4D4E4F6027900014E0FCA3E0FD56
:100EDA00A3E0FEA3E0FF90000CE0F8A3E0F9A3E092
:100EEA00FAA3E0FB12062090001412079180CB901F
:0D0EFA000014E0FCA3E0FDA3E0FEA3E0FF78
:010F070022C7
:080F7C00900004EFF0A3EDF07A
:100F8400E490000BF090000AE0FFA3E0FEC39F5042
:100F940040120E93A804A905AA06AB07900006E028
:100FA400FCA3E0FDA3E0FEA3E0FF1206ABE47B0A92
:100FB400FAF9F81206ABEB2430FB900004E0FF9042
:100FC400000BE0900005120C5F90000BE004F08031
:010FD400B468
:010FD50022F9
:080BB000900026EFF0A3EDF028
:100BB800E4FFFEFDFCA3E0F8A3E0F9A3E0FAA3E05C
:100BC800FBC312074B900026E0FFA3E0FD40157B16
:100BD8002B120C63900028E0FCA3E0FDA3E0FEA329
:100BE800E0FF80167B2D120C63900028E0FCA3E048
:100BF800FDA3E0FEA3E0FF12073D90002E1207912F
:100C0800E490002DF090002CE0FFA3E0FEC39F507D
:100C180045120E93A804A905AA06AB0790002EE07A
:100C2800FCA3E0FDA3E0FEA3E0FF1206ABE47B0A11
:100C3800FAF9F81206ABEB2430FB900026E0FF909F
:100C4800002DE0FE900027E02E04FD120C639000BA
:060C58002DE004F080AF66
:010C5E002273
:080E1200900032EFF0A3EDF0B7
:100E1A00E4900039F0900038E0F9A3E0FFC399505C
:100E2A0067E9C39FFFE49400CF24FFCF34FFFEE4B9
:100E3A00FCFD9000101207917F10120EAEA804A9B3
:100E4A0005AA06AB07900034E0FCA3E0FDA3E0FE90
:100E5A00A3E0FF1206ABEF540FFFAE07EEC3940AEE
:100E6A00900032E0FF900039E0FD900033E0500737
:100E7A002DFDEE243080052DFDEE2437FB120C6388
:080E8A00900039E004F0808DB6
:010E9200223D
:080F080090003AEFF0A3EDF0B8
:100F1000E4900041F0900040E0FFA3E0FEC39F504A
:100F20005AEEFDC3EF9DFFE49400CF24FFCF34FFC2
:100F3000FEE4FCFD9000101207917F02120EAEA895
:100F400004A905AA06AB0790003CE0FCA3E0FDA3C2
:100F5000E0FEA3E0FF1206ABEF5401FFEF2430FBED
:100F600090003AE0FF900041E0FE90003BE02EFD53
:0B0F7000120C63900041E004F0809A36
:010F7B002253
:1008F70090000412079D00000000E47FE87E03FDDE
:10090700FC900004E0F8A3E0F9A3E0FAA3E0FBC33E
:1009170012074B506890000812079D00000000E482
:100927007FE87E03FDFC900008E0F8A3E0F9A3E070
:10093700FAA3E0FBC312074B5021900008E0FCA389
:10094700E0FDA3E0FEA3E02401FFE43EFEE43DFD5D
:10095700E43CFC90000812079180C4900004E0FC7E
:10096700A3E0FDA3E0FEA3E02401FFE43EFEE43D97
:10097700FDE43CFC9000041207910209017FAE12CE
:10098700119EE4FF12119E7F1012119E7F401211DB
:100997009E7FB012119E7F8112119E7FFF12119EC2
:1009A7007FA112119E7FA612119E7FA812119E7F12
:1009B7003F12119E7FC812119E7FD312119EE4FF32
:1009C70012119E7FD512119E7F8012119E7FD81221
:1009D700119E7F0512119E7FD912119E7FF1121170
:1009E7009E7FDA12119E7F1212119E7FDB12119EDB
:1009F7007F3012119E7F8D12119E7F1412119E7FE0
:070A0700AF12119E02110D58
:0711BC008C888A8684828082
:0A11830047001F18010101000000E1
:100A0E00E0FF75F00A84C454F0FEEF75F00A84EE30
:100A1E0025F0FD7F8C120AB9A3E0FF75F00A84C49D
:100A2E0054F0FEEF75F00A84EE25F0FD7F88120A71
:100A3E00B9A3E0FF75F00A84C454F0FEEF75F00A16
:100A4E0084EE25F0FD7F8A120AB9A3E0FF75F00A45
:100A5E0084C454F0FEEF75F00A84EE25F0FD7F8617
:100A6E00120AB9A3E0FF75F00A84C454F0FEEF75C4
:100A7E00F00A84EE25F0FD7F84120AB9A3E0FF751B
:100A8E00F00A84C454F0FEEF75F00A84EE25F0FDF2
:100A9E007F82120AB9A3E0FF75F00A84C454F0FEF7
:0B0AAE00EF75F00A84EE25F0FD7F805C
:100AB900C28700C28500D28700E4FEEF139286EF59
:100AC900C313FFD28500C285000EEEB408EDE4FE23
:100AD900ED139286EDC313FDD28500C285000EEE9B
:060AE900B408EDC2870015
:010AEF0022E4
:100FD600EF4401FFC28700C28500D28700E4FDEF1F
:100FE600139286EFC313FFD28500C285000DEDB4C0
:100FF60008ED00E4FDA286E433FFC43333335480A6
:10100600FCEEC3134CFED28500C285000DEDB4087C
:0F101600E4C28700D28500C28600D28600AF06F2
:0110250022A8
:10113F00E4FD7F8E120AB990001F120A0E7D017F07
:04114F008E020AB949
:10115300E4FD7F8E120AB9900018120A0E7D017FFA
:041163008E020AB935
:100CF7007F8C120FD6EFC4540F75F00AA4FEEF5481
:100D07000F2E900018F07F88120FD6EFC4540F757E
:100D1700F00AA4FEEF540F2EA3F07F8A120FD6EF2E
:100D2700C4540F75F00AA4FEEF540F2EA3F07F866C
:100D3700120FD6EFC4540F75F00AA4FEEF540F2E0E
:100D4700A3F07F84120FD6EFC4540F75F00AA4FEE8
:100D5700EF540F2EA3F07F82120FD6EFC4540F75F6
:100D6700F00AA4FEEF540F2EA3F07F80120FD6EFE8
:0E0D7700C4540F75F00AA4FEEF540F2EA3F023
:010D8500224B
:10116700D3EF9400EE9400400A000000EF1F70F0E8
:031177001E80EDEA
:01117A002252
:1010F100D3EF9400EE940040120000007D0B7CBE03
:0B110100DCFEDDFCEF1F70E81E80E547
:01110C0022C0
:100D92000207CEE493A3F8E493A34003F68001F2A2
:100DA20008DFF48029E493A3F85407240CC8C33362
:100DB200C4540F4420C8834004F456800146F6DF31
:100DC200E4800B010204081020408090117BE47E35
:100DD200019360BCA3FF543F30E509541FFEE49326
:100DE200A360010ECF54C025E060A840B8E493A3ED
:100DF200FAE493A3F8E493A3C8C582C8CAC583CA18
:100E0200F0A3C8C582C8CAC583CADFE9DEE780BECF
:01118D000061
:1005F300BB010CE58229F582E5833AF583E02250BD
:1006030006E92582F8E622BBFE06E92582F8E22206
:0D061300E58229F582E5833AF583E4932220
:10062000E88FF0A4CC8BF0A42CFCE98EF0A42CFC79
:100630008AF0EDA42CFCEA8EF0A4CDA8F08BF0A4F7
:100640002DCC3825F0FDE98FF0A42CCD35F0FCEB56
:100650008EF0A4FEA9F0EB8FF0A4CFC5F02ECD391B
:0F066000FEE43CFCEAA42DCE35F0FDE43CFC2288
:10066F0075F008758200EF2FFFEE33FECD33CDCC42
:10067F0033CCC58233C5829BED9AEC99E5829840C5
:10068F000CF582EE9BFEED9AFDEC99FC0FD5F0D6A2
:10069F00E4CEFBE4CDFAE4CCF9A88222B800C1B9CC
:1006AF000059BA002DEC8BF084CFCECDFCE5F0CB0A
:1006BF00F97818EF2FFFEE33FEED33FDEC33FCEB43
:1006CF0033FB10D703994004EB99FB0FD8E5E4F9FE
:1006DF00FA227818EF2FFFEE33FEED33FDEC33FCEB
:1006EF00C933C910D7059BE99A4007EC9BFCE99ADF
:1006FF00F90FD8E0E4C9FAE4CCFB2275F010EF2F24
:10070F00FFEE33FEED33FDCC33CCC833C810D70723
:10071F009BEC9AE899400AED9BFDEC9AFCE899F85E
:0E072F000FD5F0DAE4CDFBE4CCFAE4C8F922F1
:0E073D00C3E49FFFE49EFEE49DFDE49CFC22CD
:10074B00EB9FF5F0EA9E42F0E99D42F0E89C45F004
:01075B00227B
:10075C007401FF3395E0FEFDFCA3A3A3E0CF2FF0C3
:10076C00E582158270021583E0CE3EF0E58215829B
:10077C0070021583E0CD3DF0E58215827002158381
:05078C00E0CC3CF0226E
:0C079100ECF0A3EDF0A3EEF0A3EFF022DB
:10079D00A8828583F0D083D0821207B41207B412D9
:1007AD0007B41207B4E473E493A3C583C5F0C583FE
:1007BD00C8C582C8F0A3C583C5F0C583C8C582C8A6
:0107CD002209
:00000001FF
