:030000000213F3F5
:0C13F300787FE4F6D8FD75812002143AE2
:101A760090006874C8F0A374C2F0C290E4A3F0901A
:101A86000067F0758911758CFF758A9CD2AFD2A953
:011A9600222D
:101BF300E4F594121A76D28C121B91D281C28080A2
:011C0300FEE2
:03000B0002147F5D
:10147F00C0E0C083C082C0D075D000C006C0077561
:10148F008CFF758A9C20813990006AE004F0E0FFA0
:10149F007E00BE070FBFD00CE4F0900067E004F0B1
:1014AF00E05401F0900067E0FF7E00640170069049
:1014BF00006974BEF0EF4E700E90006974B4F08046
:1014CF000690006974C2F0900069E0FF900068E038
:1014DF00D39F4004D2808002C280900068E014F055
:1014EF00E0C3940174809480500374C8F0D007D087
:0A14FF0006D0D0D082D083D0E032B6
:101B9100759D0143972075BCC07F057E007D007C4B
:041BA10000021B0F14
:101AF30043BC08E5BC5410641070F8AFBDADBEEF35
:0B1B0300FEEDFF53BCEFE4F5BDF5BEA6
:011B0E0022B4
:10000E0000000000000000000000000000000000E2
:10001E00000000F800000000000000333000000077
:10002E0000100C06100C060000000000000000007E
:10003E0040C07840C0784000043F04043F040400F0
:10004E00007088FC08300000001820FF211E000000
:10005E00F008F000E018000000211C031E211E0015
:10006E0000F00888700000001E212324192721109B
:10007E0010160E000000000000000000000000003E
:10008E00000000E0180402000000000718204000E5
:10009E0000020418E00000000040201807000000D5
:1000AE00404080F0804040000202010F0102020039
:1000BE00000000F0000000000101011F010101001D
:1000CE00000000000000000080B070000000000082
:1000DE00000000000000000000010101010101010B
:1000EE0000000000000000000030300000000000A2
:1000FE000000000080601804006018060100000077
:10010E0000E010080810E000000F102020100F0073
:10011E00001010F8000000000020203F20200000FA
:10012E000070080808887000003028242221300052
:10013E0000300888884830000018202020110E005A
:10014E000000C02010F8000000070424243F240003
:10015E0000F80888880808000019212020110E00D8
:10016E0000E0108888180000000F112020110E00EA
:10017E0000380808C83808000000003F00000000E2
:10018E000070880808887000001C222121221C00A3
:10019E0000E010080810E0000000312222110F00CC
:1001AE00000000C0C0000000000000303000000061
:1001BE0000000080000000000000806000000000D1
:1001CE0000008040201008000001020408102000EA
:1001DE004040404040404000040404040404040035
:1001EE0000081020408000000020100804020100CA
:1001FE00007048080808F0000000003036010000CA
:10020E00C030C828E810E0000718272423140B007C
:10021E000000C038E0000000203C230202273820F6
:10022E0008F8888888700000203F202020110E00DA
:10023E00C0300808080838000718202020100800D1
:10024E0008F808080810E000203F202020100F00BA
:10025E0008F88888E8081000203F20202320180086
:10026E0008F88888E8081000203F200003000000EE
:10027E00C03008080838000007182020221E02008F
:10028E0008F808000008F808203F210101213F204E
:10029E00000808F8080800000020203F2020000079
:1002AE0000000808F8080800C08080807F00000069
:1002BE0008F888C028180800203F200126382000A2
:1002CE0008F8080000000000203F20202020300009
:1002DE0008F8F800F8F80800203F003F003F200023
:1002EE0008F830C00008F808203F200007183F002B
:1002FE00E01008080810E0000F10202020100F005A
:10030E0008F808080808F000203F2101010100004C
:10031E00E01008080810E0000F18242438504F0091
:10032E0008F8888888887000203F2000030C302051
:10033E0000708808080838000038202121221C008F
:10034E00180808F8080818000000203F20000000D8
:10035E0008F808000008F808001F202020201F00C1
:10036E000878880000C83808000007380E01000021
:10037E00F80800F80008F800033C0700073C0300EB
:10038E00081868808068180820302C03032C302051
:10039E000838C800C83808000000203F20000000C0
:1003AE0010080808C8380800203826212020180018
:1003BE00000000FE020202000000007F40404000EC
:1003CE00000C30C000000000000000010638C00024
:1003DE0000020202FE000000004040407F000000CC
:1003EE0000000402020204000000000000000000F1
:1003FE0000000000000000008080808080808080EF
:10040E0000020204000000000000000000000000D6
:10041E0000008080808000000019242222223F20CC
:10042E0008F8008080000000003F112020110E000F
:10043E000000008080800000000E1120202011009E
:10044E00000000808088F800000E112020103F2050
:10045E000000808080800000001F222222221300D4
:10046E00008080F0888888180020203F202000001F
:10047E000000808080808000006B949494936000D4
:10048E0008F8008080800000203F210000203F20DF
:10049E0000809898000000000020203F20200000DF
:1004AE00000000809898000000C08080807F0000CF
:1004BE0008F8000080808000203F24022D302000AC
:1004CE00000808F8000000000020203F2020000057
:1004DE008080808080808000203F20003F20003F71
:1004EE008080008080800000203F210000203F207F
:1004FE000000808080800000001F202020201F0030
:10050E00808000808000000080FFA12020110E005E
:10051E000000008080808000000E112020A0FF804F
:10052E00808080008080800020203F2120000100FC
:10053E000000808080808000003324242424190051
:10054E00008080E0808000000000001F202000005E
:10055E008080000000808000001F202020103F209F
:10056E00808080000080808000010E30080601002F
:10057E0080800080008080800F300C030C300F00D4
:10058E0000808000808080000020312E0E312000FF
:10059E00808080000080808080818E70180601002F
:1005AE0000808080808080000021302C222130004D
:1005BE0000000000807C020200000000003F40406E
:1005CE0000000000FF00000000000000FF0000001F
:1005DE000002027C800000000040403F000000004E
:1005EE0000060101020204040000000000000000E9
:091C4400D280D281C281C281224A
:07000300C281D280D28122EC
:0B1C26001219D9121C31AF041219D999
:051C3100D280C28022F8
:0719D200AC07121C447F78F2
:1019D900C280E4FEEEC3940874809480501AAD0767
:1019E900ED548064807004D2818002C281EF25E0C9
:0819F900FFD280C2800E80DCE9
:011A010022C2
:0E1C36001219D2121C31E4FF121C2602000308
:101AB7003EF583E5822DF582E43583F583E493FFD4
:0E1AC7001219D2121C317F40121C260200039D
:061A54001475F008A4FD6A
:101A5A00AB05EF44B0FF121C36EB54F0C4540F44EC
:0C1A6A0010FF121C36EB540FFF021C365C
:101A0200E4FAEAC3940874809480501EAF02E4FDA5
:101A1200121A5AE4FBEBC39480748094805008E459
:0A1A2200FF121AC70B80EE0A80D8ED
:011A2C002297
:0411A300FEE02EFD3F
:0D11A70090006DEBF090006BEFF0A3EDF009
:1011B400EF1425E0FFED121A54E490006EF0900055
:1011C4006EE0FDC3940874809480502990006DE013
:1011D400FF3395E0FEEFC4F8540FC868FFEEC45423
:1011E400F048FE740E2FF58274FE121AB790006E4A
:1011F400E004F080C990006BE025E014FFA3E01246
:101204001A54E490006EF090006EE0FDC3940874EC
:10121400809480502990006DE0FF3395E0FEEFC488
:10122400F8540FC868FFEEC454F048FE74162FF546
:0E1234008274FE121AB790006EE004F080C9BA
:011242002289
:10183A0090005CEFF0A3EDF0A3EBF0A3EAF0A3E9CC
:01184A00F0AD
:10184B00E4A3F090005EE0FBA3E0FAA3E0F9A3E0D1
:10185B00F5827583001208BBFB601790005CE0FFFC
:10186B00900061E090005D1211A3900061E004F024
:02187B0080D11A
:01187D002248
:10159000EEFDC3EF9DFFE49400CF24FFCF34FFFEA8
:1015A0003395E0FDFC900021120AC07F0A7E007D89
:0315B000007C00BC
:0615B30090001D120AC0A9
:1015B900900025120ACC0000000190002174FF124E
:1015C9000A8DEC4D4E4F6027900025E0FCA3E0FD0D
:1015D900A3E0FEA3E0FF90001DE0F8A3E0F9A3E07B
:1015E900FAA3E0FB12094F900025120AC080CB90A4
:0D15F9000025E0FCA3E0FDA3E0FEA3E0FF61
:0116060022C1
:08174200900035EFF0A3EDF07B
:10174A00E490003CF090003BE0FFA3E0FEC39F5012
:10175A0040121590A804A905AA06AB07900037E025
:10176A00FCA3E0FDA3E0FEA3E0FF1209DAE47B0A92
:10177A00FAF9F81209DAEB2430FB900035E0FF9011
:10178A00003CE09000361211A390003CE004F08087
:01179A00B49A
:01179B00222B
:08104F00900029EFF0A3EDF081
:10105700E4FFFEFDFCA3E0F8A3E0F9A3E0FAA3E0B8
:10106700FBC3120A7A900029E0FFA3E0FD40157B3D
:101077002B1211A790002BE0FCA3E0FDA3E0FEA339
:10108700E0FF80167B2D1211A790002BE0FCA3E058
:10109700FDA3E0FEA3E0FF120A6C900031120AC024
:1010A700E4900030F090002FE0FFA3E0FEC39F50D4
:1010B70045121590A804A905AA06AB07900031E0D0
:1010C700FCA3E0FDA3E0FEA3E0FF1209DAE47B0A3C
:1010D700FAF9F81209DAEB2430FB900029E0FF90C7
:1010E7000030E0FE90002AE02E04FD1211A79000C8
:0610F70030E004F080AFC0
:0110FD0022D0
:0815090090003DEFF0A3EDF0AE
:10151100E4900044F0900043E0F9A3E0FFC3995048
:101521006DE9C39FFFE49400CF24FFCF34FFFE3366
:1015310095E0FDFC900021120AC07F101215ADA8A4
:1015410004A905AA06AB0790003FE0FCA3E0FDA3B8
:10155100E0FEA3E0FF1209DAEF540FFFAE07EEC37E
:10156100940A7480948090003DE0FF900044E0FD77
:1015710090003EE050072DFDEE243080052DFDEE5C
:0E1581002437FB1211A7900044E004F080878D
:01158F002239
:08160700900045EFF0A3EDF0A7
:10160F00E490004CF090004BE0FFA3E0FEC39F502E
:10161F005CEEFDC3EF9DFFE49400CF24FFCF34FFBA
:10162F00FE3395E0FDFC900021120AC07F021215D7
:10163F00ADA804A905AA06AB07900047E0FCA3E0FC
:10164F00FDA3E0FEA3E0FF1209DAEF5401FFEF2440
:10165F0030FB900045E0FF90004CE0FE900046E02C
:0D166F002EFD1211A790004CE004F08098B1
:01167C00224B
:100E460090004D120ACC00000000E47FE87E03FD0E
:100E5600FC90004DE0F8A3E0F9A3E0FAA3E0FBC3A1
:100E6600120A7A5068900051120ACC00000000E481
:100E76007FE87E03FDFC900051E0F8A3E0F9A3E0D3
:100E8600FAA3E0FBC3120A7A5021900051E0FCA3BA
:100E9600E0FDA3E0FEA3E02401FFE43EFEE43DFD09
:100EA600E43CFC900051120AC080C490004DE0FC66
:100EB600A3E0FDA3E0FEA3E02401FFE43EFEE43D43
:100EC600FDE43CFC90004D120AC0020E507FAE12AB
:100ED6001C36E4FF121C367F10121C367F40121C93
:100EE600367FB0121C367F81121C367FFF121C36ED
:100EF6007FA1121C367FA6121C367FA8121C367FD5
:100F06003F121C367FC8121C367FD3121C36E4FFF4
:100F1600121C367FD5121C367F80121C367FD812E3
:100F26001C367F05121C367FD9121C367FF1121C27
:100F3600367FDA121C367F12121C367FDB121C3605
:100F46007F30121C367F8D121C367F14121C367FA2
:070F5600AF121C36021A0263
:101A97003F065B4F666D7D077F6F777C395E797197
:101AA700763854733E00BF86DBCFE6EDFD87FFEF48
:101BE100D295D2947F027E007D007C00121BCDC273
:021BF10094223C
:1019A000C2957F057E007D007C00121BCD30941215
:1019B00090007EE0C394FA748094805005E004F0B7
:1019C00080EBD2957F027E007D007C00121BCDC291
:0119D0009581
:0119D10022F3
:10196C00C2957F027E007D007C00121BCDC2947F4D
:10197C00027E007D007C00121BCDD2957F027E0082
:10198C007D007C00121BCDD2947F027E007D007CFA
:04199C0000021BCD5D
:06179C00E0901A9793FF94
:0517A200900072EFF061
:1017A700E4A3F0900073E0C39408748094805036EB
:1017B700C295900072E030E004D2948002C2947F18
:1017C700037E007D007C00121BCD900072E0C313E6
:1017D700F0D2957F037E007D007C00121BCD900028
:0617E70073E004F080BD78
:0117ED0022D9
:10124300900062EFF0A3EDF0A3EBF0121BE17F40FF
:101253001217A21219A012196C121BE17FC01217E8
:10126300A21219A090006212179C1219A090006696
:10127300E0700690006312179C900066E0FF640123
:101283007015EFC43333335480FF900063E0901A3A
:1012930097934FFF1217A2900066E06402700C90C0
:1012A3000063E0901AAD93FF1217A21219A09000E9
:1012B3006412179C1219A090006512179C1219A0B2
:1012C30012196C121BE17F891217A21219A00219BD
:0112D3006CAE
:04167D00AB07AA0607
:101681007C037DE81208FA900071EFF07C007D6424
:10169100AF03AE021208FA7C007D0A1208FA90002C
:1016A10070EDF07C007D0AAF03AE021208FA7C00F7
:1016B1007D0A1208FA90006FEDF0AE02AF037C00D4
:1016C1007D0A1208FAAE05900071E0FF900070E00B
:1016D100FD90006FE0FB900065EEF0E4A3F00212D4
:0116E10043C5
:101A2D00D2937F0A7E007D007C00121BCDC2937F76
:101A3D00147E007D007C00121B0FD2937F207E0050
:071A4D007D007C00021BCDAF
:1017EE00E4900074F0900074E0C3940874809480C8
:1017FE0050343093FD7F207E007D007C00121BCD87
:10180E00E4900075F030930204F02093FD900003F5
:10181E00E025E0FFF0900075E04F900003F090009F
:0B182E0074E004F080BF900003E0FFB6
:01183900228C
:1012D400121A2DD2937F017E007D007C00121BCD5B
:1012E40020937C3093FD2093FD1217EE90000AEFBB
:1012F400F01217EE90000BEFF01217EE90000EEFC5
:10130400F01217EE900000EFF01217EE900001EFCC
:10131400F0C2937F387E007D007C00121BCDD293F7
:1013240090000BE0FF90000AE0FE2FFD90000EE01D
:10133400FC2DFD900000E0FB2DFD900008F09000D6
:1013440001E0B5051AA3EEF0900007EFF090000558
:10135400ECF090000CEBF0900008E0900001F0221B
:100AFD00E4900076F0A3F0FBEBC39408748094802F
:100B0D004003020BC6900002E0F954017C00FDEB9E
:100B1D00B408004003020BBB900B2CF8282873027D
:100B2D000BAF020B9A020B8B020B7D020B6E020BAD
:100B3D0060020B52020B44AE04ED7807C333CE3383
:100B4D00CED8F98045AE04ED7806C333CE33CED87A
:100B5D00F98037AE04ED7805C333CE33CED8F980A6
:100B6D0029EDC4F8540FC868FFECC454F048802335
:100B7D00AE04ED7803C333CE33CED8F9800CAE047A
:100B8D00ED7802C333CE33CED8F9FF8007ED25E0E3
:100B9D00FFEC33FE900077E02FF0900076E03EF012
:100BAD00800C900077E02DF0900076E03CF0E9C3EA
:100BBD0013900002F00B020B05900076A3E090005D
:100BCD0004F0E4900076F0A3F0FBEBC3940874807E
:100BDD0094804003020C98900005E0F954017C00CC
:100BED00FDEBB408004003020C8D900BFEF8282895
:100BFD0073020C81020C6C020C5D020C4F020C4056
:100C0D00020C32020C24020C16AE04ED7807C3332D
:100C1D00CE33CED8F98045AE04ED7806C333CE334E
:100C2D00CED8F98037AE04ED7805C333CE33CED8A8
:100C3D00F98029EDC4F8540FC868FFECC454F0488E
:100C4D008023AE04ED7803C333CE33CED8F9800CB8
:100C5D00AE04ED7802C333CE33CED8F9FF8007ED65
:100C6D0025E0FFEC33FE900077E02FF0900076E06A
:100C7D003EF0800C900077E02DF0900076E03CF097
:100C8D00E9C313900005F00B020BD7900076A3E09B
:100C9D00900006F0E4900076F0A3F0FBEBC394080F
:100CAD00748094804003020D6A90000CE0F95401A9
:100CBD007C00FDEBB408004003020D5F900CD0F8F2
:100CCD00282873020D53020D3E020D2F020D210235
:100CDD000D12020D04020CF6020CE8AE04ED7807BD
:100CED00C333CE33CED8F98045AE04ED7806C33389
:100CFD00CE33CED8F98037AE04ED7805C333CE337D
:100D0D00CED8F98029EDC4F8540FC868FFECC4544F
:100D1D00F0488023AE04ED7803C333CE33CED8F93B
:100D2D00800CAE04ED7802C333CE33CED8F9FF80FC
:100D3D0007ED25E0FFEC33FE900077E02FF09000FB
:100D4D0076E03EF0800C900077E02DF0900076E09C
:100D5D003CF0E9C31390000CF00B020CA990007647
:100D6D00A3E090000DF0E4900076F0A3F0FBEBC350
:100D7D009408748094804003020E3C900007E0F9C3
:100D8D0054017C00FDEBB408004003020E31900DC0
:100D9D00A2F8282873020E25020E10020E01020D74
:100DAD00F3020DE4020DD6020DC8020DBAAE04ED2C
:100DBD007807C333CE33CED8F98045AE04ED78062F
:100DCD00C333CE33CED8F98037AE04ED7805C333B7
:100DDD00CE33CED8F98029EDC4F8540FC868FFEC96
:100DED00C454F0488023AE04ED7803C333CE33CE24
:100DFD00D8F9800CAE04ED7802C333CE33CED8F9DA
:100E0D00FF8007ED25E0FFEC33FE900077E02FF03B
:100E1D00900076E03EF0800C900077E02DF0900091
:100E2D0076E03CF0E9C313900007F00B020D7B90C8
:080E3D000076A3E0900009F02B
:010E4500228A
:101B2B0075D904E4F5D875DA42F5F9F5E9F5FAF566
:0B1B3B00EAF5F275A2CCD2DE021C0419
:101C0400438E805389F0758AA0758CCFC28DD28C97
:011C140022AD
:101C1500EF75F0B48475F019A4FFC374F99FF5FA54
:011C2500229C
:071C4D008C888A86848280E6
:0A1AD500470016180101010000008F
:100F5D00E0FF75F00A84C454F0FEEF75F00A84EEDC
:100F6D0025F0FD7F8C121008A3E0FF75F00A84C4F4
:100F7D0054F0FEEF75F00A84EE25F0FD7F88121017
:100F8D0008A3E0FF75F00A84C454F0FEEF75F00A73
:100F9D0084EE25F0FD7F8A121008A3E0FF75F00A9C
:100FAD0084C454F0FEEF75F00A84EE25F0FD7F86C3
:100FBD00121008A3E0FF75F00A84C454F0FEEF751B
:100FCD00F00A84EE25F0FD7F84121008A3E0FF7572
:100FDD00F00A84C454F0FEEF75F00A84EE25F0FD9E
:100FED007F82121008A3E0FF75F00A84C454F0FE4E
:0B0FFD00EF75F00A84EE25F0FD7F8008
:10100800C28700C28500D28700E4FEEEC39408744C
:101018008094805011EF139286EFC313FFD285009E
:10102800C285000E80E5E4FEEEC3940874809480C7
:101038005011ED139286EDC313FDD28500C28500D1
:061048000E80E5C28700E6
:01104E00227F
:1016E200EF4401FFC28700C28500D28700E4FDED0E
:1016F200C39408748094805011EF139286EFC31341
:10170200FFD28500C285000D80E500E4FDEDC394A3
:101712000874809480501AA286E433FFC4333333B2
:101722005480FCEEC3134CFED28500C285000D80AE
:0F173200DCC28700D28500C28600D28600AF06D7
:011741002285
:101BA500E4FD7F8E121008900016120F5D7D017FF7
:041BB5008E02100884
:101BB900E4FD7F8E12100890000F120F5D7D017FEA
:041BC9008E02100870
:101364007F8C1216E2EFC4540F75F00AA4FEEF54FA
:101374000F2E90000FF07F881216E2EFC4540F7501
:10138400F00AA4FEEF540F2EA3F07F8A1216E2EFA8
:10139400C4540F75F00AA4FEEF540F2EA3F07F86F9
:1013A4001216E2EFC4540F75F00AA4FEEF540F2E88
:1013B400A3F07F841216E2EFC4540F75F00AA4FE62
:1013C400EF540F2EA3F07F821216E2EFC4540F7570
:1013D400F00AA4FEEF540F2EA3F07F801216E2EF62
:0E13E400C4540F75F00AA4FEEF540F2EA3F0B0
:0113F20022D8
:031C5400C2812228
:031C5700D2812215
:101B4600C2817F647E007D007C00121B0FD2817FE4
:0A1B5600647E007D007C00021B0F7E
:031C5A00C2802223
:031C5D00D2802210
:101B6000C2807F647E007D007C00121B0FD2807FCC
:0A1B7000647E007D007C00021B0F64
:101ADF004200550000420059000041005B004200E7
:031AEF005700D2CB
:05187E00900078EFF07E
:10188300E4A3F0900079E0C394087480948050231B
:10189300C293900078E01392937F3C7E007D007C9E
:1018A30000121BCDD293900078E0C313F0A3E004A1
:0E18B300F080D07F3C7E007D007C00021BCDCB
:1018C100E490007AF090007AE0C3940874809480E8
:1018D1005023C293A3E0C313F0D293309304E044A6
:1018E10080F07F3C7E007D007C00121BCD90007A51
:0A18F100E004F080D090007BE0FFDF
:0118FB0022CA
:1018FC00C200D2937F487E007D007C00121BCDC2BB
:10190C00937FF47E017D007C00121BCDD2937F3C33
:10191C007E007D007C00121BCDA29392007F3C7E4A
:0A192C00007D007C00121BCDA2001C
:01193600228E
:1010FE001218FC7FCC12187E7F4412187E1218FC38
:10110E007FCC12187E7FBE12187E1218C190007C02
:10111E00EFF01218C190007DEFF01218FC90007DD8
:10112E00E0FE90007CE0FBFDEDFF900055EEF0A39D
:10113E00EFF0EE54F8705D900055E0C4F854F0C82E
:10114E0068FEA3E0C4540F48FF7C007D0A1208E835
:10115E00900055EEF0A3EFF0EB540FFCE4120806EE
:10116E00E4FBFA7920783F1206F6C004C005C006EB
:10117E00C007900055E0FCA3E0FDE4120801D00387
:10118E00D002D001D00012060512083A900055EE9A
:04119E00F0A3EFF0DB
:0111A200222A
:101B7A002080117F0F7E007D007C00121B0F2080C9
:071B8A00037F01227F00220E
:101937003080093082063083032084267F0F7E00A3
:101947007D007C00121B0F2080037F012220820371
:101957007F02222083037F03222084037F04227FC8
:0519670000227F0022B8
:101BCD00D3EF9400EE9400400A000000EF1F70F078
:031BDD001E80ED7A
:011BE00022E2
:101B0F00D3EF9400EE940040120000007D0B7CBEDA
:0B1B1F00DCFEDDFCEF1F70E81E80E51F
:011B2A002298
:1005FE000208A6E86480F8E933E83360110460F07D
:10060E00ED33EC337009E8FCE9FDEAFEEBFF220462
:10061E0060DED3EB9FEA9EE99DE8C2E78CF0C2F75D
:10062E0095F0400CE8CCF8E9CDF9EACEFAEBCFFB29
:10063E0012087185D0F05804700320D5B3E8047009
:10064E00075002B2D50208B092D5EC0460F7E4CCA4
:10065E00C0E0C398F8603B94186008400DD0E0FBF2
:10066E00020888E4FBFAC9FC8028E830E406E4C9F5
:10067E00FBE4CAFCE830E305E4C9CACBFCE8540746
:10068E006010F8C3E913F9EA13FAEB13FBEC13FC51
:10069E00D8F130F52FC3E49CFCEF9BFFEE9AFEEDF4
:1006AE0099FDD0E0FBEF4E4D4C701222DB03020899
:1006BE00ADEC2CFCEF33FFEE33FEED33FDED30E70A
:1006CE00EB020888EF2BFFEE3AFEED39FDD0E0FB92
:1006DE0050130BBB00030208B0ED13FDEE13FEEF3B
:0806EE0013FFEC13FC02088865
:1006F600EC4D6011E8497017ED33EC3304600DE4FE
:10070600FCFFFEFD22E933E8330470F80208A61266
:10071600087158046009E4CC248150062850090267
:1007260008B02840030208ADC0E0EB4A7044B98027
:1007360006D0E0FB02089CEF4E701CBD8008EBFF64
:10074600EAFEE9FD80EBE98DF0A4FEE5F00207DFA5
:10075600E9CDF9EAFEEBFFEF89F0A4FCE5F0CE89DE
:10076600F0A42EFFE435F0CD89F0A42DFEE435F09B
:100776008067EF4E7005BD80D780C3EF8BF0A4ACC9
:10078600F0EE8BF0A42CFCE435F0F8EF8AF0A42C04
:10079600E5F038FCE433CB8DF0A42CFCE5F03BF817
:1007A600EE8AF0A42CFCE5F038F8E433CF89F0A407
:1007B6002CFCE5F038CF3400CE89F0A42FFFE5F00D
:1007C6003EFEE433C98DF0A42EFEE5F039CD8AF065
:1007D600A42FFFE5F03EFEE43DFD33D0E0FB5007DD
:1007E6000BBB000F0208B0EC2CFCEF33FFEE33FE20
:0607F600ED33FD0208884E
:1007FC0075F020800E75F010800575F0087D007E78
:10080C00007F003392D530D503120A6CEC334010C4
:10081C00EF33FFEE33FEED33FDEC33FCD5F0ED2280
:0E082C00E5F0247EA2D513CC92E7CDCEFF22BC
:10083A00EDD2E7CD33EC3392D524814006E4FFFEB6
:10084A00FDFC22FCE4CFCECDCC24E0501174FF8015
:10085A00EDC3CC13CCCD13CDCE13CECF13CF0470B2
:07086A00F030D5DE020A6C3C
:10087100E9D2E7C933E833F892D5EDD2E7CD33ECCD
:0708810033FC5002B2D52246
:10088800EC30E7100FBF000C0EBE00080DBD0004D1
:100898000BEB6014A2D5EB13FCED92E7FD2274FF7D
:1008A800FCFDFEFF22E480F8A2D574FF13FC7D80D6
:0308B800E480EFEA
:1013FF00021BF3E493A3F8E493A34003F68001F2F6
:10140F0008DFF48029E493A3F85407240CC8C333EE
:10141F00C4540F4420C8834004F456800146F6DFBD
:10142F00E4800B0102040810204080901AD5E47E5E
:10143F00019360BCA3FF543F30E509541FFEE493B2
:10144F00A360010ECF54C025E060A840B8E493A379
:10145F00FAE493A3F8E493A3C8C582C8CAC583CAA4
:10146F00F0A3C8C582C8CAC583CADFE9DEE780BE5C
:011AF20000F3
:1008BB00BB010CE58229F582E5833AF583E02250F2
:1008CB0006E92582F8E622BBFE06E92582F8E2223C
:0D08DB00E58229F582E5833AF583E4932256
:1008E800EF8DF0A4A8F0CF8CF0A428CE8DF0A42E24
:0208F800FE22DE
:1008FA00BC000BBE0029EF8DF084FFADF022E4CCE2
:10090A00F875F008EF2FFFEE33FEEC33FCEE9DECAA
:10091A00984005FCEE9DFE0FD5F0E9E4CEFD22EDF0
:10092A00F8F5F0EE8420D21CFEADF075F008EF2F3A
:10093A00FFED33FD4007985006D5F0F222C398FD2B
:05094A000FD5F0EA22C8
:10094F00E88FF0A4CC8BF0A42CFCE98EF0A42CFC47
:10095F008AF0EDA42CFCEA8EF0A4CDA8F08BF0A4C5
:10096F002DCC3825F0FDE98FF0A42CCD35F0FCEB24
:10097F008EF0A4FEA9F0EB8FF0A4CFC5F02ECD39E9
:0F098F00FEE43CFCEAA42DCE35F0FDE43CFC2256
:10099E0075F008758200EF2FFFEE33FECD33CDCC10
:1009AE0033CCC58233C5829BED9AEC99E582984093
:1009BE000CF582EE9BFEED9AFDEC99FC0FD5F0D670
:1009CE00E4CEFBE4CDFAE4CCF9A88222B800C1B99A
:1009DE000059BA002DEC8BF084CFCECDFCE5F0CBD8
:1009EE00F97818EF2FFFEE33FEED33FDEC33FCEB11
:1009FE0033FB10D703994004EB99FB0FD8E5E4F9CC
:100A0E00FA227818EF2FFFEE33FEED33FDEC33FCB8
:100A1E00C933C910D7059BE99A4007EC9BFCE99AAC
:100A2E00F90FD8E0E4C9FAE4CCFB2275F010EF2FF1
:100A3E00FFEE33FEED33FDCC33CCC833C810D707F1
:100A4E009BEC9AE899400AED9BFDEC9AFCE899F82C
:0E0A5E000FD5F0DAE4CDFBE4CCFAE4C8F922BF
:0E0A6C00C3E49FFFE49EFEE49DFDE49CFC229B
:100A7A00EB9FF5F0EA9E42F0E99D42F0E89C45F0D2
:010A8A002249
:100A8B007401FF3395E0FEFDFCA3A3A3E0CF2FF091
:100A9B00E582158270021583E0CE3EF0E582158269
:100AAB0070021583E0CD3DF0E5821582700215834F
:050ABB00E0CC3CF0223C
:0C0AC000ECF0A3EDF0A3EEF0A3EFF022A9
:100ACC00A8828583F0D083D082120AE3120AE31243
:100ADC000AE3120AE3E473E493A3C583C5F0C58368
:100AEC00C8C582C8F0A3C583C5F0C583C8C582C874
:010AFC0022D7
:00000001FF
