:03000000020EE409
:0C0EE400787FE4F6D8FD758165020E5E93
:100E5E001207F1E4F50DF50CF50BF50A750E067D8E
:060E6E00017F01020C6E81
:100EA000759D0143972075BCC07F057E007D007C49
:040EB00000020C250B
:100E270043BC08E5BC5410641070F8AFBDADBEEF0D
:0B0E3700FEEDFFE453BCEFF5BDF5BE7F
:010E4200228D
:1000030000000000000000000000000000000000ED
:10001300000000F800000000000000333000000082
:1000230000100C06100C0600000000000000000089
:1000330040C07840C0784000043F04043F040400FB
:10004300007088FC08300000001820FF211E00000B
:10005300F008F000E018000000211C031E211E0020
:1000630000F00888700000001E21232419272110A6
:1000730010160E0000000000000000000000000049
:10008300000000E0180402000000000718204000F0
:1000930000020418E00000000040201807000000E0
:1000A300404080F0804040000202010F0102020044
:1000B300000000F0000000000101011F0101010028
:1000C300000000000000000080B07000000000008D
:1000D3000000000000000000000101010101010116
:1000E30000000000000000000030300000000000AD
:1000F3000000000080601804006018060100000082
:1001030000E010080810E000000F102020100F007E
:10011300001010F8000000000020203F2020000005
:10012300007008080888700000302824222130005D
:1001330000300888884830000018202020110E0065
:100143000000C02010F8000000070424243F24000E
:1001530000F80888880808000019212020110E00E3
:1001630000E0108888180000000F112020110E00F5
:1001730000380808C83808000000003F00000000ED
:100183000070880808887000001C222121221C00AE
:1001930000E010080810E0000000312222110F00D7
:1001A300000000C0C000000000000030300000006C
:1001B30000000080000000000000806000000000DC
:1001C30000008040201008000001020408102000F5
:1001D3004040404040404000040404040404040040
:1001E30000081020408000000020100804020100D5
:1001F300007048080808F0000000003036010000D5
:10020300C030C828E810E0000718272423140B0087
:100213000000C038E0000000203C23020227382001
:1002230008F8888888700000203F202020110E00E5
:10023300C0300808080838000718202020100800DC
:1002430008F808080810E000203F202020100F00C5
:1002530008F88888E8081000203F20202320180091
:1002630008F88888E8081000203F200003000000F9
:10027300C03008080838000007182020221E02009A
:1002830008F808000008F808203F210101213F2059
:10029300000808F8080800000020203F2020000084
:1002A30000000808F8080800C08080807F00000074
:1002B30008F888C028180800203F200126382000AD
:1002C30008F8080000000000203F20202020300014
:1002D30008F8F800F8F80800203F003F003F20002E
:1002E30008F830C00008F808203F200007183F0036
:1002F300E01008080810E0000F10202020100F0065
:1003030008F808080808F000203F21010101000057
:10031300E01008080810E0000F18242438504F009C
:1003230008F8888888887000203F2000030C30205C
:1003330000708808080838000038202121221C009A
:10034300180808F8080818000000203F20000000E3
:1003530008F808000008F808001F202020201F00CC
:100363000878880000C83808000007380E0100002C
:10037300F80800F80008F800033C0700073C0300F6
:10038300081868808068180820302C03032C30205C
:100393000838C800C83808000000203F20000000CB
:1003A30010080808C8380800203826212020180023
:1003B300000000FE020202000000007F40404000F7
:1003C300000C30C000000000000000010638C0002F
:1003D30000020202FE000000004040407F000000D7
:1003E30000000402020204000000000000000000FC
:1003F30000000000000000008080808080808080FA
:1004030000020204000000000000000000000000E1
:1004130000008080808000000019242222223F20D7
:1004230008F8008080000000003F112020110E001A
:100433000000008080800000000E112020201100A9
:10044300000000808088F800000E112020103F205B
:100453000000808080800000001F222222221300DF
:10046300008080F0888888180020203F202000002A
:100473000000808080808000006B949494936000DF
:1004830008F8008080800000203F210000203F20EA
:1004930000809898000000000020203F20200000EA
:1004A300000000809898000000C08080807F0000DA
:1004B30008F8000080808000203F24022D302000B7
:1004C300000808F8000000000020203F2020000062
:1004D3008080808080808000203F20003F20003F7C
:1004E3008080008080800000203F210000203F208A
:1004F3000000808080800000001F202020201F003B
:10050300808000808000000080FFA12020110E0069
:100513000000008080808000000E112020A0FF805A
:10052300808080008080800020203F212000010007
:10053300000080808080800000332424242419005C
:10054300008080E0808000000000001F2020000069
:100553008080000000808000001F202020103F20AA
:10056300808080000080808000010E30080601003A
:1005730080800080008080800F300C030C300F00DF
:1005830000808000808080000020312E0E3120000A
:10059300808080000080808080818E70180601003A
:1005A30000808080808080000021302C2221300058
:1005B30000000000807C020200000000003F404079
:1005C30000000000FF00000000000000FF0000002A
:1005D3000002027C800000000040403F0000000059
:1005E30000060101020204040000000000000000F4
:090EF000D280D281C281C28122AC
:070EF900C281D280D28122E8
:0B0EC600120D33120ED1AF04120D33D9
:050ED100D280C2802266
:070D2C00AC07120EF07F7806
:100D3300C280E4FEEEC3940874809480501BAD0718
:100D4300530580ED64807004D2818002C281EF2557
:090D5300E0FFD280C2800E80DBBB
:010D5C002274
:0E0ED600120D2C120ED1E4FF120EC6020EF900
:100E09003EF583E5822BF582E43583F583E493FF90
:0E0E1900120D2C120ED17F40120EC6020EF9E1
:080DE500FFE91475F008A4FDFC
:100DED00AB05EF44B0FF120ED6EB54F0C4540F44D4
:0C0DFD0010FF120ED6EB540FFF020ED6B2
:100DBA00E4FAEAC3940874809480501EAF02E4FDFA
:100DCA00120DEDE4FBEBC39480748094805008E428
:0A0DDA00FF120E190B80EE0A80D8FC
:010DE40022EC
:060971008F10AA03A90586
:10097700E5101425E0120DE5E4FBEBC39408748041
:1009870094805021EAFF3395E0FEEFC4F8540FC876
:1009970068FFEEC454F048FE74032FF58274FE120C
:1009A7000E090B80D5E51025E014120DE5E4FBEBED
:1009B700C39408748094805021EAFF3395E0FEEFDA
:1009C700C4F8540FC868FFEEC454F048FE740B2FE8
:0A09D700F58274FE120E090B80D5A4
:0109E10022F3
:0A0D8C008F4B8D4C8B4D8A4E894F22
:100D9600E4F550AB4DAA4EA94F85508275830012DB
:100DA60005F3FB600EE54C2550FDAF4B12097105AE
:030DB6005080E08A
:010DB9002217
:100ABD00FFE49400CF24FFCF34FFFE3395E08F1772
:0E0ACD008E16F515F5147F0A7E007D007C0064
:080ADB008F138E128D118C1097
:100AE300E4751B01F51AF519F518781474FF12074C
:100AF300B3EC4D4E4F601DAF1BAE1AAD19AC18AB26
:100B030013AA12A911A8101206758F1B8E1A8D191C
:0C0B13008C1880D6AF1BAE1AAD19AC18C0
:010B1F0022B3
:040C6E008F088D0955
:100C7200E4F50FE50FC3950E5036C3E50E950F123E
:100C82000ABDA804A905AA06AB07AF0DAE0CAD0BB1
:100C9200AC0A120700E47B0AFAF9F8120700EB2407
:100CA20030FBE509250FFDAF08120971050F80C35E
:010CB200221F
:0408E5008F1C8D1DBA
:1008E900E4FFFEFDFCAB21AA20A91FA81EC3120725
:1008F900A040177B2BAD1DAF1C12097185212785DF
:100909002026851F25851E24801C7B2DAD1DAF1C2F
:10091900120971AF21AE20AD1FAC1E1207928F27AD
:100929008E268D258C24E4F523E523C395225037A3
:10093900C3E5229523120ABDA804A905AA06AB0797
:10094900AF27AE26AD25AC24120700E47B0AFAF9DD
:10095900F8120700EB2430FBE51D252304FDAF1C2D
:07096900120971052380C291
:010970002264
:0409E2008F328D3390
:1009E600E4F539E539C39538505FC3E5389539FFE5
:1009F600E49400CF24FFCF34FFFE3395E08F178EAB
:100A060016F515F5147F10120AD5A804A905AA062D
:100A1600AB07AF37AE36AD35AC34120700EF540F27
:100A2600FF8F3AC3EF940A74809480E5335009250A
:100A360039FDE53A243080072539FDE53A2437FBB0
:090A4600AF321209710539809AE2
:010A4F002284
:040B7F008F3B8D3CDF
:100B8300E4F542E542C395415049C3E5419542FF2F
:100B9300E49400CF24FFCF34FFFE3395E08F178E0C
:100BA30016F515F5147F02120AD5A804A905AA069D
:100BB300AB07AF40AE3FAD3EAC3D120700EF540173
:100BC300FFEF2430FBE53C2542FDAF3B12097105E5
:030BD3004280B0AD
:010BD60022FC
:1007F100E4F50BF50AF509F508E47FE87E03FDFC55
:10080100AB0BAA0AA909A808C31207A0504CE4F52A
:100811000FF50EF50DF50CE47FE87E03FDFCAB0F43
:10082100AA0EA90DA80CC31207A05017E50F2401A9
:10083100F50FE4350EF50EE4350DF50DE4350CF547
:100841000C80D4E50B2401F50BE4350AF50AE435F7
:1008510009F509E43508F508809F7FAE120ED6E44C
:10086100FF120ED67F10120ED67F40120ED67FB029
:10087100120ED67F81120ED67FFF120ED67FA112E5
:100881000ED67FA6120ED67FA8120ED67F3F120E6D
:10089100D67FC8120ED67FD3120ED6E4FF120ED623
:1008A1007FD5120ED67F80120ED67FD8120ED67F3C
:1008B10005120ED67FD9120ED67FF1120ED67FDA2F
:1008C100120ED67F12120ED67FDB120ED67F301299
:1008D1000ED67F8D120ED67F14120ED67FAF120E5A
:0408E100D6020DBA74
:100E4300D293C2937F1E7E007D007C00120C25D2BC
:0B0E5300932093FD3093FD2093FD22BF
:100A5000120E43E4F551F552E4F553F5543093FD8D
:100A60007F287E007D007C00120E8A309308755628
:100A70000130930580FBE4F556E55525E0F555E595
:100A80005642550554E55470020553C39408E55386
:100A90006480948040C7AF55EF3395E0FEE5522562
:100AA000E02428F8A60608A6070552E552700205BC
:0C0AB00051C39405E55164809480409C83
:010ABC002217
:100E74003F065B4F666D7D077F6F777C585E7971A7
:060E8400763854733E00B5
:100EB400D295D2947F027E007D007C00120E8AC2FD
:020EC400942276
:100D5D00C2957F057E007D007C00120E8A30940FB7
:100D6D00C3E56594FA748094805004056580EED2D5
:0E0D7D00957F027E007D007C00120E8AC295DA
:010D8B002245
:100CF800C2957F027E007D007C00120E8AC2947F1E
:100D0800027E007D007C00120E8AD2957F027E0052
:100D18007D007C00120E8AD2947F027E007D007CCA
:040D280000020E8A2D
:050CB300900E7493FF98
:020CB8008F6348
:100CBA00E4F564C3E564940874809480502FC29567
:100CCA00E56330E004D2948002C2947F037E007D03
:100CDA00007C00120E8AE563C313F563D2957F0385
:0D0CEA007E007D007C00120E8A056480C62D
:010CF70022DA
:100B20008F578D588B59120EB47F40120CB8120D8E
:100B30005D120CF8120EB47FC0120CB8120D5DE5F8
:100B400057120CB3120D5DE55BC43333335480FF91
:100B5000E558900E74934FFF120CB8120D5DE559D5
:100B6000120CB3120D5DE55A120CB3120D5D120C8E
:0F0B7000F8120EB47F89120CB8120D5D020CF84A
:040BD700AB07AA06B8
:100BDB007C037DE81206208F627C007D64AF03AE40
:100BEB00021206207C007D0A1206208D617C007D9E
:100BFB000AAF03AE021206207C007D0A1206208D7E
:100C0B0060AE02AF037C007D0A1206208D5AE4F51C
:0A0C1B005BAB60AD61AF62020B201D
:100E8A008F5F8E5E8D5D8C5C785C74FF1207D3EC8D
:060E9A004D4E4F70F322E3
:080C25008F468E458D448C437F
:100C2D00AF46AE45AD44AC43EC4D4E4F6032E4752E
:100C3D004A08754907F548F547784774FF1207B319
:100C4D00EC4D4E4F70F3E54624FFF546E54534FF78
:100C5D00F545E54434FFF544E54334FFF54380C0E5
:010C6D002264
:1005F300BB010CE58229F582E5833AF583E02250BD
:1006030006E92582F8E622BBFE06E92582F8E22206
:0D061300E58229F582E5833AF583E4932220
:10062000BC000BBE0029EF8DF084FFADF022E4CCBE
:10063000F875F008EF2FFFEE33FEEC33FCEE9DEC87
:10064000984005FCEE9DFE0FD5F0E9E4CEFD22EDCD
:10065000F8F5F0EE8420D21CFEADF075F008EF2F17
:10066000FFED33FD4007985006D5F0F222C398FD08
:050670000FD5F0EA22A5
:10067500E88FF0A4CC8BF0A42CFCE98EF0A42CFC24
:100685008AF0EDA42CFCEA8EF0A4CDA8F08BF0A4A2
:100695002DCC3825F0FDE98FF0A42CCD35F0FCEB01
:1006A5008EF0A4FEA9F0EB8FF0A4CFC5F02ECD39C6
:0F06B500FEE43CFCEAA42DCE35F0FDE43CFC2233
:1006C40075F008758200EF2FFFEE33FECD33CDCCED
:1006D40033CCC58233C5829BED9AEC99E582984070
:1006E4000CF582EE9BFEED9AFDEC99FC0FD5F0D64D
:1006F400E4CEFBE4CDFAE4CCF9A88222B800C1B977
:100704000059BA002DEC8BF084CFCECDFCE5F0CBB4
:10071400F97818EF2FFFEE33FEED33FDEC33FCEBED
:1007240033FB10D703994004EB99FB0FD8E5E4F9A8
:10073400FA227818EF2FFFEE33FEED33FDEC33FC95
:10074400C933C910D7059BE99A4007EC9BFCE99A89
:10075400F90FD8E0E4C9FAE4CCFB2275F010EF2FCE
:10076400FFEE33FEED33FDCC33CCC833C810D707CE
:100774009BEC9AE899400AED9BFDEC9AFCE899F809
:0E0784000FD5F0DAE4CDFBE4CCFAE4C8F9229C
:0E079200C3E49FFFE49EFEE49DFDE49CFC2278
:1007A000EB9FF5F0EA9E42F0E99D42F0E89C45F0AF
:0107B0002226
:1007B1007401FF3395E0FEFDFC080808E6CF2FF633
:1007C10018E6CE3EF618E6CD3DF618E6CC3CF6220C
:1007D1007401FF3395E0FEFDFC080808E62FFFF6E3
:1007E10018E63EFEF618E63DFDF618E63CFCF6225C
:00000001FF
