:030000000214E9FE
:0C14E900787FE4F6D8FD758120021530F4
:10185A001213CA120AF2900014E0FF75F00A84907B
:10186A00006CF0EF75F00A8490006EE5F0F09000DD
:10187A0019E075F00A8490006DF0900016E0FF758B
:10188A00F00A8490006FF0EF75F00A84900071E519
:0F189A00F0F090001DE075F00A84900070F022CD
:100F5200E4900000F0A3120AC10000000090000516
:100F6200120AC10000000012185A1219F2EF6401AD
:100F72007015900000E004F0E05401F07FF47E016F
:100F82007D007C00121BDC900000E0701690006F68
:100F9200E0FF900071E0FD900070E0FB90000C74A7
:100FA2000C801C900000E06401701C90006CE0FF5B
:100FB20090006EE0FD90006DE0FB90000C7410F06C
:100FC200A37401F0121339900001E0FCA3E0FDA329
:100FD200E0FEA3E02401FFE43EFEE43DFDE43CFC30
:100FE200900001120AB5E47F2A7E08FDFC90000100
:100FF200E0F8A3E0F9A3E0FAA3E0FBC3120A6F60F2
:1010020003020F6C900001120AC100000000900060
:1010120005E0FCA3E0FDA3E0FEA3E02401FFE43E23
:10102200FEE43DFDE43CFC900005120AB5E47F10AD
:101032007E27FDFC900005E0F8A3E0F9A3E0FAA307
:10104200E0FBC3120A6F6003020F6C12185A020F00
:011052006C31
:101C2C00759D0143972075BCC07F057E007D007CAF
:041C3C0000021BDCAB
:101BC00043BC08E5BC5410641070F8AFBDADBEEF67
:0B1BD000FEEDFF53BCEFE4F5BDF5BED9
:011BDB0022E7
:1000030000000000000000000000000000000000ED
:10001300000000F800000000000000333000000082
:1000230000100C06100C0600000000000000000089
:1000330040C07840C0784000043F04043F040400FB
:10004300007088FC08300000001820FF211E00000B
:10005300F008F000E018000000211C031E211E0020
:1000630000F00888700000001E21232419272110A6
:1000730010160E0000000000000000000000000049
:10008300000000E0180402000000000718204000F0
:1000930000020418E00000000040201807000000E0
:1000A300404080F0804040000202010F0102020044
:1000B300000000F0000000000101011F0101010028
:1000C300000000000000000080B07000000000008D
:1000D3000000000000000000000101010101010116
:1000E30000000000000000000030300000000000AD
:1000F3000000000080601804006018060100000082
:1001030000E010080810E000000F102020100F007E
:10011300001010F8000000000020203F2020000005
:10012300007008080888700000302824222130005D
:1001330000300888884830000018202020110E0065
:100143000000C02010F8000000070424243F24000E
:1001530000F80888880808000019212020110E00E3
:1001630000E0108888180000000F112020110E00F5
:1001730000380808C83808000000003F00000000ED
:100183000070880808887000001C222121221C00AE
:1001930000E010080810E0000000312222110F00D7
:1001A300000000C0C000000000000030300000006C
:1001B30000000080000000000000806000000000DC
:1001C30000008040201008000001020408102000F5
:1001D3004040404040404000040404040404040040
:1001E30000081020408000000020100804020100D5
:1001F300007048080808F0000000003036010000D5
:10020300C030C828E810E0000718272423140B0087
:100213000000C038E0000000203C23020227382001
:1002230008F8888888700000203F202020110E00E5
:10023300C0300808080838000718202020100800DC
:1002430008F808080810E000203F202020100F00C5
:1002530008F88888E8081000203F20202320180091
:1002630008F88888E8081000203F200003000000F9
:10027300C03008080838000007182020221E02009A
:1002830008F808000008F808203F210101213F2059
:10029300000808F8080800000020203F2020000084
:1002A30000000808F8080800C08080807F00000074
:1002B30008F888C028180800203F200126382000AD
:1002C30008F8080000000000203F20202020300014
:1002D30008F8F800F8F80800203F003F003F20002E
:1002E30008F830C00008F808203F200007183F0036
:1002F300E01008080810E0000F10202020100F0065
:1003030008F808080808F000203F21010101000057
:10031300E01008080810E0000F18242438504F009C
:1003230008F8888888887000203F2000030C30205C
:1003330000708808080838000038202121221C009A
:10034300180808F8080818000000203F20000000E3
:1003530008F808000008F808001F202020201F00CC
:100363000878880000C83808000007380E0100002C
:10037300F80800F80008F800033C0700073C0300F6
:10038300081868808068180820302C03032C30205C
:100393000838C800C83808000000203F20000000CB
:1003A30010080808C8380800203826212020180023
:1003B300000000FE020202000000007F40404000F7
:1003C300000C30C000000000000000010638C0002F
:1003D30000020202FE000000004040407F000000D7
:1003E30000000402020204000000000000000000FC
:1003F30000000000000000008080808080808080FA
:1004030000020204000000000000000000000000E1
:1004130000008080808000000019242222223F20D7
:1004230008F8008080000000003F112020110E001A
:100433000000008080800000000E112020201100A9
:10044300000000808088F800000E112020103F205B
:100453000000808080800000001F222222221300DF
:10046300008080F0888888180020203F202000002A
:100473000000808080808000006B949494936000DF
:1004830008F8008080800000203F210000203F20EA
:1004930000809898000000000020203F20200000EA
:1004A300000000809898000000C08080807F0000DA
:1004B30008F8000080808000203F24022D302000B7
:1004C300000808F8000000000020203F2020000062
:1004D3008080808080808000203F20003F20003F7C
:1004E3008080008080800000203F210000203F208A
:1004F3000000808080800000001F202020201F003B
:10050300808000808000000080FFA12020110E0069
:100513000000008080808000000E112020A0FF805A
:10052300808080008080800020203F212000010007
:10053300000080808080800000332424242419005C
:10054300008080E0808000000000001F2020000069
:100553008080000000808000001F202020103F20AA
:10056300808080000080808000010E30080601003A
:1005730080800080008080800F300C030C300F00DF
:1005830000808000808080000020312E0E3120000A
:10059300808080000080808080818E70180601003A
:1005A30000808080808080000021302C2221300058
:1005B30000000000807C020200000000003F404079
:1005C30000000000FF00000000000000FF0000002A
:1005D3000002027C800000000040403F0000000059
:1005E30000060101020204040000000000000000F4
:091CAC00D280D281C281C28122E2
:071CB500C281D280D281221E
:0B1C8E00121AC7121C99AF04121AC7EB
:051C9900D280C2802290
:071AC000AC07121CAC7F789B
:101AC700C280E4FEEEC3940874809480501AAD0778
:101AD700ED548064807004D2818002C281EF25E0DA
:081AE700FFD280C2800E80DCFA
:011AEF0022D4
:0E1C9E00121AC0121C99E4FF121C8E021CB513
:101B84003EF583E5822DF582E43583F583E493FF06
:0E1B9400121AC0121C997F40121C8E021CB542
:061B42001475F008A4FD7B
:101B4800AB05EF44B0FF121C9EEB54F0C4540F4495
:0C1B580010FF121C9EEB540FFF021C9E9D
:101AF000E4FAEAC3940874809480501EAF02E4FDB7
:101B0000121B48E4FBEBC39480748094805008E47B
:0A1B1000FF121B940B80EE0A80D830
:011B1A0022A8
:04129900FEE02EFD48
:0D129D0090007AEBF0900078EFF0A3EDF0F8
:1012AA00EF1425E0FFED121B42E490007BF0900062
:1012BA007BE0FDC3940874809480502990007AE002
:1012CA00FF3395E0FEEFC4F8540FC868FFEEC4542C
:1012DA00F048FE74032FF58274FE121B8490007B83
:1012EA00E004F080C9900078E025E014FFA3E01242
:1012FA001B42E490007BF090007BE0FDC3940874ED
:10130A00809480502990007AE0FF3395E0FEEFC484
:10131A00F8540FC868FFEEC454F048FE740B2FF55A
:0E132A008274FE121B8490007BE004F080C9E8
:011338002292
:1018F500900072EFF0A3EDF0A3EBF0A3EAF0A3E9FB
:01190500F0F1
:10190600E4A3F0900074E0FBA3E0FAA3E0F9A3E0FF
:10191600F5827583001208B0FB6017900072E0FF35
:10192600900077E0900073121299900077E004F02F
:0219360080D15E
:01193800228C
:1015FC00EEFDC3EF9DFFE49400CF24FFCF34FFFE3C
:10160C003395E0FDFC900031120AB57F0A7E007D17
:03161C00007C004F
:06161F0090002D120AB537
:10162500900035120AC10000000190003174FF12CC
:101635000A82EC4D4E4F6027900035E0FCA3E0FD9B
:10164500A3E0FEA3E0FF90002DE0F8A3E0F9A3E0FE
:10165500FAA3E0FB120944900035120AB580CB903D
:0D1665000035E0FCA3E0FDA3E0FEA3E0FFE4
:011672002255
:0817AE00900045EFF0A3EDF0FF
:1017B600E490004CF090004BE0FFA3E0FEC39F5086
:1017C600401215FCA804A905AA06AB07900047E03D
:1017D600FCA3E0FDA3E0FEA3E0FF1209CFE47B0A31
:1017E600FAF9F81209CFEB2430FB900045E0FF90A0
:1017F600004CE090004612129990004CE004F080F4
:01180600B42D
:0118070022BE
:08114500900039EFF0A3EDF07A
:10114D00E4FFFEFDFCA3E0F8A3E0F9A3E0FAA3E0C1
:10115D00FBC3120A6F900039E0FFA3E0FD40157B41
:10116D002B12129D90003BE0FCA3E0FDA3E0FEA33B
:10117D00E0FF80167B2D12129D90003BE0FCA3E05A
:10118D00FDA3E0FEA3E0FF120A61900041120AB533
:10119D00E4900040F090003FE0FFA3E0FEC39F50BD
:1011AD00451215FCA804A905AA06AB07900041E05D
:1011BD00FCA3E0FDA3E0FEA3E0FF1209CFE47B0A50
:1011CD00FAF9F81209CFEB2430FB900039E0FF90CB
:1011DD000040E0FE90003AE02E04FD12129D9000BA
:0611ED0040E004F080AFB9
:0111F30022D9
:0815750090004DEFF0A3EDF032
:10157D00E4900054F0900053E0F9A3E0FFC39950BC
:10158D006DE9C39FFFE49400CF24FFCF34FFFE33FA
:10159D0095E0FDFC900031120AB57F10121619A8C6
:1015AD0004A905AA06AB0790004FE0FCA3E0FDA33C
:1015BD00E0FEA3E0FF1209CFEF540FFFAE07EEC31D
:1015CD00940A7480948090004DE0FF900054E0FDEB
:1015DD0090004EE050072DFDEE243080052DFDEEE0
:0E15ED002437FB12129D900054E004F080871A
:0115FB0022CD
:08167300900055EFF0A3EDF02B
:10167B00E490005CF090005BE0FFA3E0FEC39F50A2
:10168B005CEEFDC3EF9DFFE49400CF24FFCF34FF4E
:10169B00FE3395E0FDFC900031120AB57F02121665
:1016AB0019A804A905AA06AB07900057E0FCA3E014
:1016BB00FDA3E0FEA3E0FF1209CFEF5401FFEF24DF
:1016CB0030FB900055E0FF90005CE0FE900056E090
:0D16DB002EFD12129D90005CE004F080983E
:0116E80022DF
:100E3B0090005D120AC100000000E47FE87E03FD14
:100E4B00FC90005DE0F8A3E0F9A3E0FAA3E0FBC39C
:100E5B00120A6F5068900061120AC100000000E492
:100E6B007FE87E03FDFC900061E0F8A3E0F9A3E0CE
:100E7B00FAA3E0FBC3120A6F5021900061E0FCA3C0
:100E8B00E0FDA3E0FEA3E02401FFE43EFEE43DFD14
:100E9B00E43CFC900061120AB580C490005DE0FC5C
:100EAB00A3E0FDA3E0FEA3E02401FFE43EFEE43D4E
:100EBB00FDE43CFC90005D120AB5020E457FAE12BC
:100ECB001C9EE4FF121C9E7F10121C9E7F40121C66
:100EDB009E7FB0121C9E7F81121C9E7FFF121C9E58
:100EEB007FA1121C9E7FA6121C9E7FA8121C9E7FA8
:100EFB003F121C9E7FC8121C9E7FD3121C9EE4FFC8
:100F0B00121C9E7FD5121C9E7F80121C9E7FD812B6
:100F1B001C9E7F05121C9E7FD9121C9E7FF1121CFA
:100F2B009E7FDA121C9E7F12121C9E7FDB121C9E70
:100F3B007F30121C9E7F8D121C9E7F14121C9E7F75
:070F4B00AF121C9E021AF018
:101B64003F065B4F666D7D077F6F777C395E7971C9
:101B7400763854733E00BF86DBCFE6EDFD87FFEF7A
:101C7C00D295D2947F027E007D007C00121C68C23B
:021C8C009422A0
:101A8E00C2957F057E007D007C00121C683094128A
:101A9E0090000EE0C394FA748094805005E004F038
:101AAE0080EBD2957F027E007D007C00121C68C206
:011ABE009592
:011ABF002204
:101A2700C2957F027E007D007C00121C68C2947FF5
:101A3700027E007D007C00121C68D2957F027E002A
:101A47007D007C00121C68D2947F027E007D007CA2
:041A570000021C6805
:06180800E0901B6493FF59
:05180E0090000EEFF058
:10181300E4A3F090000FE0C39408748094805036E2
:10182300C29590000EE030E004D2948002C2947F0F
:10183300037E007D007C00121C6890000EE0C31341
:10184300F0D2957F037E007D007C00121C6890001F
:061853000FE004F080BD6F
:01185900226C
:10133900900009EFF0A3EDF0A3EBF0121C7C7F40C5
:1013490012180E121A8E121A27121C7C7FC012183C
:101359000E121A8E900009121808121A8E90000D9A
:10136900E0700690000A12180890000DE0FF640171
:101379007015EFC43333335480FF90000AE0901B9B
:1013890064934FFF12180E90000DE06402700C90E8
:10139900000AE0901B7A93FF12180E121A8E900021
:1013A9000B121808121A8E90000C121808121A8EB5
:1013B900121A27121C7C7F8912180E121A8E021A11
:0113C90027FC
:0416E900AB07AA069B
:1016ED007C037DE81208EF90007EEFF07C007D64B6
:1016FD00AF03AE021208EF7C007D0A1208EF9000D6
:10170D007DEDF07C007D0AAF03AE021208EF7C0088
:10171D007D0A1208EF90007CEDF0AE02AF037C0065
:10172D007D0A1208EFAE0590007EE0FF90007DE08F
:10173D00FD90007CE0FB90000CEEF0E4A3F00213B2
:01174D003962
:101B1B00D2937F0A7E007D007C00121C68C2937FEB
:101B2B00147E007D007C00121BDCD2937F207E0094
:071B3B007D007C00021C6824
:1018A900E4900009F0900009E0C3940874809480E2
:1018B90050343093FD7F207E007D007C00121C682F
:1018C900E490000AF030930204F02093FD90001395
:1018D900E025E0FFF090000AE04F900013F090003F
:0B18E90009E004F080BF900013E0FF56
:0118F40022D1
:1013CA00121B1BD2937F017E007D007C00121C68D9
:1013DA0020937C3093FD2093FD1218A990001AEFF8
:1013EA00F01218A990001BEFF01218A990001EEF36
:1013FA00F01218A9900010EFF01218A9900011EF3E
:10140A00F0C2937F387E007D007C00121C68D29364
:10141A0090001BE0FF90001AE0FE2FFD90001EE0F6
:10142A00FC2DFD900010E0FB2DFD900018F09000BF
:10143A0011E0B5051AA3EEF0900017EFF090001531
:10144A00ECF090001CEBF0900018E0900011F022F4
:100AF200E4900009F0A3F0FBEBC3940874809480A7
:100B02004003020BBB900012E0F954017C00FDEBA4
:100B1200B408004003020BB0900B21F8282873029E
:100B22000BA4020B8F020B80020B72020B63020BEF
:100B320055020B47020B39AE04ED7807C333CE33AF
:100B4200CED8F98045AE04ED7806C333CE33CED885
:100B5200F98037AE04ED7805C333CE33CED8F980B1
:100B620029EDC4F8540FC868FFECC454F048802340
:100B7200AE04ED7803C333CE33CED8F9800CAE0485
:100B8200ED7802C333CE33CED8F9FF8007ED25E0EE
:100B9200FFEC33FE90000AE02FF0900009E03EF0F7
:100BA200800C90000AE02DF0900009E03CF0E9C3CF
:100BB20013900012F00B020AFA900009A3E09000D1
:100BC20014F0E4900009F0A3F0FBEBC394087480E6
:100BD20094804003020C8D900015E0F954017C00D2
:100BE200FDEBB408004003020C82900BF3F82828B6
:100BF20073020C76020C61020C52020C44020C3598
:100C0200020C27020C19020C0BAE04ED7807C33359
:100C1200CE33CED8F98045AE04ED7806C333CE3359
:100C2200CED8F98037AE04ED7805C333CE33CED8B3
:100C3200F98029EDC4F8540FC868FFECC454F04899
:100C42008023AE04ED7803C333CE33CED8F9800CC3
:100C5200AE04ED7802C333CE33CED8F9FF8007ED70
:100C620025E0FFEC33FE90000AE02FF0900009E04F
:100C72003EF0800C90000AE02DF0900009E03CF07C
:100C8200E9C313900015F00B020BCC900009A3E00E
:100C9200900016F0E4900009F0A3F0FBEBC3940877
:100CA200748094804003020D5F90001CE0F95401AF
:100CB2007C00FDEBB408004003020D54900CC5F813
:100CC200282873020D48020D33020D24020D16026C
:100CD2000D07020CF9020CEB020CDDAE04ED7807F5
:100CE200C333CE33CED8F98045AE04ED7806C33394
:100CF200CE33CED8F98037AE04ED7805C333CE3388
:100D0200CED8F98029EDC4F8540FC868FFECC4545A
:100D1200F0488023AE04ED7803C333CE33CED8F946
:100D2200800CAE04ED7802C333CE33CED8F9FF8007
:100D320007ED25E0FFEC33FE90000AE02FF0900073
:100D420009E03EF0800C90000AE02DF0900009E0EE
:100D52003CF0E9C31390001CF00B020C9E900009BA
:100D6200A3E090001DF0E4900009F0A3F0FBEBC3B8
:100D72009408748094804003020E31900017E0F9C9
:100D820054017C00FDEBB408004003020E26900DD6
:100D920097F8282873020E1A020E05020DF6020DAC
:100DA200E8020DD9020DCB020DBD020DAFAE04ED6E
:100DB2007807C333CE33CED8F98045AE04ED78063A
:100DC200C333CE33CED8F98037AE04ED7805C333C2
:100DD200CE33CED8F98029EDC4F8540FC868FFECA1
:100DE200C454F0488023AE04ED7803C333CE33CE2F
:100DF200D8F9800CAE04ED7802C333CE33CED8F9E5
:100E0200FF8007ED25E0FFEC33FE90000AE02FF0B3
:100E1200900009E03EF0800C90000AE02DF0900076
:100E220009E03CF0E9C313900017F00B020D70903B
:080E32000009A3E0900019F093
:010E3A002295
:101A5B0053A2CF43A21075D90E75DA0275DB02754E
:101A6B00DC02E4F5F2F5F3F5F4F5F9F5E975EA7F47
:101A7B0075FA7F75EB7F75FB7F75EC7F75FC7F755A
:031A8B00D840221E
:031CCA008FFA226C
:031CCD008FFB2268
:031CD0008FFC2264
:071CBC008FFA8FFB8FFC2261
:071CC3008C888A8684828070
:0A1BA20047002618010101000000B1
:10105300E0FF75F00A84C454F0FEEF75F00A84EEE5
:1010630025F0FD7F8C1210FEA3E0FF75F00A84C407
:1010730054F0FEEF75F00A84EE25F0FD7F88121020
:10108300FEA3E0FF75F00A84C454F0FEEF75F00A86
:1010930084EE25F0FD7F8A1210FEA3E0FF75F00AAF
:1010A30084C454F0FEEF75F00A84EE25F0FD7F86CC
:1010B3001210FEA3E0FF75F00A84C454F0FEEF752E
:1010C300F00A84EE25F0FD7F841210FEA3E0FF7585
:1010D300F00A84C454F0FEEF75F00A84EE25F0FDA7
:1010E3007F821210FEA3E0FF75F00A84C454F0FE61
:0B10F300EF75F00A84EE25F0FD7F8011
:1010FE00C28700C28500D28700E4FEEEC394087456
:10110E008094805011EF139286EFC313FFD28500A7
:10111E00C285000E80E5E4FEEEC3940874809480D0
:10112E005011ED139286EDC313FDD28500C28500DA
:06113E000E80E5C28700EF
:011144002288
:10174E00EF4401FFC28700C28500D28700E4FDEDA1
:10175E00C39408748094805011EF139286EFC313D4
:10176E00FFD28500C285000D80E500E4FDEDC39437
:10177E000874809480501AA286E433FFC433333346
:10178E005480FCEEC3134CFED28500C285000D8042
:0F179E00DCC28700D28500C28600D28600AF066B
:0117AD002219
:101C4000E4FD7F8E1210FE9000261210537D017F5E
:041C50008E0210FEF2
:101C5400E4FD7F8E1210FE90001F1210537D017F51
:041C64008E0210FEDE
:10145A007F8C12174EEFC4540F75F00AA4FEEF5496
:10146A000F2E90001FF07F8812174EEFC4540F758D
:10147A00F00AA4FEEF540F2EA3F07F8A12174EEF44
:10148A00C4540F75F00AA4FEEF540F2EA3F07F8602
:10149A0012174EEFC4540F75F00AA4FEEF540F2E24
:1014AA00A3F07F8412174EEFC4540F75F00AA4FEFE
:1014BA00EF540F2EA3F07F8212174EEFC4540F750C
:1014CA00F00AA4FEEF540F2EA3F07F8012174EEFFE
:0E14DA00C4540F75F00AA4FEEF540F2EA3F0B9
:0114E80022E1
:031CD300C28122A9
:031CD600D2812296
:101BF800C2817F647E007D007C00121BDCD2817F65
:0A1C0800647E007D007C00021BDCFE
:031CD900C28022A4
:031CDC00D2802291
:101C1200C2807F647E007D007C00121BDCD2807F4C
:0A1C2200647E007D007C00021BDCE4
:101BAC004200650000420069000041006B004200E9
:031BBC006700D2ED
:0519390090007FEFF0BB
:10193E00E4A3F0900080E0C3940874809480502358
:10194E00C29390007FE01392937F3C7E007D007CDB
:10195E0000121C68D29390007FE0C313F0A3E00442
:0E196E00F080D07F3C7E007D007C00021C6873
:10197C00E4900081F0900081E0C39408748094801E
:10198C005023C293A3E0C313F0D293309304E044EA
:10199C0080F07F3C7E007D007C00121C68900081F2
:0A19AC00E004F080D0900082E0FF1C
:0119B600220E
:1019B700C200D2937F487E007D007C00121C68C263
:1019C700937FF47E017D007C00121C68D2937F3CDC
:1019D7007E007D007C00121C68A29392007F3C7EF3
:0A19E700007D007C00121C68A200C5
:0119F10022D3
:1011F4001219B77FCC1219397F441219391219B751
:101204007FCC1219397FBE12193912197C900083D0
:10121400EFF012197C900084EFF01219B79000845B
:10122400E0FE900083E0FBFDEDFF900065EEF0A38F
:10123400EFF0EE54F8705D900065E0C4F854F0C827
:1012440068FEA3E0C4540F48FF7C007D0A1208DD49
:10125400900065EEF0A3EFF0EB540FFCE41207FBF3
:10126400E4FBFA7920783F1206EBC004C005C006FF
:10127400C007900065E0FCA3E0FDE41207F6D0038C
:10128400D002D001D0001205FA12082F900065EEAA
:04129400F0A3EFF0E4
:011298002233
:1019F2003080093082063083032084267F0F7E00E8
:101A02007D007C00121BDC2080037F0122208203E8
:101A12007F02222083037F03222084037F04227F0C
:051A220000227F0022FC
:101C6800D3EF9400EE9400400A000000EF1F70F0DC
:031C78001E80EDDE
:011C7B002246
:101BDC00D3EF9400EE940040120000007D0B7CBE0D
:0B1BEC00DCFEDDFCEF1F70E81E80E552
:011BF70022CB
:1005F30002089BE86480F8E933E83360110460F093
:10060300ED33EC337009E8FCE9FDEAFEEBFF22046D
:1006130060DED3EB9FEA9EE99DE8C2E78CF0C2F768
:1006230095F0400CE8CCF8E9CDF9EACEFAEBCFFB34
:1006330012086685D0F05804700320D5B3E804701F
:10064300075002B2D50208A592D5EC0460F7E4CCBA
:10065300C0E0C398F8603B94186008400DD0E0FBFD
:1006630002087DE4FBFAC9FC8028E830E406E4C90B
:10067300FBE4CAFCE830E305E4C9CACBFCE8540751
:100683006010F8C3E913F9EA13FAEB13FBEC13FC5C
:10069300D8F130F52FC3E49CFCEF9BFFEE9AFEEDFF
:1006A30099FDD0E0FBEF4E4D4C701222DB030208A4
:1006B300A2EC2CFCEF33FFEE33FEED33FDED30E720
:1006C300EB02087DEF2BFFEE3AFEED39FDD0E0FBA8
:1006D30050130BBB00030208A5ED13FDEE13FEEF51
:0806E30013FFEC13FC02087D7B
:1006EB00EC4D6011E8497017ED33EC3304600DE409
:1006FB00FCFFFEFD22E933E8330470F802089B127D
:10070B00086658046009E4CC24815006285009027D
:10071B0008A52840030208A2C0E0EB4A7044B98048
:10072B0006D0E0FB020891EF4E701CBD8008EBFF7A
:10073B00EAFEE9FD80EBE98DF0A4FEE5F00207D4BB
:10074B00E9CDF9EAFEEBFFEF89F0A4FCE5F0CE89E9
:10075B00F0A42EFFE435F0CD89F0A42DFEE435F0A6
:10076B008067EF4E7005BD80D780C3EF8BF0A4ACD4
:10077B00F0EE8BF0A42CFCE435F0F8EF8AF0A42C0F
:10078B00E5F038FCE433CB8DF0A42CFCE5F03BF822
:10079B00EE8AF0A42CFCE5F038F8E433CF89F0A412
:1007AB002CFCE5F038CF3400CE89F0A42FFFE5F018
:1007BB003EFEE433C98DF0A42EFEE5F039CD8AF070
:1007CB00A42FFFE5F03EFEE43DFD33D0E0FB5007E8
:1007DB000BBB000F0208A5EC2CFCEF33FFEE33FE36
:0607EB00ED33FD02087D64
:1007F10075F020800E75F010800575F0087D007E83
:10080100007F003392D530D503120A61EC334010DA
:10081100EF33FFEE33FEED33FDEC33FCD5F0ED228B
:0E082100E5F0247EA2D513CC92E7CDCEFF22C7
:10082F00EDD2E7CD33EC3392D524814006E4FFFEC1
:10083F00FDFC22FCE4CFCECDCC24E0501174FF8020
:10084F00EDC3CC13CCCD13CDCE13CECF13CF0470BD
:07085F00F030D5DE020A6152
:10086600E9D2E7C933E833F892D5EDD2E7CD33ECD8
:0708760033FC5002B2D52251
:10087D00EC30E7100FBF000C0EBE00080DBD0004DC
:10088D000BEB6014A2D5EB13FCED92E7FD2274FF88
:10089D00FCFDFEFF22E480F8A2D574FF13FC7D80E1
:0308AD00E480EFF5
:1014F500020F52E493A3F8E493A34003F68001F2AC
:1015050008DFF48029E493A3F85407240CC8C333F7
:10151500C4540F4420C8834004F456800146F6DFC6
:10152500E4800B0102040810204080901BA2E47E99
:10153500019360BCA3FF543F30E509541FFEE493BB
:10154500A360010ECF54C025E060A840B8E493A382
:10155500FAE493A3F8E493A3C8C582C8CAC583CAAD
:10156500F0A3C8C582C8CAC583CADFE9DEE780BE65
:011BBF000025
:1008B000BB010CE58229F582E5833AF583E02250FD
:1008C00006E92582F8E622BBFE06E92582F8E22247
:0D08D000E58229F582E5833AF583E4932261
:1008DD00EF8DF0A4A8F0CF8CF0A428CE8DF0A42E2F
:0208ED00FE22E9
:1008EF00BC000BBE0029EF8DF084FFADF022E4CCED
:1008FF00F875F008EF2FFFEE33FEEC33FCEE9DECB6
:10090F00984005FCEE9DFE0FD5F0E9E4CEFD22EDFB
:10091F00F8F5F0EE8420D21CFEADF075F008EF2F45
:10092F00FFED33FD4007985006D5F0F222C398FD36
:05093F000FD5F0EA22D3
:10094400E88FF0A4CC8BF0A42CFCE98EF0A42CFC52
:100954008AF0EDA42CFCEA8EF0A4CDA8F08BF0A4D0
:100964002DCC3825F0FDE98FF0A42CCD35F0FCEB2F
:100974008EF0A4FEA9F0EB8FF0A4CFC5F02ECD39F4
:0F098400FEE43CFCEAA42DCE35F0FDE43CFC2261
:1009930075F008758200EF2FFFEE33FECD33CDCC1B
:1009A30033CCC58233C5829BED9AEC99E58298409E
:1009B3000CF582EE9BFEED9AFDEC99FC0FD5F0D67B
:1009C300E4CEFBE4CDFAE4CCF9A88222B800C1B9A5
:1009D3000059BA002DEC8BF084CFCECDFCE5F0CBE3
:1009E300F97818EF2FFFEE33FEED33FDEC33FCEB1C
:1009F30033FB10D703994004EB99FB0FD8E5E4F9D7
:100A0300FA227818EF2FFFEE33FEED33FDEC33FCC3
:100A1300C933C910D7059BE99A4007EC9BFCE99AB7
:100A2300F90FD8E0E4C9FAE4CCFB2275F010EF2FFC
:100A3300FFEE33FEED33FDCC33CCC833C810D707FC
:100A43009BEC9AE899400AED9BFDEC9AFCE899F837
:0E0A53000FD5F0DAE4CDFBE4CCFAE4C8F922CA
:0E0A6100C3E49FFFE49EFEE49DFDE49CFC22A6
:100A6F00EB9FF5F0EA9E42F0E99D42F0E89C45F0DD
:010A7F002254
:100A80007401FF3395E0FEFDFCA3A3A3E0CF2FF09C
:100A9000E582158270021583E0CE3EF0E582158274
:100AA00070021583E0CD3DF0E5821582700215835A
:050AB000E0CC3CF02247
:0C0AB500ECF0A3EDF0A3EEF0A3EFF022B4
:100AC100A8828583F0D083D082120AD8120AD81264
:100AD1000AD8120AD8E473E493A3C583C5F0C58389
:100AE100C8C582C8F0A3C583C5F0C583C8C582C87F
:010AF10022E2
:00000001FF
