:03000000020607EE
:0C060700787FE4F6D8FD75810702064EEE
:0808000041002000410023002B
:10076100120577120006900004E0FF75F00A8490EC
:10077100001EF0EF75F00A84A3E5F0F0900006E0AA
:10078100FF75F00A84900021F0EF75F00A84A3E56B
:03079100F0F02263
:07080900D288D2A8D2AF2271
:030003000206935F
:10069300C0E0C0F0C083C082C0D075D000C000C02D
:1006A30001C002C003C004C005C006C007900020FB
:1006B300E004F0E05401F0900023E4F07F0AFEFD33
:1006C300FC1207BBD007D006D005D004D003D0025C
:0F06D300D001D000D0D0D082D083D0F0D0E03290
:10032F00E4900017F0A312054600000000120761C9
:10033F00120809900018E0FCA3E0FDA3E0FEA3E083
:10034F002401FFE43EFEE43DFDE43CFC9000181266
:10035F00053A900023E004F0E0FF7E00BE0D0FBFD2
:10036F00AC0CE4F0900020E004F0E05401F0E47FE6
:10037F00587E02FDFC900018E0F8A3E0F9A3E0FA24
:10038F00A3E0FBC3120529700D120761900018122C
:10039F00054600000000900020E0703AA3E0FD7FCA
:1003AF00021207287F017E007D007C001207BB90A0
:1003BF000022E0FD7F031207287F017E007D007C75
:1003CF00001207BB7D107F041207287F017E007D7E
:1003DF00007C001207BB900020E064016003020361
:1003EF004290001EE0FD7F021207287F017E007DF4
:1003FF00007C001207BB90001FE0FD7F031207284F
:10040F007F017E007D007C001207BB7D0C7F0412F4
:10041F0007287F017E007D007C001207BB0203428C
:10079400D2947F0A7E007D007C001207ECC2947F15
:1007A400147E007D007C001207BBD2947F207E0063
:0707B4007D007C000207EC50
:1006E200E490001CF03094FD7F207E007D007C00B1
:1006F2001207ECE490001DF030940204F02094FD07
:10070200900003E025E0FFF090001DE04F90000311
:10071200F090001CE004F0E0C3940840C89000038D
:02072200E0FFF6
:0107240022B2
:10057700120794D2947F017E007D007C001207EC65
:1005870020947C3094FD2094FD1206E290000AEF3F
:10059700F01206E290000BEFF01206E290000EEF69
:1005A700F01206E2900000EFF01206E2900001EF71
:1005B700F0C2947F387E007D007C001207ECD29455
:1005C70090000BE0FF90000AE0FE2FFD90000EE088
:1005D700FC2DFD900000E0FB2DFD900008F0900041
:1005E70001E0B5051AA3EEF0900007EFF0900005C3
:1005F700ECF090000CEBF0900008E0900001F02286
:10000600E490001CF0A3F0FB900002E0F954017CA0
:1000160000FDEBB4080040030200B7900028F82862
:1000260028730200AB0200960200870200790200E4
:100036006A02005C02004E020040EDAE047807C37F
:1000460033CE33CED8F98045EDAE047806C333CE31
:1000560033CED8F98037EDAE047805C333CE33CE30
:10006600D8F98029EDC4F8540FC868FFECC454F0E1
:10007600488023EDAE047803C333CE33CED8F9805F
:100086000CEDAE047802C333CE33CED8F9FF800729
:10009600ED25E0FFEC33FE90001DE02FF090001CF4
:1000A600E03EF0800C90001DE02DF090001CE03C3E
:1000B600F0E9C313900002F00BEB64086003020042
:1000C6000E90001CA3E0900004F0E490001CF0A346
:1000D600F0FB900005E0F954017C00FDEBB408004C
:1000E60040030201819000F2F8282873020175028C
:1000F600016002015102014302013402012602019C
:100106001802010AEDAE047807C333CE33CED8F910
:100116008045EDAE047806C333CE33CED8F98037AA
:10012600EDAE047805C333CE33CED8F98029EDC4BD
:10013600F8540FC868FFECC454F0488023EDAE04B1
:100146007803C333CE33CED8F9800CEDAE047802F3
:10015600C333CE33CED8F9FF8007ED25E0FFEC336D
:10016600FE90001DE02FF090001CE03EF0800C9009
:10017600001DE02DF090001CE03CF0E9C313900058
:1001860005F00BEB640860030200D890001CA3E0A6
:10019600900006F0E490001CF0A3F0FB90000CE049
:1001A600F954017C00FDEBB40800400302024B90B9
:1001B60001BCF828287302023F02022A02021B022F
:1001C600020D0201FE0201F00201E20201D4EDAECF
:1001D600047807C333CE33CED8F98045EDAE047824
:1001E60006C333CE33CED8F98037EDAE047805C3D7
:1001F60033CE33CED8F98029EDC4F8540FC868FF42
:10020600ECC454F0488023EDAE047803C333CE33F8
:10021600CED8F9800CEDAE047802C333CE33CED8F7
:10022600F9FF8007ED25E0FFEC33FE90001DE02F7F
:10023600F090001CE03EF0800C90001DE02DF09048
:10024600001CE03CF0E9C31390000CF00BEB6408D3
:1002560060030201A290001CA3E090000DF0E49060
:10026600001CF0A3F0FB900007E0F954017C00FDB0
:10027600EBB408004003020315900286F8282873A1
:100286000203090202F40202E50202D70202C802D0
:1002960002BA0202AC02029EEDAE047807C333CE68
:1002A60033CED8F98045EDAE047806C333CE33CECF
:1002B600D8F98037EDAE047805C333CE33CED8F9FE
:1002C6008029EDC4F8540FC868FFECC454F0488088
:1002D60023EDAE047803C333CE33CED8F9800CEDCC
:1002E600AE047802C333CE33CED8F9FF8007ED25AE
:1002F600E0FFEC33FE90001DE02FF090001CE03E86
:10030600F0800C90001DE02DF090001CE03CF0E920
:10031600C313900007F00BEB6408600302026C90B5
:08032600001CA3E0900009F0A7
:01032E0022AC
:1007D7003F065B4F666D7D077F6F777C395E79716A
:0507E700763854733E5A
:03072500A3E0FD51
:10072800EFB40108C293D292D291D290EFB40208EA
:10073800D293C292D291D290EFB40308D293D292BC
:10074800C291D290EFB40408D293D292D291C290BF
:09075800ED9007D793F4F580221F
:04042F00AB07AA0667
:100433007C037DE81204D490000FEEF0A3EFF07C70
:10044300007D64AF03AE021204D47C007D0A120463
:10045300D4A3ECF0A3EDF07C007D0AAF03AE02124F
:1004630004D47C007D0A1204D4A3ECF0A3EDF0AE17
:1004730002AF037C007D0A1204D4A3ECF0A3EDF0D9
:1004830090000F7F011207257F057E007D007C0011
:100493001207BB9000117F021207257F057E007DA6
:1004A300007C001207BB900013A3E0FD7F0312073B
:1004B300287F057E007D007C001207BB900015A3FA
:1004C300E0FD7F041207280F7E007D007C000207F9
:0104D300BB6D
:1007EC00D3EF9400EE9400400A000000EF1F70F06D
:0307FC001E80ED6F
:0107FF0022D7
:1007BB00D3EF9400EE940040120000007D0B7CBE42
:0B07CB00DCFEDDFCEF1F70E81E80E587
:0107D6002200
:1006130002032FE493A3F8E493A34003F68001F2CB
:1006230008DFF48029E493A3F85407240CC8C333E8
:10063300C4540F4420C8834004F456800146F6DFB7
:10064300E4800B0102040810204080900800E47E3F
:10065300019360BCA3FF543F30E509541FFEE493AC
:10066300A360010ECF54C025E060A840B8E493A373
:10067300FAE493A3F8E493A3C8C582C8CAC583CA9E
:10068300F0A3C8C582C8CAC583CADFE9DEE780BE56
:0108080000EF
:1004D400BC000BBE0029EF8DF084FFADF022E4CC0C
:1004E400F875F008EF2FFFEE33FEEC33FCEE9DECD5
:1004F400984005FCEE9DFE0FD5F0E9E4CEFD22ED1B
:10050400F8F5F0EE8420D21CFEADF075F008EF2F64
:10051400FFED33FD4007985006D5F0F222C398FD55
:050524000FD5F0EA22F2
:10052900EB9FF5F0EA9E42F0E99D42F0E89C45F028
:01053900229F
:0C053A00ECF0A3EDF0A3EEF0A3EFF02234
:10054600A8828583F0D083D08212055D12055D12E4
:10055600055D12055DE473E493A3C583C5F0C58309
:10056600C8C582C8F0A3C583C5F0C583C8C582C8FF
:010576002262
:00000001FF
