:03000000020D8F5F
:0C0D8F00787FE4F6D8FD758167020DAB9B
:050DAB0012079C80FE10
:100D5D00759D0143972075BCC07F057E007D007C8D
:040D6D0000020A98DE
:100D2B0043BC08E5BC5410641070F8AFBDADBEEF0A
:0B0D3B00FEEDFFE453BCEFF5BDF5BE7C
:010D4600228A
:1000030000000000000000000000000000000000ED
:10001300000000F800000000000000333000000082
:1000230000100C06100C0600000000000000000089
:1000330040C07840C0784000043F04043F040400FB
:10004300007088FC08300000001820FF211E00000B
:10005300F008F000E018000000211C031E211E0020
:1000630000F00888700000001E21232419272110A6
:1000730010160E0000000000000000000000000049
:10008300000000E0180402000000000718204000F0
:1000930000020418E00000000040201807000000E0
:1000A300404080F0804040000202010F0102020044
:1000B300000000F0000000000101011F0101010028
:1000C300000000000000000080B07000000000008D
:1000D3000000000000000000000101010101010116
:1000E30000000000000000000030300000000000AD
:1000F3000000000080601804006018060100000082
:1001030000E010080810E000000F102020100F007E
:10011300001010F8000000000020203F2020000005
:10012300007008080888700000302824222130005D
:1001330000300888884830000018202020110E0065
:100143000000C02010F8000000070424243F24000E
:1001530000F80888880808000019212020110E00E3
:1001630000E0108888180000000F112020110E00F5
:1001730000380808C83808000000003F00000000ED
:100183000070880808887000001C222121221C00AE
:1001930000E010080810E0000000312222110F00D7
:1001A300000000C0C000000000000030300000006C
:1001B30000000080000000000000806000000000DC
:1001C30000008040201008000001020408102000F5
:1001D3004040404040404000040404040404040040
:1001E30000081020408000000020100804020100D5
:1001F300007048080808F0000000003036010000D5
:10020300C030C828E810E0000718272423140B0087
:100213000000C038E0000000203C23020227382001
:1002230008F8888888700000203F202020110E00E5
:10023300C0300808080838000718202020100800DC
:1002430008F808080810E000203F202020100F00C5
:1002530008F88888E8081000203F20202320180091
:1002630008F88888E8081000203F200003000000F9
:10027300C03008080838000007182020221E02009A
:1002830008F808000008F808203F210101213F2059
:10029300000808F8080800000020203F2020000084
:1002A30000000808F8080800C08080807F00000074
:1002B30008F888C028180800203F200126382000AD
:1002C30008F8080000000000203F20202020300014
:1002D30008F8F800F8F80800203F003F003F20002E
:1002E30008F830C00008F808203F200007183F0036
:1002F300E01008080810E0000F10202020100F0065
:1003030008F808080808F000203F21010101000057
:10031300E01008080810E0000F18242438504F009C
:1003230008F8888888887000203F2000030C30205C
:1003330000708808080838000038202121221C009A
:10034300180808F8080818000000203F20000000E3
:1003530008F808000008F808001F202020201F00CC
:100363000878880000C83808000007380E0100002C
:10037300F80800F80008F800033C0700073C0300F6
:10038300081868808068180820302C03032C30205C
:100393000838C800C83808000000203F20000000CB
:1003A30010080808C8380800203826212020180023
:1003B300000000FE020202000000007F40404000F7
:1003C300000C30C000000000000000010638C0002F
:1003D30000020202FE000000004040407F000000D7
:1003E30000000402020204000000000000000000FC
:1003F30000000000000000008080808080808080FA
:1004030000020204000000000000000000000000E1
:1004130000008080808000000019242222223F20D7
:1004230008F8008080000000003F112020110E001A
:100433000000008080800000000E112020201100A9
:10044300000000808088F800000E112020103F205B
:100453000000808080800000001F222222221300DF
:10046300008080F0888888180020203F202000002A
:100473000000808080808000006B949494936000DF
:1004830008F8008080800000203F210000203F20EA
:1004930000809898000000000020203F20200000EA
:1004A300000000809898000000C08080807F0000DA
:1004B30008F8000080808000203F24022D302000B7
:1004C300000808F8000000000020203F2020000062
:1004D3008080808080808000203F20003F20003F7C
:1004E3008080008080800000203F210000203F208A
:1004F3000000808080800000001F202020201F003B
:10050300808000808000000080FFA12020110E0069
:100513000000008080808000000E112020A0FF805A
:10052300808080008080800020203F212000010007
:10053300000080808080800000332424242419005C
:10054300008080E0808000000000001F2020000069
:100553008080000000808000001F202020103F20AA
:10056300808080000080808000010E30080601003A
:1005730080800080008080800F300C030C300F00DF
:1005830000808000808080000020312E0E3120000A
:10059300808080000080808080818E70180601003A
:1005A30000808080808080000021302C2221300058
:1005B30000000000807C020200000000003F404079
:1005C30000000000FF00000000000000FF0000002A
:1005D3000002027C800000000040403F0000000059
:1005E30000060101020204040000000000000000F4
:090D9B00D280D281C281C2812202
:070DA400C281D280D281223E
:0B0D7100120C3F120D7CAF04120C3F6F
:050D7C00D280C28022BC
:070C3800AC07120D9B7F7851
:100C3F00C280E4FEEEC3940874809480501BAD070D
:100C4F00530580ED64807004D2818002C281EF254C
:090C5F00E0FFD280C2800E80DBB0
:010C68002269
:0E0D8100120C38120D7CE4FF120D71020DA44D
:100D0D003EF583E5822BF582E43583F583E493FF8D
:0E0D1D00120C38120D7C7F40120D71020DA4D5
:080CE900FFE91475F008A4FDF9
:100CF100AB05EF44B0FF120D81EB54F0C4540F4427
:0C0D010010FF120D81EB540FFF020D815A
:100C9700E4FAEAC3940874809480501EAF02E4FD1E
:100CA700120CF1E4FBEBC39480748094805008E449
:0A0CB700FF120D1D0B80EE0A80D81D
:010CC1002210
:0609B9008F67AA03A905E7
:1009BF00E5671425E0120CE9E4FBEBC3940874809F
:1009CF0094805021EAFF3395E0FEEFC4F8540FC82E
:1009DF0068FFEEC454F048FE74032FF58274FE12C4
:1009EF000D0D0B80D5E56725E014120CE9E4FBEB48
:1009FF00C39408748094805021EAFF3395E0FEEF92
:100A0F00C4F8540FC868FFEEC454F048FE740B2F9F
:0A0A1F00F58274FE120D0D0B80D558
:010A290022AA
:0A0C69008F5B8D5C8B5D8A5E895FF6
:100C7300E4F560AB5DAA5EA95F85608275830012AF
:100C830005F3FB600EE55C2560FDAF5B1209B9055A
:030C93006080E09E
:010C9600223B
:100B0500FFE49400CF24FFCF34FFFE3395E08F0F31
:0E0B15008E0EF50DF50C7F0A7E007D007C0033
:080B23008F0B8E0A8D098C086E
:100B2B00E4751301F512F511F510780C74FF12072B
:100B3B005EEC4D4E4F601DAF13AE12AD11AC10AB52
:100B4B000BAA0AA909A8081206208F138E128D1161
:0C0B5B008C1080D6AF13AE12AD11AC10A0
:010B6700226B
:040BC0008F3B8D3C9E
:100BC400E4F542E542C395415036C3E541954212EE
:100BD4000B05A804A905AA06AB07AF40AE3FAD3E7E
:100BE400AC3D1206ABE47B0AFAF9F81206ABEB242F
:100BF40030FBE53C2542FDAF3B1209B9054280C3F9
:010C040022CD
:04092D008F148D1581
:10093100E4FFFEFDFCAB19AA18A917A816C31207FC
:100941004B40177B2BAD15AF141209B985191F85C3
:10095100181E85171D85161C801C7B2DAD15AF1427
:100961001209B9AF19AE18AD17AC1612073D8F1F9A
:100971008E1E8D1D8C1CE4F51BE51BC3951A50378B
:10098100C3E51A951B120B05A804A905AA06AB0716
:10099100AF1FAE1EAD1DAC1C1206ABE47B0AFAF90B
:1009A100F81206ABEB2430FBE515251B04FDAF1453
:0709B1001209B9051B80C209
:0109B800221C
:040A2A008F208D216B
:100A2E00E4F527E527C39526505FC3E5269527FFF6
:100A3E00E49400CF24FFCF34FFFE3395E08F0F8E6A
:100A4E000EF50DF50C7F10120B1DA804A905AA06B4
:100A5E00AB07AF25AE24AD23AC221206ABEF540F7D
:100A6E00FF8F28C3EF940A74809480E521500925E6
:100A7E0027FDE528243080072527FDE5282437FBB0
:090A8E00AF201209B90527809A76
:010A9700223C
:040B68008F438D44E6
:100B6C00E4F54AE54AC395495049C3E549954AFF1E
:100B7C00E49400CF24FFCF34FFFE3395E08F0F8E2B
:100B8C000EF50DF50C7F02120B1DA804A905AA0683
:100B9C00AB07AF48AE47AD46AC451206ABEF5401C0
:100BAC00FFEF2430FBE544254AFDAF431209B9059C
:030BBC004A80B0BC
:010BBF002213
:10079C00E4F556F555F554F553E47FE87E03FDFC7E
:1007AC00AB56AA55A954A853C312074B504CE4F5A9
:1007BC005AF559F558F557E47FE87E03FDFCAB5A22
:1007CC00AA59A958A857C312074B5017E55A240128
:1007DC00F55AE43559F559E43558F558E43557F5DB
:1007EC005780D4E5562401F556E43555F555E435D6
:1007FC0054F554E43553F553809F7FAE120D81E4CC
:10080C00FF120D817F10120D817F40120D817FB080
:10081C00120D817F81120D817FFF120D817FA1123C
:10082C000D817FA6120D817FA8120D817F3F120DC5
:10083C00817FC8120D817FD3120D81E4FF120D81CF
:10084C007FD5120D817F80120D817FD8120D817F93
:10085C0005120D817FD9120D817FF1120D817FDA86
:10086C00120D817F12120D817FDB120D817F3012F0
:10087C000D817F8D120D817F14120D817FAF120DB2
:04088C0081020C9742
:100CC200D2967F027E007D007C00120D47C2967F85
:100CD2001E7E007D007C00120A98D2967F1E7E0046
:070CE2007D007C00020D47BC
:100C0500E4F566F565C3E565940874809480502025
:100C15003096FD7F087E007D007C00120D47E5665D
:100C250025E0F56630960205662096FD056580D5BA
:020C3500AF66A8
:010C3700229A
:10089000120CC230960302092C3096FD7F287E0090
:1008A0007D007C00120D47120C058F29120C058F5C
:1008B0002A120C058F2B120C058F2C120C058F3170
:1008C0007F197E007D007C00120D47E529252AFF57
:1008D000E433FE7C00EF252BFFEC3EFEEF252CFFE2
:1008E000EC3EFEEFB53110ECB5060C85292D852ABE
:1008F0002E852B2F852C30E52D75F00A842430F5BC
:1009000032E52D75F00A84E5F02430F53375342096
:10091000753520E52F75F00A842430F536E52F75FE
:0C092000F00A84E5F02430F5377538202B
:01092C0022A8
:100D47008F648E638D628C61786174FF12077EEC0D
:060D57004D4E4F70F32227
:100A98008F4E8E4D8D4C8C4BE4FFFEFDFCAB4EAA69
:100AA8004DA94CA84BD312074B4051E475526EF533
:100AB80051F550F54FE4FFFEFDFCAB52AA51A95089
:100AC800A84FD312074B401AE55224FFF552E551BF
:100AD80034FFF551E55034FFF550E54F34FFF54F3D
:100AE80080D3E54E24FFF54EE54D34FFF54DE54C3A
:0C0AF80034FFF54CE54B34FFF54B809CBF
:010B040022CE
:1005F300BB010CE58229F582E5833AF583E02250BD
:1006030006E92582F8E622BBFE06E92582F8E22206
:0D061300E58229F582E5833AF583E4932220
:10062000E88FF0A4CC8BF0A42CFCE98EF0A42CFC79
:100630008AF0EDA42CFCEA8EF0A4CDA8F08BF0A4F7
:100640002DCC3825F0FDE98FF0A42CCD35F0FCEB56
:100650008EF0A4FEA9F0EB8FF0A4CFC5F02ECD391B
:0F066000FEE43CFCEAA42DCE35F0FDE43CFC2288
:10066F0075F008758200EF2FFFEE33FECD33CDCC42
:10067F0033CCC58233C5829BED9AEC99E5829840C5
:10068F000CF582EE9BFEED9AFDEC99FC0FD5F0D6A2
:10069F00E4CEFBE4CDFAE4CCF9A88222B800C1B9CC
:1006AF000059BA002DEC8BF084CFCECDFCE5F0CB0A
:1006BF00F97818EF2FFFEE33FEED33FDEC33FCEB43
:1006CF0033FB10D703994004EB99FB0FD8E5E4F9FE
:1006DF00FA227818EF2FFFEE33FEED33FDEC33FCEB
:1006EF00C933C910D7059BE99A4007EC9BFCE99ADF
:1006FF00F90FD8E0E4C9FAE4CCFB2275F010EF2F24
:10070F00FFEE33FEED33FDCC33CCC833C810D70723
:10071F009BEC9AE899400AED9BFDEC9AFCE899F85E
:0E072F000FD5F0DAE4CDFBE4CCFAE4C8F922F1
:0E073D00C3E49FFFE49EFEE49DFDE49CFC22CD
:10074B00EB9FF5F0EA9E42F0E99D42F0E89C45F004
:01075B00227B
:10075C007401FF3395E0FEFDFC080808E6CF2FF688
:10076C0018E6CE3EF618E6CD3DF618E6CC3CF62261
:10077C007401FF3395E0FEFDFC080808E62FFFF638
:10078C0018E63EFEF618E63DFDF618E63CFCF622B1
:00000001FF
