:030000000203BF39
:0C03BF00787FE4F6D8FD7581070200038A
:0D03B200E4F5C7F5C5F5C675C380F5C42296
:1003320075C78275C50175C6A58FC4EEF5C375C6AE
:070342005A00AFC20203B232
:0702D6007E02120377E0FD38
:1002DD0075C78275C5028FC4EEF5C3AF058FC275A4
:0902ED00C65A75C6A5000203B251
:1003770075C78275C5038FC4EEF5C375C65A75C6B2
:05038700A5000203B215
:100349002080117F0F7E007D007C00120316208023
:07035900037F01227F002257
:100360002081117F147E007D007C00120316208105
:07037000037F01227F002240
:100003007F007E0212033290000CEFF0E0FBFF7ED4
:10001300007C037DE81201C9900007EFF0EB75F057
:10002300648475F00A84AEF0A3EEF0FD90000CE05A
:10003300FE75F00A8475F00A84ACF0900009ECF0C8
:10004300FBEE75F00A84AEF0A3EEF0900003F0E44B
:10005300A3F01200D3120349EF6401700890000B60
:10006300F0FF1202D6120360EF6401700B90000BD5
:10007300E004F07F001202D67F007E02120332906A
:10008300000CEFF0E0FBFF7E007C037DE81201C96A
:10009300900007EFF0EB75F0648475F00A84AEF01E
:1000A300A3EEF0FD90000CE0FE75F00A8475F00AF3
:1000B30084ACF0900009ECF0FBEE75F00A84AEF02E
:1000C300A3EEF0900003F0E4A3F01200D302005873
:1002F6003F065B4F666D7D077F6F777C395E797150
:10030600763854733E00BF86DBCFE6EDFD87FFEF00
:1003A000D295D2947F027E007D007C0012038CC225
:0203B000942295
:1002A400C2957F057E007D007C0012038C30941281
:1002B400900005E0C394FA748094805005E004F043
:1002C40080EBD2957F027E007D007C0012038CC2FD
:0102D4009594
:0102D5002206
:10027000C2957F027E007D007C0012038CC2947FB9
:10028000027E007D007C0012038CD2957F027E00EE
:100290007D007C0012038CD2947F027E007D007C66
:0402A0000002038CC9
:06021E00E09002F693FFE0
:05022400900005EFF061
:10022900E4A3F0900006E0C39408748094805036EB
:10023900C295900005E030E004D2948002C2947F18
:10024900037E007D007C0012038C900005E0C3133F
:10025900F0D2957F037E007D007C0012038C900014
:0602690006E004F080BD78
:01026F00226C
:1000D300900000EFF0A3EDF0A3EBF01203A07F403C
:1000E3001202241202A41202701203A07FC0120291
:1000F300241202A490000012021E1202A490000413
:10010300E0700690000112021E900004E0FF6401FB
:100113007015EFC43333335480FF900001E0900235
:10012300F6934FFF120224900004E06402700C90D7
:100133000001E090030C93FF1202241202A490002A
:100143000212021E1202A490000312021E1202A443
:100153001202701203A07F891202241202A4020267
:01016300702B
:04016400AB07AA0635
:100168007C037DE81201C990000FEFF07C007D64EC
:10017800AF03AE021201C97C007D0A1201C99000CA
:100188000EEDF07C007D0AAF03AE021201C97C00BF
:100198007D0A1201C990000DEDF0AE02AF037C009C
:1001A8007D0A1201C9AE0590000FE0FF90000EE035
:1001B800FD90000DE0FB900003EEF0E4A3F00200D8
:0101C800D363
:10038C00D3EF9400EE9400400A000000EF1F70F0D1
:03039C001E80EDD3
:01039F00223B
:10031600D3EF9400EE940040120000007D0B7CBEEB
:0B032600DCFEDDFCEF1F70E81E80E530
:0103310022A9
:1001C900BC000BBE0029EF8DF084FFADF022E4CC1A
:1001D900F875F008EF2FFFEE33FEEC33FCEE9DECE3
:1001E900984005FCEE9DFE0FD5F0E9E4CEFD22ED29
:1001F900F8F5F0EE8420D21CFEADF075F008EF2F73
:10020900FFED33FD4007985006D5F0F222C398FD63
:050219000FD5F0EA2200
:00000001FF
