:0300000002046394
:0C046300787FE4F6D8FD758107020136B1
:0D045600E4F5C7F5C5F5C675C380F5C422F1
:1003C00075C78275C50175C6A58FC4EEF5C375C620
:0703D0005A00AFC2120456EF
:0103D7002203
:070364007E02120406E0FD19
:10036B0075C78275C5028FC4EEF5C3AF058FC27515
:09037B00C65A75C6A5000204561D
:1004060075C78275C5038FC4EEF5C375C65A75C622
:05041600A500020456E0
:1003D8002095117F0F7E007D007C001203A42095DC
:0703E800037F01227F0022C8
:1003EF002094117F147E007D007C001203A42094C2
:0703FF00037F01227F0022B1
:100136007F007E021203C090000DEFF0FB7C037D72
:10014600E87E00120228900008EFF090000DE0FF14
:1001560075F0648475F00A84900009E5F0F0EF7597
:10016600F00A8475F00A84A3E5F0F090000DE075BE
:10017600F00A8490000BE5F0F0AF037E0012000356
:1001860090000DE0FF7E001200031203D8BF0109A4
:10019600E490000CF0FF1203641203EFBF010B9012
:1001A600000CE004F07F001203647F007E0212035D
:0D01B600C090000DEFF07E0012000380C32A
:100384003F065B4F666D7D077F6F777C395E7971C1
:10039400763854733E00BF86DBCFE6EDFD87FFEF72
:10044400D295D2947F027E007D007C00120430C2DB
:020454009422F0
:10033600C2957F057E007D007C0012043030940E4D
:10034600900018E0C394FA5005E004F080EFD295CF
:0D0356007F027E007D007C00120430C29505
:010363002277
:10030200C2957F027E007D007C00120430C2947F81
:10031200027E007D007C00120430D2957F027E00B6
:100322007D007C00120430D2947F027E007D007C2E
:040332000002043091
:06027D00E090038493FFF2
:05028300900016EFF0F1
:10028800E4A3F0C295900016E030E004D294800216
:10029800C2947F037E007D007C001204309000161B
:1002A800E0C313F0D2957F037E007D007C0012042A
:0D02B80030900017E004F0E0C3940840C649
:0102C5002216
:1000A80090000EEFF0A3EDF0A3EBF01204447F40B4
:1000B8001202831203361203021204447FC0120292
:1000C8008312033690000E12027D1203369000123E
:1000D800E0700690000F12027D900012E0FFB4015C
:1000E80014C43333335480FF90000FE0900384939B
:1000F8004FFF120283900012E0B4020C90000FE050
:1001080090039A93FF120283120336900010120292
:100118007D12033690001112027D1203361203027B
:0E0128001204447F891202831203360203027E
:0401C300AB07AA06D6
:1001C7007C037DE8120228900015EFF07C007D6427
:1001D700AF03AE021202287C007D0A1202289000AB
:1001E70014EDF07C007D0AAF03AE021202287C00FA
:1001F7007D0A120228900013EDF0AE02AF037C00D7
:100207007D0A120228AE05900015E0FF900014E069
:10021700FD900013E0FB900011EEF0E4A3F0020064
:01022700A82E
:10041B003F065B4F666D7D077F6F777C395E797129
:05042B00763854733E19
:0302C600A3E0FDB5
:1002C900EFB40108C290D291D292D293EFB402084E
:1002D900D290C291D292D293EFB40308D290D29124
:1002E900C292D293EFB40408D290D291D292C2931F
:0902F900ED90041B93F4F5802242
:04000300AB07AA0697
:100007007C037DE8120228900000EEF0A3EFF07C5D
:10001700007D64AF03AE021202287C007D0A120243
:1000270028A3ECF0A3EDF07C007D0AAF03AE02122B
:1000370002287C007D0A120228A3ECF0A3EDF0AEA3
:1000470002AF037C007D0A120228A3ECF0A3EDF0B7
:100057009000007F011202C67F057E007D007C00B4
:100067001203A49000027F021202C67F057E007D64
:10007700007C001203A4900004A3E0FD7F0312029A
:10008700C97F057E007D007C001203A4900006A3B3
:10009700E0FD7F041202C90F7E007D007C00020391
:0100A700A4B4
:10043000D3EF9400EE9400400A000000EF1F70F02C
:030440001E80ED2E
:010443002296
:1003A400D3EF9400EE940040120000007D0B7CBE5D
:0B03B400DCFEDDFCEF1F70E81E80E5A2
:0103BF00221B
:10022800BC000BBE0029EF8DF084FFADF022E4CCBA
:10023800F875F008EF2FFFEE33FEEC33FCEE9DEC83
:10024800984005FCEE9DFE0FD5F0E9E4CEFD22EDC9
:10025800F8F5F0EE8420D21CFEADF075F008EF2F13
:10026800FFED33FD4007985006D5F0F222C398FD04
:050278000FD5F0EA22A1
:00000001FF
