:03000000020A36BB
:0C0A3600787FE4F6D8FD75812A020A08DA
:100A08001205F3751406E4FBFA7D017F010208B1B3
:1000030000000000000000000000000000000000ED
:10001300000000F800000000000000333000000082
:1000230000100C06100C0600000000000000000089
:1000330040C07840C0784000043F04043F040400FB
:10004300007088FC08300000001820FF211E00000B
:10005300F008F000E018000000211C031E211E0020
:1000630000F00888700000001E21232419272110A6
:1000730010160E0000000000000000000000000049
:10008300000000E0180402000000000718204000F0
:1000930000020418E00000000040201807000000E0
:1000A300404080F0804040000202010F0102020044
:1000B300000000F0000000000101011F0101010028
:1000C300000000000000000080B07000000000008D
:1000D3000000000000000000000101010101010116
:1000E30000000000000000000030300000000000AD
:1000F3000000000080601804006018060100000082
:1001030000E010080810E000000F102020100F007E
:10011300001010F8000000000020203F2020000005
:10012300007008080888700000302824222130005D
:1001330000300888884830000018202020110E0065
:100143000000C02010F8000000070424243F24000E
:1001530000F80888880808000019212020110E00E3
:1001630000E0108888180000000F112020110E00F5
:1001730000380808C83808000000003F00000000ED
:100183000070880808887000001C222121221C00AE
:1001930000E010080810E0000000312222110F00D7
:1001A300000000C0C000000000000030300000006C
:1001B30000000080000000000000806000000000DC
:1001C30000008040201008000001020408102000F5
:1001D3004040404040404000040404040404040040
:1001E30000081020408000000020100804020100D5
:1001F300007048080808F0000000003036010000D5
:10020300C030C828E810E0000718272423140B0087
:100213000000C038E0000000203C23020227382001
:1002230008F8888888700000203F202020110E00E5
:10023300C0300808080838000718202020100800DC
:1002430008F808080810E000203F202020100F00C5
:1002530008F88888E8081000203F20202320180091
:1002630008F88888E8081000203F200003000000F9
:10027300C03008080838000007182020221E02009A
:1002830008F808000008F808203F210101213F2059
:10029300000808F8080800000020203F2020000084
:1002A30000000808F8080800C08080807F00000074
:1002B30008F888C028180800203F200126382000AD
:1002C30008F8080000000000203F20202020300014
:1002D30008F8F800F8F80800203F003F003F20002E
:1002E30008F830C00008F808203F200007183F0036
:1002F300E01008080810E0000F10202020100F0065
:1003030008F808080808F000203F21010101000057
:10031300E01008080810E0000F18242438504F009C
:1003230008F8888888887000203F2000030C30205C
:1003330000708808080838000038202121221C009A
:10034300180808F8080818000000203F20000000E3
:1003530008F808000008F808001F202020201F00CC
:100363000878880000C83808000007380E0100002C
:10037300F80800F80008F800033C0700073C0300F6
:10038300081868808068180820302C03032C30205C
:100393000838C800C83808000000203F20000000CB
:1003A30010080808C8380800203826212020180023
:1003B300000000FE020202000000007F40404000F7
:1003C300000C30C000000000000000010638C0002F
:1003D30000020202FE000000004040407F000000D7
:1003E30000000402020204000000000000000000FC
:1003F30000000000000000008080808080808080FA
:1004030000020204000000000000000000000000E1
:1004130000008080808000000019242222223F20D7
:1004230008F8008080000000003F112020110E001A
:100433000000008080800000000E112020201100A9
:10044300000000808088F800000E112020103F205B
:100453000000808080800000001F222222221300DF
:10046300008080F0888888180020203F202000002A
:100473000000808080808000006B949494936000DF
:1004830008F8008080800000203F210000203F20EA
:1004930000809898000000000020203F20200000EA
:1004A300000000809898000000C08080807F0000DA
:1004B30008F8000080808000203F24022D302000B7
:1004C300000808F8000000000020203F2020000062
:1004D3008080808080808000203F20003F20003F7C
:1004E3008080008080800000203F210000203F208A
:1004F3000000808080800000001F202020201F003B
:10050300808000808000000080FFA12020110E0069
:100513000000008080808000000E112020A0FF805A
:10052300808080008080800020203F212000010007
:10053300000080808080800000332424242419005C
:10054300008080E0808000000000001F2020000069
:100553008080000000808000001F202020103F20AA
:10056300808080000080808000010E30080601003A
:1005730080800080008080800F300C030C300F00DF
:1005830000808000808080000020312E0E3120000A
:10059300808080000080808080818E70180601003A
:1005A30000808080808080000021302C2221300058
:1005B30000000000807C020200000000003F404079
:1005C30000000000FF00000000000000FF0000002A
:1005D3000002027C800000000040403F0000000059
:1005E30000060101020204040000000000000000F4
:090A4200D280D281C281C281225E
:070A4B00C281D280D281229A
:0B0A18001208F9120A23AF041208F9BB
:050A2300D280C2802218
:0708F200AC07120A427F78F7
:1008F900C280E4FEEEC3940874809480501BAD0757
:10090900530580ED64807004D2818002C281EF2595
:09091900E0FFD280C2800E80DBF9
:0109220022B2
:0E0A28001208F2120A23E4FF120A18020A4B07
:1009D0003EF583E5822BF582E43583F583E493FFCE
:0E09E0001208F2120A237F40120A18020A4B74
:0809AC00FFE91475F008A4FD39
:1009B400AB05EF44B0FF120A28EB54F0C4540F44C3
:0C09C40010FF120A28EB540FFF020A2853
:10098100E4FAEAC3940874809480501EAF02E4FD37
:100991001209B4E4FBEBC39480748094805008E4A2
:0A09A100FF1209E00B80EE0A80D877
:0109AB002229
:06072D008F16AA03A905C6
:10073300E5161425E01209ACE4FBEBC394087480BE
:1007430094805021EAFF3395E0FEEFC4F8540FC8BC
:1007530068FFEEC454F048FE74032FF58274FE1252
:1007630009D00B80D5E51625E0141209ACE4FBEBA8
:10077300C39408748094805021EAFF3395E0FEEF20
:10078300C4F8540FC868FFEEC454F048FE740B2F2E
:0A079300F58274FE1209D00B80D528
:01079D002239
:0A0953008F1F8D208B218A2289233B
:10095D00E4F524AB21AA22A92385248275830012F4
:10096D000699FB600EE5202524FDAF1F12072D050E
:03097D002480E0F3
:010980002254
:10092300FFE49400CF24FFFDEF7F0A34FFFC7E0039
:080933008E168F17AB05AA0414
:10093B007F017E00EB1BAC0270011A4C6009AC16F8
:07094B00AD171206C680ED96
:010952002282
:0808B1008F108D118A128B13C8
:1008B900E4F515E515C39514502EC3E514951512E5
:1008C9000923AC12AD13CFCDCFCECCCE1206D87C36
:1008D900007D0A1206D8ED2430FBE5112515FDAF80
:0808E9001012072D051580CB4C
:0108F10022E4
:08079E008F088D098A0A8B0BFC
:1007A600C3E50A9400400D7B2B12072D850A0E85A2
:1007B6000B0F80147B2DAD09AF0812072DC3E495EE
:1007C6000BF50FE4950AF50EE4F50DE50DC3950C52
:1007D600502FC3E50C950D120923AC0EAD0FCFCDEE
:1007E600CFCECCCE1206D87C007D0A1206D8ED24D8
:1007F60030FBE509250D04FDAF0812072D050D8018
:01080600CA27
:0108070022CE
:080808008F188D198A1A8B1B51
:10081000E4F51DE51DC3951C504AC3E51C951DFF5D
:10082000E49400CF24FFFDEF7F1012092EAC1AAD27
:100830001BCFCDCFCECCCE1206D8EF540FF51EC3B2
:10084000940A74809480E5195009251DFDE51E2445
:10085000308007251DFDE51E2437FBAF1812072D3C
:04086000051D80AF43
:010864002271
:080865008F258D268A278B28C0
:10086D00E4F52AE52AC395295039C3E529952AFFD0
:10087D00E49400CF24FFFDEF34FFFC7F027E0012D5
:10088D000933AC27AD28CFCDCFCECCCE1206D8EFC5
:10089D0054012430FBE526252AFDAF2512072D0531
:0308AD002A80C0DE
:0108B0002225
:1005F300E4FFFEE4FDFC0DBD00010CBC03F8BDE807
:10060300F50FBF00010EBE03EABFE8E77FAE120A93
:1006130028E4FF120A287F10120A287F40120A28B2
:100623007FB0120A287F81120A287FFF120A287FCF
:10063300A1120A287FA6120A287FA8120A287F3F40
:10064300120A287FC8120A287FD3120A28E4FF124D
:100653000A287FD5120A287F80120A287FD8120A17
:10066300287F05120A287FD9120A287FF1120A2847
:100673007FDA120A287F12120A287FDB120A287FE8
:1006830030120A287F8D120A287F14120A287FAF9E
:06069300120A2802098191
:1009EE00EF4E60157D087C07ED1DAA0470011C4AB0
:0909FE0070F6EF1F70EA1E80E79D
:010A070022CC
:10069900BB010CE58229F582E5833AF583E0225016
:1006A90006E92582F8E622BBFE06E92582F8E22260
:0D06B900E58229F582E5833AF583E493227A
:1006C600EF8DF0A4A8F0CF8CF0A428CE8DF0A42E48
:0206D600FE2202
:1006D800BC000BBE0029EF8DF084FFADF022E4CC06
:1006E800F875F008EF2FFFEE33FEEC33FCEE9DECCF
:1006F800984005FCEE9DFE0FD5F0E9E4CEFD22ED15
:10070800F8F5F0EE8420D21CFEADF075F008EF2F5E
:10071800FFED33FD4007985006D5F0F222C398FD4F
:050728000FD5F0EA22EC
:00000001FF
