:03000000020003F8
:0C000300787FE4F6D8FD75810702004A02
:0C014B00410002004100000041000100E2
:03015800C281223F
:03015B00D281222C
:03015E00C2832237
:03016100D2832224
:100120002082117F0F7E007D007C0012010420825E
:07013000037F01227F002282
:10008F00120120EF6401701B7FC8FEFDFC120104FA
:10009F00E4900001F0900000F0900002E004F0E026
:1000AF005401F0900002E0700612015812016190A5
:1000BF000002E06401700612015B12015E90000104
:1000CF00E004F07F0A7E007D007C001201049000A6
:1000DF0001E0C394C87480948040A5E4F0900000C0
:1000EF00E004F0E064027098F0900002E004F0E0A9
:0500FF005401F0808BAC
:10013700D3EF9400EE9400400A000000EF1F70F028
:030147001E80ED2A
:01014A002292
:10010400D3EF9400EE940040120000007D0B7CBEFF
:0B011400DCFEDDFCEF1F70E81E80E544
:01011F0022BD
:10000F0002008FE493A3F8E493A34003F68001F278
:10001F0008DFF48029E493A3F85407240CC8C333F2
:10002F00C4540F4420C8834004F456800146F6DFC1
:10003F00E4800B010204081020408090014BE47E05
:10004F00019360BCA3FF543F30E509541FFEE493B6
:10005F00A360010ECF54C025E060A840B8E493A37D
:10006F00FAE493A3F8E493A3C8C582C8CAC583CAA8
:10007F00F0A3C8C582C8CAC583CADFE9DEE780BE60
:0101570000A7
:00000001FF
