:03000000020006F5
:0C000600787FE4F6D8FD75810702004DFC
:04013D00410002007B
:07013600D288D2A8D2AF224B
:0300030002010BEC
:10010B00C0E0C083C082900002E004F0E05401F034
:07011B00D082D083D0E03256
:10009200E4900000F0A3F0120136900000E0B402F8
:1000A20016A3E0B45811E4900000F0A3F09000020F
:1000B200E004F0E05401F0900002E0FF7008C2801A
:1000C200D281C283D282EFB40108D280C281D283AC
:1000D200C2827F0A7E007D007C001200EF90000148
:0D00E200E004F070B5900000E004F080AD87
:10012200D3EF9400EE9400400A000000EF1F70F03D
:030132001E80ED3F
:0101350022A7
:1000EF00D3EF9400EE940040120000007D0B7CBE15
:0B00FF00DCFEDDFCEF1F70E81E80E55A
:01010A0022D2
:10001200020092E493A3F8E493A34003F68001F272
:1000220008DFF48029E493A3F85407240CC8C333EF
:10003200C4540F4420C8834004F456800146F6DFBE
:10004200E4800B010204081020408090013DE47E10
:10005200019360BCA3FF543F30E509541FFEE493B3
:10006200A360010ECF54C025E060A840B8E493A37A
:10007200FAE493A3F8E493A3C8C582C8CAC583CAA5
:10008200F0A3C8C582C8CAC583CADFE9DEE780BE5D
:0101410000BD
:00000001FF
