:020000040800F2
:1000000008040020050100088103000879030008A6
:100010007D0300084D0100082507000800000000CE
:10002000000000000000000000000000690400085B
:1000300051010008000000002504000855050008D3
:100040001F0100081F0100081F0100081F01000810
:100050001F0100081F01000899010008F9010008AC
:100060001F0100081F0100081F0100081F010008F0
:100070001F0100081F0100081F0100081F010008E0
:100080001F0100081F0100081F0100081F010008D0
:100090001F0100081F0100081F0100081F010008C0
:1000A0001F0100081F0100081F0100081F010008B0
:1000B0001F0100081F0100081F0100081F010008A0
:1000C0001F0100081F0100081F0100081F01000890
:1000D0001F0100081F0100081F0100081F01000880
:1000E000CD0100081F0100081F010008DFF810D033
:1000F00000F01AF80048004749070008AFF30080F5
:10010000080400200648804706480047FEE7FEE74F
:10011000FEE7FEE7FEE7FEE7FEE7FEE7FEE7FEE7B7
:1001200059050008ED000008064C074D06E0E068A0
:1001300040F0010394E8070098471034AC42F6D32E
:10014000FFF7D8FFAC070008CC07000800BFFEE7A8
:10015000704700B5034603E04FF47A7000F005F8ED
:10016000181EA3F10103F7D100BD00EBC001C900C7
:100170004FF0E0225161002191610521116100BF22
:100180004FF0E021096901F480310029F8D0042101
:100190004FF0E0221161704710B5012000F04CF8DB
:1001A00001280DD10221074800F0DDF828B90648E2
:1001B0000088401E00B204490880012000F036F893
:1001C00010BD0000000C01400200002010B54FF4EB
:1001D0008041074800F0C7F8012808D10548008889
:1001E000401C044908804FF4804000F01FF810BD07
:1001F000000C01400000002010B5022000F01CF8A7
:1002000001280DD10121074800F0ADF828B90648B2
:100210000088401C00B204490880022000F006F863
:1002200010BD0000000C01400200002001490860E0
:10023000704700001404014001460020034A126880
:100240000A400AB1012000E0002070471404014078
:100250002DE9F0410246002500260020002300245D
:10026000002791F803C00CF00F0591F803C00CF0C3
:10027000100CBCF1000F03D091F802C04CEA050548
:1002800091F800C0BCF1000F31D0146800202BE0C1
:100290004FF0010C0CFA00F3B1F800C00CEA0306B1
:1002A0009E4220D183004FF00F0C0CFA03F7BC43A1
:1002B00005FA03FC4CEA040491F803C0BCF1280FD2
:1002C00006D14FF0010C0CFA00FCC2F814C00AE091
:1002D00091F803C0BCF1480F05D14FF0010C0CFAA6
:1002E00000FCC2F810C0401C0828D1D31460B1F83B
:1002F00000C0BCF1FF0F34DD546800202EE000F197
:10030000080C4FF0010808FA0CF3B1F800C00CEA31
:1003100003069E4221D183004FF00F0C0CFA03F725
:10032000BC4305FA03FC4CEA040491F803C0BCF199
:10033000280F05D100F1080C08FA0CF8C2F8148057
:1003400091F803C0BCF1480F07D100F1080C4FF041
:10035000010808FA0CF8C2F81080401C0828CED317
:100360005460BDE8F0810246002093680B400BB159
:10037000012000E00020704700BFFEE700BFFEE75D
:100380007047000000B589B00121084600F04CF824
:100390000121042000F058F80020ADF81E00ADF84F
:1003A0001A006320ADF81C0040F2CF20ADF8180011
:1003B00000208DF8200006A94FF0804000F060F981
:1003C00002A800F051F96020ADF808000020ADF857
:1003D00010000120ADF80A000020ADF80E0002A9BF
:1003E0004FF0804000F0F4F818208DF8070001204D
:1003F000ADF8040003208DF8060001A90448FFF7BA
:1004000027FF0121880700F0D7F809B000BD0000E0
:100410000008014010B5044621464FF0804000F02E
:100420002DF910BD7047000029B1064AD269024378
:10043000044BDA6104E0034AD2698243014BDA617A
:10044000704700000010024029B1064A9269024339
:10045000044B9A6104E0034A92698243014B9A611A
:100460007047000000100240704710B500F002F81D
:1004700010BD00000CB500200190009033480068CA
:1004800040F480303149086000BF3048006800F413
:10049000003000900198401C0190009818B9019814
:1004A000B0F5A06FF1D12948006800F4003010B118
:1004B0000120009001E0002000900098012843D125
:1004C0002348006840F01000214908600846006891
:1004D00020F0030008600846006840F00200086051
:1004E0001A4840681949486008464068486008460C
:1004F000406840F4806048600846406820F47C1002
:1005000048600846406840F4E810486008460068C3
:1005100040F08070086000BF0C48006800F0007078
:100520000028F9D00948406820F0030007494860D6
:100530000846406840F00200486000BF0348406839
:1005400000F00C000828F9D10CBD0000001002409A
:10055000002002407047000010B51348006840F0CA
:1005600001001149086008464068104908400E49DA
:100570004860084600680E4908400B490860084674
:10058000006820F4802008600846406820F4FE00DF
:1005900048604FF41F008860FFF767FF4FF000606E
:1005A0000449086010BD0000001002400000FFF880
:1005B000FFFFF6FE08ED00E021B1028842F00102E3
:1005C000028004E002884FF6FE731A4002807047F2
:1005D00070B5002400220023058C4FF6FE763540CE
:1005E0000584028C8388048B4FF68F752C40B51ED2
:1005F0002C400D882C43751E2A400D892A434D88B6
:100600002A43144DA8420BD0134DA84208D0134DD5
:10061000A84205D0124DA84202D0124DA84213D1D3
:100620004FF6F7752A404D892A434FF6FB752A404D
:100630008D882A434FF6FF652B404FF6FF552B4020
:100640008D892B43CD892B4383800483CD88858678
:10065000028470BD002C0140003401400040014084
:100660000044014000480140002101804180818018
:10067000C180018141818181C1817047818670473C
:10068000002202881D4B98420ED01D4B98420BD081
:10069000B0F1804F08D01B4B984205D01A4B9842BE
:1006A00002D01A4B984204D14FF68F731A404B88F0
:1006B0001A43174B984207D0164B984204D04FF676
:1006C000FF431A40CB881A4302808B8883850B88AE
:1006D00003850A4B98420BD0094B984208D00E4B29
:1006E000984205D00D4B984202D00D4B984201D153
:1006F0000B7A03860123838270470000002C01409F
:10070000003401400004004000080040000C00409C
:10071000001000400014004000400140004401402F
:100720000048014000BFFEE702E008C8121F08C1F0
:10073000002AFAD170477047002001E001C1121F62
:10074000002AFBD170470000FFF71CFE2AE00020C2
:10075000154908800BE014480088FFF75BFE0A206B
:10076000FFF7F7FC10480088401C0F4908800E482E
:1007700000886428EFDB00200B4908800EE00A495E
:100780000988C1F1640188B2FFF744FE0A20FFF72F
:10079000E0FC05480088401C0349088002480088A6
:1007A0006428ECDBD3E7000004000020CC0700083D
:1007B000000000200800000028070008D4070008F7
:1007C00008000020000400003807000800000000B6
:0407D0000000000025
:04000005080000ED02
:00000001FF
