:03000000020046B5
:0C004600787FE4F6D8FD75816D02164845
:10195F00756AFF7569037B007A007969E4FF020BF2
:01196F00D3A4
:1016480012195F756801E4F567C3E567940874804B
:1016580094805014E568F4F5A0E56825E0F5687F06
:10166800FA121980056780E1756880E4F567C3E5BB
:101678006794087480948050CAE568F4F5A0E5681A
:0D168800C313F5687FFA121980056780E131
:10008600000000000000000000000000000000006A
:10009600000000F8000000000000003330000000FF
:1000A60000100C06100C0600000000000000000006
:1000B60040C07840C0784000043F04043F04040078
:1000C600007088FC08300000001820FF211E000088
:1000D600F008F000E018000000211C031E211E009D
:1000E60000F00888700000001E2123241927211023
:1000F60010160E00000000000000000000000000C6
:10010600000000E01804020000000007182040006C
:1001160000020418E000000000402018070000005C
:10012600404080F0804040000202010F01020200C0
:10013600000000F0000000000101011F01010100A4
:10014600000000000000000080B070000000000009
:100156000000000000000000000101010101010192
:100166000000000000000000003030000000000029
:1001760000000000806018040060180601000000FE
:1001860000E010080810E000000F102020100F00FB
:10019600001010F8000000000020203F2020000082
:1001A60000700808088870000030282422213000DA
:1001B60000300888884830000018202020110E00E2
:1001C6000000C02010F8000000070424243F24008B
:1001D60000F80888880808000019212020110E0060
:1001E60000E0108888180000000F112020110E0072
:1001F60000380808C83808000000003F000000006A
:100206000070880808887000001C222121221C002A
:1002160000E010080810E0000000312222110F0053
:10022600000000C0C00000000000003030000000E8
:100236000000008000000000000080600000000058
:100246000000804020100800000102040810200071
:1002560040404040404040000404040404040400BC
:100266000008102040800000002010080402010051
:10027600007048080808F000000000303601000051
:10028600C030C828E810E0000718272423140B0004
:100296000000C038E0000000203C2302022738207E
:1002A60008F8888888700000203F202020110E0062
:1002B600C030080808083800071820202010080059
:1002C60008F808080810E000203F202020100F0042
:1002D60008F88888E8081000203F2020232018000E
:1002E60008F88888E8081000203F20000300000076
:1002F600C03008080838000007182020221E020017
:1003060008F808000008F808203F210101213F20D5
:10031600000808F8080800000020203F2020000000
:1003260000000808F8080800C08080807F000000F0
:1003360008F888C028180800203F20012638200029
:1003460008F8080000000000203F20202020300090
:1003560008F8F800F8F80800203F003F003F2000AA
:1003660008F830C00008F808203F200007183F00B2
:10037600E01008080810E0000F10202020100F00E1
:1003860008F808080808F000203F210101010000D4
:10039600E01008080810E0000F18242438504F0019
:1003A60008F8888888887000203F2000030C3020D9
:1003B60000708808080838000038202121221C0017
:1003C600180808F8080818000000203F2000000060
:1003D60008F808000008F808001F202020201F0049
:1003E6000878880000C83808000007380E010000A9
:1003F600F80800F80008F800033C0700073C030073
:10040600081868808068180820302C03032C3020D8
:100416000838C800C83808000000203F2000000047
:1004260010080808C838080020382621202018009F
:10043600000000FE020202000000007F4040400073
:10044600000C30C000000000000000010638C000AB
:1004560000020202FE000000004040407F00000053
:100466000000040202020400000000000000000078
:100476000000000000000000808080808080808076
:10048600000202040000000000000000000000005E
:1004960000008080808000000019242222223F2054
:1004A60008F8008080000000003F112020110E0097
:1004B6000000008080800000000E11202020110026
:1004C600000000808088F800000E112020103F20D8
:1004D6000000808080800000001F2222222213005C
:1004E600008080F0888888180020203F20200000A7
:1004F6000000808080808000006B9494949360005C
:1005060008F8008080800000203F210000203F2066
:1005160000809898000000000020203F2020000066
:10052600000000809898000000C08080807F000056
:1005360008F8000080808000203F24022D30200033
:10054600000808F8000000000020203F20200000DE
:100556008080808080808000203F20003F20003FF8
:100566008080008080800000203F210000203F2006
:100576000000808080800000001F202020201F00B7
:10058600808000808000000080FFA12020110E00E6
:100596000000008080808000000E112020A0FF80D7
:1005A600808080008080800020203F212000010084
:1005B60000008080808080000033242424241900D9
:1005C600008080E0808000000000001F20200000E6
:1005D6008080000000808000001F202020103F2027
:1005E600808080000080808000010E3008060100B7
:1005F60080800080008080800F300C030C300F005C
:1006060000808000808080000020312E0E31200086
:10061600808080000080808080818E7018060100B6
:1006260000808080808080000021302C22213000D4
:1006360000000000807C020200000000003F4040F5
:1006460000000000FF00000000000000FF000000A6
:100656000002027C800000000040403F00000000D5
:100666000006010102020404000000000000000070
:0919BA00D280D281C281C28122D7
:0719C300C281D280D2812213
:0B1970001217D612197BAF041217D615
:05197B00D280C28022B1
:0717CF00AC071219BA7F7884
:1017D600C280E4FEEEC3940874809480501BAD076B
:1017E600530580ED64807004D2818002C281EF25AA
:0917F600E0FFD280C2800E80DB0E
:0117FF0022C7
:0E1990001217CF12197BE4FF1219700219C34F
:10191B003EF583E5822BF582E43583F583E493FF73
:0E192B001217CF12197B7F401219700219C3D8
:0818D800FFE91475F008A4FDFE
:1018E000AB05EF44B0FF121990EB54F0C4540F4411
:0C18F00010FF121990EB540FFF0219902A
:10185E00E4FAEAC3940874809480501EAF02E4FD4B
:10186E001218E0E4FBEBC39480748094805008E47B
:0A187E00FF12192B0B80EE0A80D830
:01188800223D
:0613DE008F6DAA03A905B2
:1013E400E56D1425E01218D8E4FBEBC3940874806F
:1013F40094805021EAFF3395E0FEEFC4F8540FC8FF
:1014040068FFEEC454F048FE74862FF58274FE1211
:10141400191B0B80D5E56D25E0141218D8E4FBEBFD
:10142400C39408748094805021EAFF3395E0FEEF62
:10143400C4F8540FC868FFEEC454F048FE748E2FED
:0A144400F58274FE12191B0B80D50F
:01144E00227B
:0A1830008F558D568B578A58895941
:10183A00E4F55AAB57AA58A959855A8275830012FA
:10184A00099DFB600EE556255AFDAF551213DE05BC
:03185A005A80E0D1
:01185D002268
:10180000FFE49400CF24FFFDEF7F0A34FFFC7E004D
:081810008E6B8F6CAB05AA047E
:101818007F017E00EB1BAC0270011A4C6009AC6BB7
:07182800AD6C1209DC80ED3C
:01182F002296
:0816E1008F5B8D5C8A5D8B5E5E
:1016E900E4F560E560C3955F502EC3E55F95601230
:1016F9001800AC5DAD5ECFCDCFCECCCE1209EE7C5D
:10170900007D0A1209EEED2430FBE55C2560FDAF92
:081719005B1213DE056080CBBA
:0117210022A5
:0814C0008F388D398A3A8B3B0D
:1014C800C3E53A9400400D7B2B1213DE853A3E8526
:1014D8003B3F80147B2DAD39AF381213DEC3E49542
:1014E8003BF53FE4953AF53EE4F53DE53DC3953CD3
:1014F800502FC3E53C953D121800AC3EAD3FCFCD13
:10150800CFCECCCE1209EE7C007D0A1209EEED2476
:1015180030FBE539253D04FDAF381213DE053D806B
:01152800CAF8
:01152900229F
:081594008F408D418A428B4318
:10159C00E4F545E545C39544504AC3E5449545FFFC
:1015AC00E49400CF24FFFDEF7F1012180BAC42AD7A
:1015BC0043CFCDCFCECCCE1209EEEF540FF546C3B0
:1015CC00940A74809480E54150092545FDE5462434
:1015DC003080072545FDE5462437FBAF401213DE6E
:0415EC00054580AF82
:0115F00022D8
:081695008F618D628A638B6492
:10169D00E4F566E566C395655039C3E5659566FF66
:1016AD00E49400CF24FFFDEF34FFFC7F027E001297
:1016BD001810AC63AD64CFCDCFCECCCE1209EEEF0A
:1016CD0054012430FBE5622566FDAF611213DE0582
:0316DD006680C064
:0116E00022E7
:1011AB00E4FFFEE4FDFC0DBD00010CBC03F8BDE843
:1011BB00F50FBF00010EBE03EABFE8E77FAE1219C1
:1011CB0090E4FF1219907F101219907F4012199022
:1011DB007FB01219907F811219907FFF1219907FA7
:1011EB00A11219907FA61219907FA81219907F3F18
:1011FB001219907FC81219907FD3121990E4FF1225
:10120B0019907FD51219907F801219907FD81219DF
:10121B00907F051219907FD91219907FF1121990B6
:10122B007FDA1219907F121219907FDB1219907FBF
:10123B00301219907F8D1219907F141219907FAF75
:06124B0012199002185E6A
:1015F100120984F59D90000112099DFFE5BC549FDD
:101601004FF5BC90000212099D6401700543BC8036
:10161100800353BC7F90000312099D640170054350
:10162100972080035397DF90000512099D64017094
:1016310004D2AD8002C2AD90000412099D64017014
:0716410003D2BD22C2BD224D
:0D002E00EF6401700443BC802253BC7F22AC
:10152A00EFD394077480948040028059E4F5BDF5A6
:10153A00BEE5BC54E044084FF5BC00000000E4FBE3
:10154A00EBC394FA74809480503BE5BC30E4335387
:10155A00BCEFE59730E509E5BD5403ADBEFC801D3F
:10156A00AFBD7C00AD077E00ED7802C333CE33CE2B
:10157A00D8F9FFE5BE5403FDEEFCEF4DFDAF05AE15
:09158A0004220B80BB7E047F00EB
:011593002235
:03002B00020006CA
:0400060053BCEF32C6
:0F1980007DA57C06ED1D70011C144C70F7DFF186
:01198F002235
:0E199E00E4F5C7F5C5F5C675C3FF75C4FF2295
:10172200AD07AC06C2AF75C78175C5018CC3AF05E5
:101732008FC475C65A75C6A500E5C21209CA0DBD89
:1017420000010C740129F9E43AFAE54D154D7002D5
:0D175200154C14454C70D512199ED2AF22D3
:1018FC00AD07AC06C2AF8CC3AF058FC475C781757D
:0F190C00C50375C65A75C6A50012199ED2AF2223
:10175F00AD07AC06C2AF75C78175C5028CC3AF05A7
:10176F008FC4120984F5C275C65A75C6A5000DBD82
:10177F0000010C740129F9E43AFAE554155470028A
:0D178F00155314455370D512199ED2AF2288
:0300030002000EEA
:03000E00B280328B
:03001300020016D2
:03001600B2813282
:0300530002001E8A
:03001E00B2823279
:03005B000200267A
:03002600B2833270
:0300830002003E3A
:03003E00B2843257
:1010E500EFD394047480948040037F0122EF703025
:1010F50090000212099D64017004D2A88002C2A862
:1011050090000112099D64017004D2B88002C2B832
:1011150012098464017004D2888002C2887F00228B
:10112500EF6401703090000212099D64017004D2D1
:10113500AA8002C2AA90000112099D64017004D21E
:10114500BA8002C2BA12098464017004D28A80028C
:10115500C28A7F0022EF6402701590000212099D79
:1011650064017005438F108003538FEF7F0022EFDA
:101175006403701590000212099D64017005438F88
:10118500208003538FDF7F0022EF640470159000E9
:101195000212099D64017005438F408003538FBF80
:0611A5007F00227F022200
:100BD300EFD394057480948040037F01221209842B
:100BE300FED394037480948040037F0222EF704409
:100BF300EE700B90000112099DF452935294120966
:100C0300846401700B90000112099D4293F4529485
:100C1300120984FE6402700A90000112099D429336
:100C23004294EE6403700D90000112099DFEF4528C
:100C330093EE4294EF64017046120984FE700B90A8
:100C4300000112099DF452915292EE6401700B90CF
:100C5300000112099D4291F45292120984640270B8
:100C63000A90000112099D42914292120984640381
:100C7300700D90000112099DFEF45291EE4292EF25
:100C830064027046120984FE700B90000112099DE4
:100C9300F452955296EE6401700B90000112099D77
:100CA3004295F452961209846402700A900001126C
:100CB300099D429542961209846403700D900001C8
:100CC30012099DFEF45295EE4296EF6403704612AC
:100CD3000984FE700B90000112099DF452B152B2C7
:100CE300EE6401700B90000112099D42B1F452B2FF
:100CF3001209846402700A90000112099D42B142F4
:100D0300B21209846403700D90000112099DFEF470
:100D130052B1EE42B2EF64047046120984FE700BC6
:100D230090000112099DF452B352B4EE6401700BAA
:100D330090000112099D42B3F452B4120984640273
:100D4300700A90000112099D42B342B412098464EF
:100D530003700D90000112099DFEF452B3EE42B4EC
:100D6300EF64057049120984FF7E00700B90000147
:100D730012099DF452C952CAEF64014E700B9000E0
:100D83000112099D42C9F452CA1209846402700A0D
:100D930090000112099D42C942CA1209846403707A
:100DA3000D90000112099DFFF452C9EF42CA7F0062
:010DB300221D
:10125100EFFB7A00702ED3ED9450EC940F40047C98
:101261000F7D50C3ED9450EC940050047C007D50F0
:10127100C2DE8C118D12C374A09DF50C740F9CF508
:101281000BD2DE22EB64014A702ED3ED9468EC940C
:101291000B40047C0B7D68C3ED9450EC940050042A
:1012A1007C007D50C2DE8C138D14C374B89DF50E85
:1012B100740B9CF50DD2DE22EB64024A702DD3ED46
:1012C1009480EC940740047C077D80C3ED9450EC3E
:1012D100940050047C007D50C2DE8C158D16C374C1
:0C12E100D09DF51074079CF50FD2DE22A2
:100F7E008B1D8A1E891FAD07EDD394037480948058
:100F8E0040030210E4EF64037048C2DEF5F9F5E9A0
:100F9E00AB1DAA1EA91F120984FFE5A254CF4FF55F
:100FAE00A290000112099DFFE5D954F14FF5D99099
:100FBE00000412099D5401FFE5D954FE4FF5D99056
:100FCE00000512099D64017004D2BF8002C2BFD217
:100FDE00DE22AB1DE51F2404F9E4351EFA12098446
:100FEE0054311209CAAB1DAA1EA91F900002120984
:100FFE009DC3944874809480400FE92404F9E43A28
:10100E00FA12098454CF1209CAED7040AB1DAA1E04
:10101E00A91F90000412099DFF90000212099DFE67
:10102E004FF5DA90000312099DFFE5F2543F4FF59C
:10103E00F2900006120A43F51285F011C2008E08D6
:10104E00851117F5188518EAE517F5FAED640170A4
:10105E0040AB1DAA1EA91F90000412099DFF90000F
:10106E000212099DFE4FF5DB90000312099DFFE56C
:10107E00F3543F4FF5F3900006120A43F51485F032
:10108E0013C2018E09851319F51A851AEBE519F5A8
:10109E00FBED64027040AB1DAA1EA91F9000041246
:1010AE00099DFF90000212099DFE4FF5DC90000392
:1010BE0012099DFFE5F4543F4FF5F4900006120A15
:1010CE0043F51685F015C2028E0A85151BF51C8593
:0710DE001CECE51BF5FC22F0
:03003B0002136647
:10136600C0E0C0D030D822C2D830A50AE512251870
:10137600F518E5118008E50C2518F518E50B351765
:10138600F5178518EAE517F5FA30D922C2D930A63D
:101396000AE514251AF51AE5138008E50E251AF54F
:1013A6001AE50D3519F519851AEBE519F5FB30DA4D
:1013B60022C2DA30A70AE516251CF51CE5158008B9
:1013C600E510251CF51CE50F351BF51B851CECE50A
:0813D6001BF5FCD0D0D0E03281
:0D19AC007FAF7E00EF1F70011E144E70F71C
:0119B900220B
:02179C00AD0797
:10179E00C2AFC2B11219ACE4FCECC39408748094CD
:1017AE00805014ED30E004D2B18002C2B1EDC3130B
:1017BE00FD1219AC0C80E2D2B1D2AF1219AC0219E3
:0117CE00AC6E
:10006600AB07AA068B828A83E493FF600A12179C69
:080076000BBB00010A80ED2222
:080676008F2F8B308A3189328D
:10067E00EF6401600302084F752101F522F523F5A1
:10068E0024F525F526F527F533C3E53394807480DC
:10069E009480501174002533F582E43401F583E41F
:1006AE00F0053380E4E4F533C3E53394807480942D
:1006BE0080501174002533F582E43400F583E4F0A4
:1006CE00053380E4AB30AA31A932120984FD7C00D7
:1006DE00D394C07480948040037F022290000A124B
:1006EE00099D64017004D2BC8002C2BC120984FF51
:1006FE00E598543F4FF598ED64C04C6008EF6440A8
:10070E0060030207CA900002120B6D7F007E607DAF
:10071E00547C00120AB78F378E368D358C34E4FF39
:10072E00FE7D01FCAB37AA36A935A834C3120B499E
:10073E0040037F0222C3E49537F537E49536F5364C
:10074E0074019535F535E49534F534AB30AA31A9FD
:10075E003290000112099DFB7A006401702CC28E4A
:10076E00538EFE5389BF5389CF438E40AF37AE367B
:10077E00AD35AC347808120B5A8F8D85378BC2ABE2
:10078E005389BF538FFDD28E806CEB64024A702961
:10079E00538EEF438E01538EF7438E04AF37AE3632
:1007AE00AD35AC347808120B5A8FD68537D753AF88
:1007BE00FB538EF7438E10803D7F0222AB30AA3161
:1007CE00A932120984FF7E00701490000812099D50
:1007DE0064017005438E20801D538EDF8018EF64F8
:1007EE00804E701290000812099D640170054387B7
:1007FE0080800353877FAB30AA31A9329000091253
:10080E00099D64017004D2AC8002C2AC9000071244
:10081E00099D64017004D29C8002C29C90000B1250
:10082E00099D54C0FFE5A2543F4FF5A290000C1253
:10083E00099D6401700543971080035397EF7F0065
:10084E0022E52F64026003020981752802F529F55D
:10085E002AF52BF52CF52DF52EF533C3E5339480C3
:10086E0074809480501174802533F582E43401F540
:10087E0083E4F0053380E4E4F533C3E53394807408
:10088E00809480501174802533F582E43400F58312
:10089E00E4F0053380E4AB30AA31A932120984FFAB
:1008AE0064C06008EF6440600302094490000A12BD
:1008BE00099D6401700543B501800353B5FE12090D
:1008CE008464C07005439A808003539A7F9000021F
:1008DE00120B6D7F007E607D547C00120AB78F373D
:1008EE008E368D358C34E4FFFE7D01FCAB37AA3697
:1008FE00A935A834C3120B4940037F0222C3E495E5
:10090E0037F537E49536F53674019535F535E495BA
:10091E0034F534538EEF538EF7438E04AF37AE3625
:10092E00AD35AC347808120B5A8FD68537D753AF06
:10093E00FB438E1080037F0222AB30AA31A9329086
:10094E00000912099D6401700543AF01800353AF86
:10095E00FE90000712099D64017005439A108003F2
:10096E00539AEF90000B12099D5401FFE5BA54FE05
:05097E004FF5BA7F00F7
:010983002251
:1018B10074002523F582E43401F583EFF00523C399
:1018C100E5239480748094804003E4F523E524703B
:0718D10005752401D29922E4
:101889007480252AF582E43401F583EFF0052AC333
:10189900E52A9480748094804003E4F52AE52B704E
:0818A90006752B01439A02228F
:10193900120984FF600C1218B1740129F9E43AFA0A
:0319490080EE220B
:10194C00120984FF600C121889740129F9E43AFA1F
:03195C0080EE22F8
:0300230002144F75
:10144F00C0E0C083C082C0D075D000C007309828DC
:10145F00C298E5277022C3E525948074809480405C
:10146F0003752500AF25052574002FF582E43400A0
:10147F00F583E599F075260530992BC299E522651C
:10148F0023602074002522F582E43401F583E0F512
:10149F00990522C3E52294807480948040087522B8
:1014AF00008003752400D007D0D0D082D083D0E045
:0114BF0032FA
:030043000212EDB9
:1012ED00C0E0C083C082C0D075D000C007E59A545D
:1012FD00016029539AFEE52E7022C3E52C9480746B
:10130D008094804003752C00AF2C052C74802FF534
:10131D0082E43400F583E59BF0752D05E59A5402C2
:10132D00602C539AFDE529652A602074802529F5E6
:10133D0082E43401F583E0F59B0529C3E52994800A
:10134D007480948040087529008003752B00D007A8
:09135D00D0D0D082D083D0E03260
:03000B0002000AE6
:01000A0032C3
:03001B00020011CF
:0100110032BC
:0300630002005642
:03005600B2903233
:100DB400AD07EDD394027480948040037F0122ED4B
:100DC4006003020E5AC28C90000212099D640170E5
:100DD40004D2A98002C2A990000112099D64017085
:100DE40004D2B98002C2B9120984FED39403748078
:100DF400948040037F0222E58954FC4EF5899000DB
:100E04000312099DFF7E0064017003538E7FEF4E31
:100E14007003438E80EF64024E700543890480039F
:100E24005389FB90000412099D64017005438F01EE
:100E34008003538FFE900005120A43E5F0F58C9071
:100E44000005120A43F58A90000712099D64017097
:100E540002D28C7F0022ED64016003020EF3C28E85
:100E640090000212099D64017004D2AB8002C2ABEF
:100E740090000112099D64017004D2BB8002C2BBC0
:100E8400120984FEC394037480948040037F022279
:100E9400E58954CF4EF58990000312099DFF7E0029
:100EA40064017003538EBFEF4E7003438E40EF64B2
:100EB400024E700543894080035389BF9000041299
:100EC400099D64017005438F028003538FFD9000D8
:100ED40005120A43E5F0F58D900005120A43F58BDF
:100EE40090000712099D64017002D28E7F0022EDEA
:100EF40064026003020F7B538EEF90000212099D7F
:100F04006401700543AF04800353AFFB90000312E8
:100F1400099DFD7C00D394027480948040037F0279
:100F240022ED64014C7003538EFB90000312099D63
:100F34007003438E0490000312099D6402700543FC
:100F44008E088003538EF790000412099D6401708B
:100F540005438F048003538FFB900005120A43FD61
:100F6400ACF0ECF5D68DD790000712099D640170A2
:0A0F740003438E107F00227F02224B
:10098400BB010689828A83E0225002E722BBFE0271
:09099400E32289828A83E49322A4
:10099D00BB010CE58229F582E5833AF583E022500F
:1009AD0006E92582F8E622BBFE06E92582F8E22259
:0D09BD00E58229F582E5833AF583E4932273
:1009CA00BB010689828A83F0225002F722BBFE010C
:0209DA00F32206
:1009DC00EF8DF0A4A8F0CF8CF0A428CE8DF0A42E2F
:0209EC00FE22E9
:1009EE00BC000BBE0029EF8DF084FFADF022E4CCED
:1009FE00F875F008EF2FFFEE33FEEC33FCEE9DECB6
:100A0E00984005FCEE9DFE0FD5F0E9E4CEFD22EDFB
:100A1E00F8F5F0EE8420D21CFEADF075F008EF2F45
:100A2E00FFED33FD4007985006D5F0F222C398FD36
:050A3E000FD5F0EA22D3
:100A4300BB0110E58229F582E5833AF583E0F5F0F1
:100A5300A3E0225009E92582F886F008E622BBFECE
:100A63000AE92582F8E2F5F008E222E5832AF58314
:080A7300E993F5F0A3E99322D9
:100A7B0075F008758200EF2FFFEE33FECD33CDCC32
:100A8B0033CCC58233C5829BED9AEC99E5829840B5
:100A9B000CF582EE9BFEED9AFDEC99FC0FD5F0D692
:100AAB00E4CEFBE4CDFAE4CCF9A88222B800C1B9BC
:100ABB000059BA002DEC8BF084CFCECDFCE5F0CBFA
:100ACB00F97818EF2FFFEE33FEED33FDEC33FCEB33
:100ADB0033FB10D703994004EB99FB0FD8E5E4F9EE
:100AEB00FA227818EF2FFFEE33FEED33FDEC33FCDB
:100AFB00C933C910D7059BE99A4007EC9BFCE99ACF
:100B0B00F90FD8E0E4C9FAE4CCFB2275F010EF2F13
:100B1B00FFEE33FEED33FDCC33CCC833C810D70713
:100B2B009BEC9AE899400AED9BFDEC9AFCE899F84E
:0E0B3B000FD5F0DAE4CDFBE4CCFAE4C8F922E1
:100B4900EB9FF5F0EA9E42F0E99D42F0E89C45F002
:010B59002279
:100B5A00E8600FECC313FCED13FDEE13FEEF13FF79
:030B6A00D8F1229D
:100B6D00BB010DE58229F582E5833AF583020BAAD7
:100B7D005007E92582F8020B9DBBFE07E92582F897
:100B8D00020BB6E58229F582E5833AF583020BC3A4
:0D0B9D00E6FB08E6F908E6FA08E6CBF822C8
:0C0BAA00E0F8A3E0F9A3E0FAA3E0FB22CE
:0D0BB600E2FB08E2F908E2FA08E2CBF822BF
:100BC300E493F8740193F9740293FA740393FB2288
:00000001FF
