:0300000002021BDE
:0C021B00787FE4F6D8FD758107020262CE
:1002A700410071005E005300FA01060126014A0170
:1002B7005E018901B901EF020D024D029502BC03EF
:1002C70012037203DE60290000050506050807050D
:1002D700050605090805050C0A0807060B0B0A0899
:1002E700090805050805050C0A0807060B0B0A0887
:1002F7000908602A0029010202020204010202021F
:1003070002040102020201040401020202020401C2
:1003170002040102020201040401020202020404AF
:10032800EF64E87003EE6403603CAB07AA06E4F9E7
:10033800F87F207EA17D07FC12005490007A1200FD
:10034800F7D28090007AE0FCA3E0FDA3E0FEA3E0F2
:10035800FF120462C28090007AE0FCA3E0FDA3E0F3
:10036800FEA3E0FF80087FE87E037D007C00120486
:010378006222
:010379002261
:1003AF0090007EEEF0A3EFF0D280E4FCFD1203CFBD
:1003BF00C28090007EE0FEA3E0FFE4FCFD0203CFCD
:100134007590F09000721201030000000AE4900030
:1001440076F0A3F06390FFE4900078F0A3F09000C1
:1001540076E0FCA3E0FD2429F58274003CF583E0FD
:10016400FF7E0074002DF58274003CF583E025E0E9
:100174002453F582E43400F583E0FCA3E0FD12008F
:1001840006E4FCFD900072E0F8A3E0F9A3E0FAA312
:10019400E0FB120054A804A905AA06AB0790007856
:1001A400E0FEA3E0FFE4FCFDD31200E64040900033
:1001B40076E0FEA3E02400F58274003EF583E0259A
:1001C400E02453F582E43400F583E0FEA3E0FF125B
:1001D4000328900071E064016014900079E004F059
:1001E4006003020152900078E004F0020152900092
:1001F40071E064016020900077E004F070069000E4
:1002040076E004F0C3900077E09429900076E094BF
:0602140000500302014846
:01021A0022C1
:07047600D288D2A8D2AF2208
:0300030002041FD5
:10041F00C0E0C083C082900071E004F0E05401F0AE
:07042F00D082D083D0E0323F
:10044D00120476900071E0FF7002F590EFB401F3A5
:05045D0012013480EEE5
:03047D00C2812217
:03048000D2812204
:1003EB00C2817F647E007D007C001203CFD2817FAF
:0A03FB00647E007D007C000203CF49
:03048300C2802212
:03048600D28022FF
:10040500C2807F647E007D007C001203CFD2807F96
:0A041500647E007D007C000203CF2E
:100436002080117F0F7E007D007C001203CF20807C
:07044600037F01227F002269
:10037A003080093082063083032084267F0F7E0076
:10038A007D007C001203CF2080037F01222082039C
:10039A007F02222083037F03222084037F04227F9B
:0503AA0000227F00228B
:10046200D3EF9400EE9400400A000000EF1F70F0FA
:030472001E80EDFC
:010475002264
:1003CF00D3EF9400EE940040120000007D0B7CBE32
:0B03DF00DCFEDDFCEF1F70E81E80E577
:0103EA0022F0
:1002270002044DE493A3F8E493A34003F68001F29C
:1002370008DFF48029E493A3F85407240CC8C333D8
:10024700C4540F4420C8834004F456800146F6DFA7
:10025700E4800B01020408102040809002A7E47E8E
:10026700019360BCA3FF543F30E509541FFEE4939C
:10027700A360010ECF54C025E060A840B8E493A363
:10028700FAE493A3F8E493A3C8C582C8CAC583CA8E
:10029700F0A3C8C582C8CAC583CADFE9DEE780BE46
:0103270000D5
:10000600EF8DF0A4A8F0CF8CF0A428CE8DF0A42E0E
:02001600FE22C8
:1000180075F008758200EF2FFFEE33FECD33CDCC9F
:1000280033CCC58233C5829BED9AEC99E582984022
:100038000CF582EE9BFEED9AFDEC99FC0FD5F0D6FF
:10004800E4CEFBE4CDFAE4CCF9A88222B800C1B929
:100058000059BA002DEC8BF084CFCECDFCE5F0CB67
:10006800F97818EF2FFFEE33FEED33FDEC33FCEBA0
:1000780033FB10D703994004EB99FB0FD8E5E4F95B
:10008800FA227818EF2FFFEE33FEED33FDEC33FC48
:10009800C933C910D7059BE99A4007EC9BFCE99A3C
:1000A800F90FD8E0E4C9FAE4CCFB2275F010EF2F81
:1000B800FFEE33FEED33FDCC33CCC833C810D70781
:1000C8009BEC9AE899400AED9BFDEC9AFCE899F8BC
:0E00D8000FD5F0DAE4CDFBE4CCFAE4C8F9224F
:1000E600EB9FF5F0EA9E42F0E99D42F0E89C45F070
:0100F60022E7
:0C00F700ECF0A3EDF0A3EEF0A3EFF0227C
:10010300A8828583F0D083D08212011A12011A12B9
:10011300011A12011AE473E493A3C583C5F0C583DE
:10012300C8C582C8F0A3C583C5F0C583C8C582C846
:0101330022A9
:00000001FF
