:03000000020526D0
:0C052600787FE4F6D8FD75812002056D99
:10033500900008741CF0E490000BF012070D1203F6
:10034500DC900010E0FAA3E0FB7C007D64FFAE02C8
:100355001202D2900009EFF07C007D0AAF03AE02D5
:100365001202D27C007D0A1202D2A3EDF0900009A0
:10037500E0FD7F021205B57F017E007D007C001245
:10038500069790000AE0FD7F031205B57F017E0008
:100395007D007C001206977D0C7F041205B57F0158
:1003A5007E007D007C00120697900009E075F00A3A
:1003B500A4FFA3E07C002FFFEC35F0FE900008E0E1
:1003C500FDC3EF9D7480F86E98400612070A02037C
:0703D5004312070D02034370
:03070A00C2952273
:03070D00D2952260
:1006B300C2957F647E007D007C00120697D2957FF1
:0A06C300647E007D007C00020697B3
:1006E20042001000004200140000410016004200C7
:0306F2001200D221
:0506290090000EEFF04F
:10062E00E4A3F0C29490000EE01392947F3C7E00FF
:10063E007D007C001206F6D29490000EE0C313F0FB
:10064E00A3E004F0E0C3940840D97F3C7E007D0017
:05065E007C000206F61D
:10066300E490000EF0C29490000FE0C313F0D29414
:10067300309404E04480F07F3C7E007D007C0012D7
:1006830006F690000EE004F0E0C3940840D7900013
:030693000FE0FF76
:010696002241
:1005EE00C200D2947F487E007D007C001206F6C2C7
:1005FE00947FF47E017D007C001206F6D2947F3C3F
:10060E007E007D007C001206F6A29492007F3C7E56
:0A061E00007D007C001206F6A20029
:0106280022AF
:1003DC001205EE7FCC1206297F441206291205EE77
:1003EC007FCC1206297FBE12062912066390000CE0
:1003FC00EFF012066390000DEFF01205EE90000D79
:10040C00E0FE90000CE0FBFDEDFF900010EEF0A381
:10041C00EFF0EE54F8705D900010E0C4F854F0C8A2
:10042C0068FEA3E0C4540F48FF7C007D0A1202C092
:10043C00900010EEF0A3EFF0EB540FFCE412020B63
:10044C00E4FBFA7920783F1200FBC004C005C0061B
:10045C00C007900010E0FCA3E0FDE4120206D003FC
:10046C00D002D001D00012000A12023F900010EE10
:04047C00F0A3EFF00A
:010480002259
:1006CD003F065B4F666D7D077F6F777C395E797175
:0506DD00763854733E65
:0305B200A3E0FDC6
:1005B500EFB40108C290D291D292D293EFB402085F
:1005C500D290C291D292D293EFB40308D290D29135
:1005D500C292D293EFB40408D290D291D292C29330
:0905E500ED9006CD93F4F580229F
:04048100AB07AA0615
:100485007C037DE81202D2900000EEF0A3EFF07C31
:10049500007D64AF03AE021202D27C007D0A120217
:1004A500D2A3ECF0A3EDF07C007D0AAF03AE0212FF
:1004B50002D27C007D0A1202D2A3ECF0A3EDF0AECD
:1004C50002AF037C007D0A1202D2A3ECF0A3EDF08B
:1004D5009000007F011205B27F057E007D007C0043
:1004E5001206979000027F021205B27F057E007DFD
:1004F500007C00120697900004A3E0FD7F0312051F
:10050500B57F057E007D007C00120697900006A34E
:10051500E0FD7F041205B50F7E007D007C0002061C
:01052500973E
:1006F600D3EF9400EE9400400A000000EF1F70F064
:030706001E80ED65
:0107090022CD
:10069700D3EF9400EE940040120000007D0B7CBE67
:0B06A700DCFEDDFCEF1F70E81E80E5AC
:0106B2002225
:100003000202ABE86480F8E933E83360110460F07E
:10001300ED33EC337009E8FCE9FDEAFEEBFF220463
:1000230060DED3EB9FEA9EE99DE8C2E78CF0C2F75E
:1000330095F0400CE8CCF8E9CDF9EACEFAEBCFFB2A
:1000430012027685D0F05804700320D5B3E804700B
:10005300075002B2D50202B592D5EC0460F7E4CCA6
:10006300C0E0C398F8603B94186008400DD0E0FBF3
:1000730002028DE4FBFAC9FC8028E830E406E4C9F7
:10008300FBE4CAFCE830E305E4C9CACBFCE8540747
:100093006010F8C3E913F9EA13FAEB13FBEC13FC52
:1000A300D8F130F52FC3E49CFCEF9BFFEE9AFEEDF5
:1000B30099FDD0E0FBEF4E4D4C701222DB030202A0
:1000C300B2EC2CFCEF33FFEE33FEED33FDED30E706
:1000D300EB02028DEF2BFFEE3AFEED39FDD0E0FB94
:1000E30050130BBB00030202B5ED13FDEE13FEEF3D
:0800F30013FFEC13FC02028D67
:1000FB00EC4D6011E8497017ED33EC3304600DE4FF
:10010B00FCFFFEFD22E933E8330470F80202AB1268
:10011B00027658046009E4CC248150062850090269
:10012B0002B52840030202B2C0E0EB4A7044B9802A
:10013B0006D0E0FB0202A1EF4E701CBD8008EBFF66
:10014B00EAFEE9FD80EBE98DF0A4FEE5F00201E4A7
:10015B00E9CDF9EAFEEBFFEF89F0A4FCE5F0CE89DF
:10016B00F0A42EFFE435F0CD89F0A42DFEE435F09C
:10017B008067EF4E7005BD80D780C3EF8BF0A4ACCA
:10018B00F0EE8BF0A42CFCE435F0F8EF8AF0A42C05
:10019B00E5F038FCE433CB8DF0A42CFCE5F03BF818
:1001AB00EE8AF0A42CFCE5F038F8E433CF89F0A408
:1001BB002CFCE5F038CF3400CE89F0A42FFFE5F00E
:1001CB003EFEE433C98DF0A42EFEE5F039CD8AF066
:1001DB00A42FFFE5F03EFEE43DFD33D0E0FB5007DE
:1001EB000BBB000F0202B5EC2CFCEF33FFEE33FE22
:0601FB00ED33FD02028D50
:1002010075F020800E75F010800575F0087D007E78
:10021100007F003392D530D503120327EC33401011
:10022100EF33FFEE33FEED33FDEC33FCD5F0ED2281
:0E023100E5F0247EA2D513CC92E7CDCEFF22BD
:10023F00EDD2E7CD33EC3392D524814006E4FFFEB7
:10024F00FDFC22FCE4CFCECDCC24E0501174FF8016
:10025F00EDC3CC13CCCD13CDCE13CECF13CF0470B3
:07026F00F030D5DE02032789
:10027600E9D2E7C933E833F892D5EDD2E7CD33ECCE
:0702860033FC5002B2D52247
:10028D00EC30E7100FBF000C0EBE00080DBD0004D2
:10029D000BEB6014A2D5EB13FCED92E7FD2274FF7E
:1002AD00FCFDFEFF22E480F8A2D574FF13FC7D80D7
:0302BD00E480EFEB
:10053200020335E493A3F8E493A34003F68001F2A7
:1005420008DFF48029E493A3F85407240CC8C333CA
:10055200C4540F4420C8834004F456800146F6DF99
:10056200E4800B01020408102040809006E2E47E41
:10057200019360BCA3FF543F30E509541FFEE4938E
:10058200A360010ECF54C025E060A840B8E493A355
:10059200FAE493A3F8E493A3C8C582C8CAC583CA80
:1005A200F0A3C8C582C8CAC583CADFE9DEE780BE38
:0106F5000004
:1002C000EF8DF0A4A8F0CF8CF0A428CE8DF0A42E52
:0202D000FE220C
:1002D200BC000BBE0029EF8DF084FFADF022E4CC10
:1002E200F875F008EF2FFFEE33FEEC33FCEE9DECD9
:1002F200984005FCEE9DFE0FD5F0E9E4CEFD22ED1F
:10030200F8F5F0EE8420D21CFEADF075F008EF2F68
:10031200FFED33FD4007985006D5F0F222C398FD59
:050322000FD5F0EA22F6
:0E032700C3E49FFFE49EFEE49DFDE49CFC22E7
:00000001FF
