:03000000021424C3
:0C142400787FE4F6D8FD75812002146B7F
:101044009000357419F0A3740CF0121C291211C00D
:1010540090005FE0FEA3E0FF7C007D641208EFAB2C
:101064000790005FE0FEA3E0FF7C007D0A1208EF1A
:10107400900037EFF075F00A84AAF090005FE0FE6C
:10108400A3E0FF7C007D0A1208EFAE05AF03AD02BA
:10109400AB0690003B740CF0A37401F012162412FA
:1010A4001949EFFD7C00640170059000358014ED52
:1010B40064024C70059000358017ED64034C700891
:1010C400900036E004F0800CED64044C700690004F
:1010D40036E014F0900035E0FF900037E0FEC39F47
:1010E4005009900036E0FFEE9F500E121C26121B92
:1010F4002F121B2F121C298006121C29121C237F5D
:0D110400DC7E057D007C00121B13021051E3
:101B7900759D0143972075BCC07F057E007D007C63
:041B890000021B1328
:101AF70043BC08E5BC5410641070F8AFBDADBEEF31
:0B1B0700FEEDFF53BCEFE4F5BDF5BEA2
:011B120022B0
:1000030000000000000000000000000000000000ED
:10001300000000F800000000000000333000000082
:1000230000100C06100C0600000000000000000089
:1000330040C07840C0784000043F04043F040400FB
:10004300007088FC08300000001820FF211E00000B
:10005300F008F000E018000000211C031E211E0020
:1000630000F00888700000001E21232419272110A6
:1000730010160E0000000000000000000000000049
:10008300000000E0180402000000000718204000F0
:1000930000020418E00000000040201807000000E0
:1000A300404080F0804040000202010F0102020044
:1000B300000000F0000000000101011F0101010028
:1000C300000000000000000080B07000000000008D
:1000D3000000000000000000000101010101010116
:1000E30000000000000000000030300000000000AD
:1000F3000000000080601804006018060100000082
:1001030000E010080810E000000F102020100F007E
:10011300001010F8000000000020203F2020000005
:10012300007008080888700000302824222130005D
:1001330000300888884830000018202020110E0065
:100143000000C02010F8000000070424243F24000E
:1001530000F80888880808000019212020110E00E3
:1001630000E0108888180000000F112020110E00F5
:1001730000380808C83808000000003F00000000ED
:100183000070880808887000001C222121221C00AE
:1001930000E010080810E0000000312222110F00D7
:1001A300000000C0C000000000000030300000006C
:1001B30000000080000000000000806000000000DC
:1001C30000008040201008000001020408102000F5
:1001D3004040404040404000040404040404040040
:1001E30000081020408000000020100804020100D5
:1001F300007048080808F0000000003036010000D5
:10020300C030C828E810E0000718272423140B0087
:100213000000C038E0000000203C23020227382001
:1002230008F8888888700000203F202020110E00E5
:10023300C0300808080838000718202020100800DC
:1002430008F808080810E000203F202020100F00C5
:1002530008F88888E8081000203F20202320180091
:1002630008F88888E8081000203F200003000000F9
:10027300C03008080838000007182020221E02009A
:1002830008F808000008F808203F210101213F2059
:10029300000808F8080800000020203F2020000084
:1002A30000000808F8080800C08080807F00000074
:1002B30008F888C028180800203F200126382000AD
:1002C30008F8080000000000203F20202020300014
:1002D30008F8F800F8F80800203F003F003F20002E
:1002E30008F830C00008F808203F200007183F0036
:1002F300E01008080810E0000F10202020100F0065
:1003030008F808080808F000203F21010101000057
:10031300E01008080810E0000F18242438504F009C
:1003230008F8888888887000203F2000030C30205C
:1003330000708808080838000038202121221C009A
:10034300180808F8080818000000203F20000000E3
:1003530008F808000008F808001F202020201F00CC
:100363000878880000C83808000007380E0100002C
:10037300F80800F80008F800033C0700073C0300F6
:10038300081868808068180820302C03032C30205C
:100393000838C800C83808000000203F20000000CB
:1003A30010080808C8380800203826212020180023
:1003B300000000FE020202000000007F40404000F7
:1003C300000C30C000000000000000010638C0002F
:1003D30000020202FE000000004040407F000000D7
:1003E30000000402020204000000000000000000FC
:1003F30000000000000000008080808080808080FA
:1004030000020204000000000000000000000000E1
:1004130000008080808000000019242222223F20D7
:1004230008F8008080000000003F112020110E001A
:100433000000008080800000000E112020201100A9
:10044300000000808088F800000E112020103F205B
:100453000000808080800000001F222222221300DF
:10046300008080F0888888180020203F202000002A
:100473000000808080808000006B949494936000DF
:1004830008F8008080800000203F210000203F20EA
:1004930000809898000000000020203F20200000EA
:1004A300000000809898000000C08080807F0000DA
:1004B30008F8000080808000203F24022D302000B7
:1004C300000808F8000000000020203F2020000062
:1004D3008080808080808000203F20003F20003F7C
:1004E3008080008080800000203F210000203F208A
:1004F3000000808080800000001F202020201F003B
:10050300808000808000000080FFA12020110E0069
:100513000000008080808000000E112020A0FF805A
:10052300808080008080800020203F212000010007
:10053300000080808080800000332424242419005C
:10054300008080E0808000000000001F2020000069
:100553008080000000808000001F202020103F20AA
:10056300808080000080808000010E30080601003A
:1005730080800080008080800F300C030C300F00DF
:1005830000808000808080000020312E0E3120000A
:10059300808080000080808080818E70180601003A
:1005A30000808080808080000021302C2221300058
:1005B30000000000807C020200000000003F404079
:1005C30000000000FF00000000000000FF0000002A
:1005D3000002027C800000000040403F0000000059
:1005E30000060101020204040000000000000000F4
:091BF900D280D281C281C2812296
:071C0200C281D280D28122D1
:0B1BDB00121A1E121BE6AF04121A1EA5
:051BE600D280C2802244
:071A1700AC07121BF97F78F8
:101A1E00C280E4FEEEC3940874809480501AAD0721
:101A2E00ED548064807004D2818002C281EF25E083
:081A3E00FFD280C2800E80DCA3
:011A4600227D
:0E1BEB00121A17121BE6E4FF121BDB021C028B
:101ABB003EF583E5822DF582E43583F583E493FFD0
:0E1ACB00121A17121BE67F40121BDB021C02D0
:061A99001475F008A4FD25
:101A9F00AB05EF44B0FF121BEBEB54F0C4540F44F3
:0C1AAF0010FF121BEBEB540FFF021BEBAF
:101A4700E4FAEAC3940874809480501EAF02E4FD60
:101A5700121A9FE4FBEBC39480748094805008E4CF
:0A1A6700FF121ACB0B80EE0A80D8A4
:011A71002252
:04126500FEE02EFD7C
:0D12690090006EEBF090006CEFF0A3EDF044
:10127600EF1425E0FFED121A99E490006FF090004C
:101286006FE0FDC3940874809480502990006EE04E
:10129600FF3395E0FEEFC4F8540FC868FFEEC45460
:1012A600F048FE74032FF58274FE121ABB90006F8D
:1012B600E004F080C990006CE025E014FFA3E01282
:1012C6001A99E490006FF090006FE0FDC3940874E3
:1012D600809480502990006EE0FF3395E0FEEFC4C5
:1012E600F8540FC868FFEEC454F048FE740B2FF58F
:0E12F6008274FE121ABB90006FE004F080C9F3
:0113040022C6
:10184C00900066EFF0A3EDF0A3EBF0A3EAF0A3E9B0
:01185C00F09B
:10185D00E4A3F0900068E0FBA3E0FAA3E0F9A3E0B5
:10186D00F5827583001208B0FB6017900066E0FFEB
:10187D0090006BE090006712126590006BE004F031
:02188D0080D108
:01188F002236
:10153700EEFDC3EF9DFFE49400CF24FFCF34FFFE01
:101547003395E0FDFC900021120AB57F0A7E007DED
:03155700007C0015
:06155A0090001D120AB50D
:10156000900025120AC10000000190002174FF12B2
:101570000A82EC4D4E4F6027900025E0FCA3E0FD71
:10158000A3E0FEA3E0FF90001DE0F8A3E0F9A3E0D4
:10159000FAA3E0FB120944900025120AB580CB9013
:0D15A0000025E0FCA3E0FDA3E0FEA3E0FFBA
:0115AD00221B
:0817540090003FEFF0A3EDF05F
:10175C00E4900046F0900045E0FFA3E0FEC39F50EC
:10176C0040121537A804A905AA06AB07900041E062
:10177C00FCA3E0FDA3E0FEA3E0FF1209CFE47B0A8B
:10178C00FAF9F81209CFEB2430FB90003FE0FF9000
:10179C000046E0900040121265900046E004F08094
:0117AC00B488
:0117AD002219
:08111100900029EFF0A3EDF0BE
:10111900E4FFFEFDFCA3E0F8A3E0F9A3E0FAA3E0F5
:10112900FBC3120A6F900029E0FFA3E0FD40157B85
:101139002B12126990002BE0FCA3E0FDA3E0FEA3B3
:10114900E0FF80167B2D12126990002BE0FCA3E0D2
:10115900FDA3E0FEA3E0FF120A61900031120AB577
:10116900E4900030F090002FE0FFA3E0FEC39F5011
:1011790045121537A804A905AA06AB07900031E066
:10118900FCA3E0FDA3E0FEA3E0FF1209CFE47B0A84
:10119900FAF9F81209CFEB2430FB900029E0FF900F
:1011A9000030E0FE90002AE02E04FD121269900042
:0611B90030E004F080AFFD
:0111BF00220D
:0814B000900047EFF0A3EDF0FE
:1014B800E490004EF090004DE0F9A3E0FFC399508E
:1014C8006DE9C39FFFE49400CF24FFCF34FFFE33C0
:1014D80095E0FDFC900021120AB57F10121554A862
:1014E80004A905AA06AB07900049E0FCA3E0FDA308
:1014F800E0FEA3E0FF1209CFEF540FFFAE07EEC3E3
:10150800940A74809480900047E0FF90004EE0FDBC
:10151800900048E050072DFDEE243080052DFDEEAB
:0E1528002437FB12126990004EE004F0808719
:011536002292
:0815AE0090004FEFF0A3EDF0F7
:1015B600E4900056F0900055E0FFA3E0FEC39F5074
:1015C6005CEEFDC3EF9DFFE49400CF24FFCF34FF14
:1015D600FE3395E0FDFC900021120AB57F0212153C
:1015E60054A804A905AA06AB07900051E0FCA3E0A5
:1015F600FDA3E0FEA3E0FF1209CFEF5401FFEF24A5
:1016060030FB90004FE0FF900056E0FE900050E067
:0D1616002EFD121269900056E004F080983D
:0116230022A4
:100E3B00900057120AC100000000E47FE87E03FD1A
:100E4B00FC900057E0F8A3E0F9A3E0FAA3E0FBC3A2
:100E5B00120A6F506890005B120AC100000000E498
:100E6B007FE87E03FDFC90005BE0F8A3E0F9A3E0D4
:100E7B00FAA3E0FBC3120A6F502190005BE0FCA3C6
:100E8B00E0FDA3E0FEA3E02401FFE43EFEE43DFD14
:100E9B00E43CFC90005B120AB580C4900057E0FC68
:100EAB00A3E0FDA3E0FEA3E02401FFE43EFEE43D4E
:100EBB00FDE43CFC900057120AB5020E457FAE12C2
:100ECB001BEBE4FF121BEB7F10121BEB7F40121B83
:100EDB00EB7FB0121BEB7F81121BEB7FFF121BEB27
:100EEB007FA1121BEB7FA6121BEB7FA8121BEB7FC4
:100EFB003F121BEB7FC8121BEB7FD3121BEBE4FFE4
:100F0B00121BEB7FD5121BEB7F80121BEB7FD812D2
:100F1B001BEB7F05121BEB7FD9121BEB7FF1121B17
:100F2B00EB7FDA121BEB7F12121BEB7FDB121BEB3F
:100F3B007F30121BEB7F8D121BEB7F14121BEB7F91
:070F4B00AF121BEB021A4775
:101B63003F065B4F666D7D077F6F777C395E7971CA
:061B7300763854733E00B9
:101BC900D295D2947F027E007D007C00121BB5C2A3
:021BD900942254
:1019E500C2957F057E007D007C00121BB5309412E8
:1019F50090003DE0C394FA748094805005E004F0B3
:101A050080EBD2957F027E007D007C00121BB5C263
:011A1500953B
:011A160022AD
:10197E00C2957F027E007D007C00121BB5C2947F53
:10198E00027E007D007C00121BB5D2957F027E0088
:10199E007D007C00121BB5D2947F027E007D007C00
:0419AE0000021BB563
:0617AE00E0901B6393FFB5
:0517B40090003DEFF084
:1017B900E4A3F090003EE0C394087480948050360E
:1017C900C29590003DE030E004D2948002C2947F3B
:1017D900037E007D007C00121BB590003DE0C31321
:1017E900F0D2957F037E007D007C00121BB590002E
:0617F9003EE004F080BD9B
:0117FF0022C7
:10162400900038EFF0A3EDF0A3EBF0121BC97F405C
:101634001217B41219E512197E121BC97FC01217B2
:10164400B41219E59000381217AE1219E590003C57
:10165400E0C43333335480FF900039E0901B63932C
:101664004FFF1217B41219E590003A1217AE12196F
:10167400E590003B1217AE1219E512197E121BC930
:0B1684007F891217B41219E502197ECD
:04168F00AB07AA06F5
:101693007C037DE81208EF900072EFF07C007D641C
:1016A300AF03AE021208EF7C007D0A1208EF900030
:1016B30071EDF07C007D0AAF03AE021208EF7C00EF
:1016C3007D0A1208EF900070EDF0AE02AF037C00CC
:1016D3007D0A1208EFAE05900072E0FF900071E002
:1016E300FD900070E0FB90003BEEF0E4A3F00216E7
:0116F30024D2
:101A7200D2907F0A7E007D007C00121BB5C2907F4F
:101A8200147E007D007C00121B13D2907F207E000A
:071A92007D007C00021BB582
:10180000E4900073F0900073E0C3940874809480B7
:1018100050343090FD7F207E007D007C00121BB58F
:10182000E4900074F030900204F02090FD900003EA
:10183000E025E0FFF0900074E04F900003F090008E
:0B18400073E004F080BF900003E0FFA5
:01184B00227A
:10130500121A72D2907F017E007D007C00121BB5FF
:1013150020907C3090FD2090FD12180090000AEF7F
:10132500F012180090000BEFF012180090000EEF6D
:10133500F0121800900000EFF0121800900001EF75
:10134500F0C2907F387E007D007C00121BB5D290E4
:1013550090000BE0FF90000AE0FE2FFD90000EE0EC
:10136500FC2DFD900000E0FB2DFD900008F09000A5
:1013750001E0B5051AA3EEF0900007EFF090000527
:10138500ECF090000CEBF0900008E0900001F022EA
:100AF200E4900075F0A3F0FBEBC39408748094803B
:100B02004003020BBB900002E0F954017C00FDEBB4
:100B1200B408004003020BB0900B21F8282873029E
:100B22000BA4020B8F020B80020B72020B63020BEF
:100B320055020B47020B39AE04ED7807C333CE33AF
:100B4200CED8F98045AE04ED7806C333CE33CED885
:100B5200F98037AE04ED7805C333CE33CED8F980B1
:100B620029EDC4F8540FC868FFECC454F048802340
:100B7200AE04ED7803C333CE33CED8F9800CAE0485
:100B8200ED7802C333CE33CED8F9FF8007ED25E0EE
:100B9200FFEC33FE900076E02FF0900075E03EF01F
:100BA200800C900076E02DF0900075E03CF0E9C3F7
:100BB20013900002F00B020AFA900075A3E0900075
:100BC20004F0E4900075F0A3F0FBEBC3940874808A
:100BD20094804003020C8D900005E0F954017C00E2
:100BE200FDEBB408004003020C82900BF3F82828B6
:100BF20073020C76020C61020C52020C44020C3598
:100C0200020C27020C19020C0BAE04ED7807C33359
:100C1200CE33CED8F98045AE04ED7806C333CE3359
:100C2200CED8F98037AE04ED7805C333CE33CED8B3
:100C3200F98029EDC4F8540FC868FFECC454F04899
:100C42008023AE04ED7803C333CE33CED8F9800CC3
:100C5200AE04ED7802C333CE33CED8F9FF8007ED70
:100C620025E0FFEC33FE900076E02FF0900075E077
:100C72003EF0800C900076E02DF0900075E03CF0A4
:100C8200E9C313900005F00B020BCC900075A3E0B2
:100C9200900006F0E4900075F0A3F0FBEBC394081B
:100CA200748094804003020D5F90000CE0F95401BF
:100CB2007C00FDEBB408004003020D54900CC5F813
:100CC200282873020D48020D33020D24020D16026C
:100CD2000D07020CF9020CEB020CDDAE04ED7807F5
:100CE200C333CE33CED8F98045AE04ED7806C33394
:100CF200CE33CED8F98037AE04ED7805C333CE3388
:100D0200CED8F98029EDC4F8540FC868FFECC4545A
:100D1200F0488023AE04ED7803C333CE33CED8F946
:100D2200800CAE04ED7802C333CE33CED8F9FF8007
:100D320007ED25E0FFEC33FE900076E02FF0900007
:100D420075E03EF0800C900076E02DF0900075E0AA
:100D52003CF0E9C31390000CF00B020C9E9000755E
:100D6200A3E090000DF0E4900075F0A3F0FBEBC35C
:100D72009408748094804003020E31900007E0F9D9
:100D820054017C00FDEBB408004003020E26900DD6
:100D920097F8282873020E1A020E05020DF6020DAC
:100DA200E8020DD9020DCB020DBD020DAFAE04ED6E
:100DB2007807C333CE33CED8F98045AE04ED78063A
:100DC200C333CE33CED8F98037AE04ED7805C333C2
:100DD200CE33CED8F98029EDC4F8540FC868FFECA1
:100DE200C454F0488023AE04ED7803C333CE33CE2F
:100DF200D8F9800CAE04ED7802C333CE33CED8F9E5
:100E0200FF8007ED25E0FFEC33FE900076E02FF047
:100E1200900075E03EF0800C900076E02DF090009E
:100E220075E03CF0E9C313900007F00B020D7090DF
:080E32000075A3E0900009F037
:010E3A002295
:1019B20053A2CF43A21075D90E75DA0275DB0275F8
:1019C200DC02E4F5F2F5F3F5F4F5F9F5E975EA7FF1
:1019D20075FA7F75EB7F75FB7F75EC7F75FC7F7504
:0319E200D84022C8
:031C17008FFA221F
:031C1A008FFB221B
:031C1D008FFC2217
:071C09008FFA8FFB8FFC2214
:071C10008C888A8684828023
:0A1AD900470016180101010000008B
:100F5200E0FF75F00A84C454F0FEEF75F00A84EEE7
:100F620025F0FD7F8C120FFDA3E0FF75F00A84C40B
:100F720054F0FEEF75F00A84EE25F0FD7F88120F23
:100F8200FDA3E0FF75F00A84C454F0FEEF75F00A89
:100F920084EE25F0FD7F8A120FFDA3E0FF75F00AB3
:100FA20084C454F0FEEF75F00A84EE25F0FD7F86CE
:100FB200120FFDA3E0FF75F00A84C454F0FEEF7532
:100FC200F00A84EE25F0FD7F84120FFDA3E0FF7589
:100FD200F00A84C454F0FEEF75F00A84EE25F0FDA9
:100FE2007F82120FFDA3E0FF75F00A84C454F0FE65
:0B0FF200EF75F00A84EE25F0FD7F8013
:100FFD00C28700C28500D28700E4FEEEC394087458
:10100D008094805011EF139286EFC313FFD28500A9
:10101D00C285000E80E5E4FEEEC3940874809480D2
:10102D005011ED139286EDC313FDD28500C28500DC
:06103D000E80E5C28700F1
:01104300228A
:1016F400EF4401FFC28700C28500D28700E4FDEDFC
:10170400C39408748094805011EF139286EFC3132E
:10171400FFD28500C285000D80E500E4FDEDC39491
:101724000874809480501AA286E433FFC4333333A0
:101734005480FCEEC3134CFED28500C285000D809C
:0F174400DCC28700D28500C28600D28600AF06C5
:011753002273
:101B8D00E4FD7F8E120FFD900016120F527D017F26
:041B9D008E020FFDA8
:101BA100E4FD7F8E120FFD90000F120F527D017F19
:041BB1008E020FFD94
:101395007F8C1216F4EFC4540F75F00AA4FEEF54B7
:1013A5000F2E90000FF07F881216F4EFC4540F75BE
:1013B500F00AA4FEEF540F2EA3F07F8A1216F4EF65
:1013C500C4540F75F00AA4FEEF540F2EA3F07F86C8
:1013D5001216F4EFC4540F75F00AA4FEEF540F2E45
:1013E500A3F07F841216F4EFC4540F75F00AA4FE1F
:1013F500EF540F2EA3F07F821216F4EFC4540F752D
:10140500F00AA4FEEF540F2EA3F07F801216F4EF1E
:0E141500C4540F75F00AA4FEEF540F2EA3F07E
:0114230022A6
:031C2000C281225C
:031C2300D2812249
:101B2F00C2817F647E007D007C00121B13D2817FF7
:0A1B3F00647E007D007C00021B1391
:031C2600C2802257
:031C2900D2802244
:101B4900C2807F647E007D007C00121B13D2807FDF
:0A1B5900647E007D007C00021B1377
:101AE30042005F00004200630000410065004200C5
:031AF3006100D2BD
:0518900090003AEFF0AA
:10189500E4A3F090003BE0C3940874809480502347
:1018A500C29390003AE01392937F3C7E007D007CCA
:1018B50000121BB5D29390003AE0C313F0A3E004E5
:0E18C500F080D07F3C7E007D007C00021BB5D1
:1018D300E490003AF090003AE0C394087480948056
:1018E3005023C293A3E0C313F0D293309304E04494
:1018F30080F07F3C7E007D007C00121BB590003A97
:0A190300E004F080D090003BE0FF0C
:01190D0022B7
:10190E00C200D2937F487E007D007C00121BB5C2C0
:10191E00937FF47E017D007C00121BB5D2937F3C39
:10192E007E007D007C00121BB5A29392007F3C7E50
:0A193E00007D007C00121BB5A20022
:01194800227C
:1011C00012190E7FCC1218907F4412189012190E2B
:1011D0007FCC1218907FBE1218901218D39000384E
:1011E000EFF01218D3900039EFF012190E90003979
:1011F000E0FE900038E0FBFDEDFF90005FEEF0A315
:10120000EFF0EE54F8705D90005FE0C4F854F0C861
:1012100068FEA3E0C4540F48FF7C007D0A1208DD7D
:1012200090005FEEF0A3EFF0EB540FFCE41207FB2D
:10123000E4FBFA7920783F1206EBC004C005C00633
:10124000C00790005FE0FCA3E0FDE41207F6D003C6
:10125000D002D001D0001205FA12082F90005FEEE4
:04126000F0A3EFF018
:011264002267
:101949003082093083063084032085267F0A7E0091
:101959007D007C00121B132082037F012220830358
:101969007F02222084037F03222085037F04227FB4
:0519790000227F0022A6
:101BB500D3EF9400EE9400400A000000EF1F70F090
:031BC5001E80ED92
:011BC80022FA
:101B1300D3EF9400EE940040120000007D0B7CBED6
:0B1B2300DCFEDDFCEF1F70E81E80E51B
:011B2E002294
:1005F30002089BE86480F8E933E83360110460F093
:10060300ED33EC337009E8FCE9FDEAFEEBFF22046D
:1006130060DED3EB9FEA9EE99DE8C2E78CF0C2F768
:1006230095F0400CE8CCF8E9CDF9EACEFAEBCFFB34
:1006330012086685D0F05804700320D5B3E804701F
:10064300075002B2D50208A592D5EC0460F7E4CCBA
:10065300C0E0C398F8603B94186008400DD0E0FBFD
:1006630002087DE4FBFAC9FC8028E830E406E4C90B
:10067300FBE4CAFCE830E305E4C9CACBFCE8540751
:100683006010F8C3E913F9EA13FAEB13FBEC13FC5C
:10069300D8F130F52FC3E49CFCEF9BFFEE9AFEEDFF
:1006A30099FDD0E0FBEF4E4D4C701222DB030208A4
:1006B300A2EC2CFCEF33FFEE33FEED33FDED30E720
:1006C300EB02087DEF2BFFEE3AFEED39FDD0E0FBA8
:1006D30050130BBB00030208A5ED13FDEE13FEEF51
:0806E30013FFEC13FC02087D7B
:1006EB00EC4D6011E8497017ED33EC3304600DE409
:1006FB00FCFFFEFD22E933E8330470F802089B127D
:10070B00086658046009E4CC24815006285009027D
:10071B0008A52840030208A2C0E0EB4A7044B98048
:10072B0006D0E0FB020891EF4E701CBD8008EBFF7A
:10073B00EAFEE9FD80EBE98DF0A4FEE5F00207D4BB
:10074B00E9CDF9EAFEEBFFEF89F0A4FCE5F0CE89E9
:10075B00F0A42EFFE435F0CD89F0A42DFEE435F0A6
:10076B008067EF4E7005BD80D780C3EF8BF0A4ACD4
:10077B00F0EE8BF0A42CFCE435F0F8EF8AF0A42C0F
:10078B00E5F038FCE433CB8DF0A42CFCE5F03BF822
:10079B00EE8AF0A42CFCE5F038F8E433CF89F0A412
:1007AB002CFCE5F038CF3400CE89F0A42FFFE5F018
:1007BB003EFEE433C98DF0A42EFEE5F039CD8AF070
:1007CB00A42FFFE5F03EFEE43DFD33D0E0FB5007E8
:1007DB000BBB000F0208A5EC2CFCEF33FFEE33FE36
:0607EB00ED33FD02087D64
:1007F10075F020800E75F010800575F0087D007E83
:10080100007F003392D530D503120A61EC334010DA
:10081100EF33FFEE33FEED33FDEC33FCD5F0ED228B
:0E082100E5F0247EA2D513CC92E7CDCEFF22C7
:10082F00EDD2E7CD33EC3392D524814006E4FFFEC1
:10083F00FDFC22FCE4CFCECDCC24E0501174FF8020
:10084F00EDC3CC13CCCD13CDCE13CECF13CF0470BD
:07085F00F030D5DE020A6152
:10086600E9D2E7C933E833F892D5EDD2E7CD33ECD8
:0708760033FC5002B2D52251
:10087D00EC30E7100FBF000C0EBE00080DBD0004DC
:10088D000BEB6014A2D5EB13FCED92E7FD2274FF88
:10089D00FCFDFEFF22E480F8A2D574FF13FC7D80E1
:0308AD00E480EFF5
:10143000021044E493A3F8E493A34003F68001F27E
:1014400008DFF48029E493A3F85407240CC8C333BD
:10145000C4540F4420C8834004F456800146F6DF8C
:10146000E4800B0102040810204080901AD9E47E29
:10147000019360BCA3FF543F30E509541FFEE49381
:10148000A360010ECF54C025E060A840B8E493A348
:10149000FAE493A3F8E493A3C8C582C8CAC583CA73
:1014A000F0A3C8C582C8CAC583CADFE9DEE780BE2B
:011AF60000EF
:1008B000BB010CE58229F582E5833AF583E02250FD
:1008C00006E92582F8E622BBFE06E92582F8E22247
:0D08D000E58229F582E5833AF583E4932261
:1008DD00EF8DF0A4A8F0CF8CF0A428CE8DF0A42E2F
:0208ED00FE22E9
:1008EF00BC000BBE0029EF8DF084FFADF022E4CCED
:1008FF00F875F008EF2FFFEE33FEEC33FCEE9DECB6
:10090F00984005FCEE9DFE0FD5F0E9E4CEFD22EDFB
:10091F00F8F5F0EE8420D21CFEADF075F008EF2F45
:10092F00FFED33FD4007985006D5F0F222C398FD36
:05093F000FD5F0EA22D3
:10094400E88FF0A4CC8BF0A42CFCE98EF0A42CFC52
:100954008AF0EDA42CFCEA8EF0A4CDA8F08BF0A4D0
:100964002DCC3825F0FDE98FF0A42CCD35F0FCEB2F
:100974008EF0A4FEA9F0EB8FF0A4CFC5F02ECD39F4
:0F098400FEE43CFCEAA42DCE35F0FDE43CFC2261
:1009930075F008758200EF2FFFEE33FECD33CDCC1B
:1009A30033CCC58233C5829BED9AEC99E58298409E
:1009B3000CF582EE9BFEED9AFDEC99FC0FD5F0D67B
:1009C300E4CEFBE4CDFAE4CCF9A88222B800C1B9A5
:1009D3000059BA002DEC8BF084CFCECDFCE5F0CBE3
:1009E300F97818EF2FFFEE33FEED33FDEC33FCEB1C
:1009F30033FB10D703994004EB99FB0FD8E5E4F9D7
:100A0300FA227818EF2FFFEE33FEED33FDEC33FCC3
:100A1300C933C910D7059BE99A4007EC9BFCE99AB7
:100A2300F90FD8E0E4C9FAE4CCFB2275F010EF2FFC
:100A3300FFEE33FEED33FDCC33CCC833C810D707FC
:100A43009BEC9AE899400AED9BFDEC9AFCE899F837
:0E0A53000FD5F0DAE4CDFBE4CCFAE4C8F922CA
:0E0A6100C3E49FFFE49EFEE49DFDE49CFC22A6
:100A6F00EB9FF5F0EA9E42F0E99D42F0E89C45F0DD
:010A7F002254
:100A80007401FF3395E0FEFDFCA3A3A3E0CF2FF09C
:100A9000E582158270021583E0CE3EF0E582158274
:100AA00070021583E0CD3DF0E5821582700215835A
:050AB000E0CC3CF02247
:0C0AB500ECF0A3EDF0A3EEF0A3EFF022B4
:100AC100A8828583F0D083D082120AD8120AD81264
:100AD1000AD8120AD8E473E493A3C583C5F0C58389
:100AE100C8C582C8F0A3C583C5F0C583C8C582C87F
:010AF10022E2
:00000001FF
